{
  "contractName": "SmartWill",
  "abi": [
    {
      "inputs": [],
      "stateMutability": "nonpayable",
      "type": "constructor"
    },
    {
      "anonymous": false,
      "inputs": [
        {
          "indexed": false,
          "internalType": "uint256",
          "name": "id",
          "type": "uint256"
        },
        {
          "indexed": false,
          "internalType": "uint256",
          "name": "blockTime",
          "type": "uint256"
        }
      ],
      "name": "WillActivityRegistered",
      "type": "event"
    },
    {
      "anonymous": false,
      "inputs": [
        {
          "indexed": false,
          "internalType": "address",
          "name": "owner",
          "type": "address"
        },
        {
          "indexed": false,
          "internalType": "uint256",
          "name": "id",
          "type": "uint256"
        }
      ],
      "name": "WillCreated",
      "type": "event"
    },
    {
      "anonymous": false,
      "inputs": [
        {
          "indexed": false,
          "internalType": "address",
          "name": "owner",
          "type": "address"
        },
        {
          "indexed": false,
          "internalType": "uint256",
          "name": "id",
          "type": "uint256"
        }
      ],
      "name": "WillDeleted",
      "type": "event"
    },
    {
      "anonymous": false,
      "inputs": [
        {
          "indexed": false,
          "internalType": "address",
          "name": "recipient",
          "type": "address"
        },
        {
          "indexed": false,
          "internalType": "uint256",
          "name": "id",
          "type": "uint256"
        }
      ],
      "name": "WillRedeemed",
      "type": "event"
    },
    {
      "inputs": [
        {
          "internalType": "address",
          "name": "",
          "type": "address"
        },
        {
          "internalType": "uint256",
          "name": "",
          "type": "uint256"
        }
      ],
      "name": "willsByOwner",
      "outputs": [
        {
          "internalType": "uint256",
          "name": "id",
          "type": "uint256"
        },
        {
          "internalType": "address",
          "name": "owner",
          "type": "address"
        },
        {
          "internalType": "uint256",
          "name": "ammount",
          "type": "uint256"
        },
        {
          "internalType": "uint256",
          "name": "redemptionDate",
          "type": "uint256"
        },
        {
          "internalType": "uint256",
          "name": "lastActivity",
          "type": "uint256"
        },
        {
          "internalType": "address payable",
          "name": "recipient",
          "type": "address"
        }
      ],
      "stateMutability": "view",
      "type": "function"
    },
    {
      "inputs": [
        {
          "internalType": "address",
          "name": "",
          "type": "address"
        },
        {
          "internalType": "uint256",
          "name": "",
          "type": "uint256"
        }
      ],
      "name": "willsByRecipient",
      "outputs": [
        {
          "internalType": "uint256",
          "name": "id",
          "type": "uint256"
        },
        {
          "internalType": "address",
          "name": "owner",
          "type": "address"
        },
        {
          "internalType": "uint256",
          "name": "ammount",
          "type": "uint256"
        },
        {
          "internalType": "uint256",
          "name": "redemptionDate",
          "type": "uint256"
        },
        {
          "internalType": "uint256",
          "name": "lastActivity",
          "type": "uint256"
        },
        {
          "internalType": "address payable",
          "name": "recipient",
          "type": "address"
        }
      ],
      "stateMutability": "view",
      "type": "function"
    },
    {
      "inputs": [
        {
          "internalType": "uint256",
          "name": "redemptionDate",
          "type": "uint256"
        },
        {
          "internalType": "address payable",
          "name": "recipient",
          "type": "address"
        }
      ],
      "name": "createWill",
      "outputs": [
        {
          "internalType": "uint256",
          "name": "",
          "type": "uint256"
        }
      ],
      "stateMutability": "payable",
      "type": "function"
    },
    {
      "inputs": [],
      "name": "getMaxWillCount",
      "outputs": [
        {
          "internalType": "uint256",
          "name": "",
          "type": "uint256"
        }
      ],
      "stateMutability": "pure",
      "type": "function"
    },
    {
      "inputs": [
        {
          "internalType": "uint256",
          "name": "id",
          "type": "uint256"
        }
      ],
      "name": "getWill",
      "outputs": [
        {
          "components": [
            {
              "internalType": "uint256",
              "name": "id",
              "type": "uint256"
            },
            {
              "internalType": "address",
              "name": "owner",
              "type": "address"
            },
            {
              "internalType": "uint256",
              "name": "ammount",
              "type": "uint256"
            },
            {
              "internalType": "uint256",
              "name": "redemptionDate",
              "type": "uint256"
            },
            {
              "internalType": "uint256",
              "name": "lastActivity",
              "type": "uint256"
            },
            {
              "internalType": "address payable",
              "name": "recipient",
              "type": "address"
            }
          ],
          "internalType": "struct SmartWill.Will",
          "name": "w",
          "type": "tuple"
        }
      ],
      "stateMutability": "view",
      "type": "function"
    },
    {
      "inputs": [
        {
          "internalType": "uint256",
          "name": "id",
          "type": "uint256"
        }
      ],
      "name": "deleteWill",
      "outputs": [
        {
          "internalType": "bool",
          "name": "",
          "type": "bool"
        }
      ],
      "stateMutability": "nonpayable",
      "type": "function"
    },
    {
      "inputs": [],
      "name": "getWillsByOwner",
      "outputs": [
        {
          "components": [
            {
              "internalType": "uint256",
              "name": "id",
              "type": "uint256"
            },
            {
              "internalType": "address",
              "name": "owner",
              "type": "address"
            },
            {
              "internalType": "uint256",
              "name": "ammount",
              "type": "uint256"
            },
            {
              "internalType": "uint256",
              "name": "redemptionDate",
              "type": "uint256"
            },
            {
              "internalType": "uint256",
              "name": "lastActivity",
              "type": "uint256"
            },
            {
              "internalType": "address payable",
              "name": "recipient",
              "type": "address"
            }
          ],
          "internalType": "struct SmartWill.Will[]",
          "name": "",
          "type": "tuple[]"
        }
      ],
      "stateMutability": "view",
      "type": "function"
    },
    {
      "inputs": [],
      "name": "getWillsByRecipient",
      "outputs": [
        {
          "components": [
            {
              "internalType": "uint256",
              "name": "id",
              "type": "uint256"
            },
            {
              "internalType": "address",
              "name": "owner",
              "type": "address"
            },
            {
              "internalType": "uint256",
              "name": "ammount",
              "type": "uint256"
            },
            {
              "internalType": "uint256",
              "name": "redemptionDate",
              "type": "uint256"
            },
            {
              "internalType": "uint256",
              "name": "lastActivity",
              "type": "uint256"
            },
            {
              "internalType": "address payable",
              "name": "recipient",
              "type": "address"
            }
          ],
          "internalType": "struct SmartWill.Will[]",
          "name": "",
          "type": "tuple[]"
        }
      ],
      "stateMutability": "view",
      "type": "function"
    },
    {
      "inputs": [
        {
          "internalType": "uint256",
          "name": "id",
          "type": "uint256"
        }
      ],
      "name": "redeemWill",
      "outputs": [],
      "stateMutability": "nonpayable",
      "type": "function"
    },
    {
      "inputs": [
        {
          "internalType": "uint256",
          "name": "id",
          "type": "uint256"
        }
      ],
      "name": "registerActivy",
      "outputs": [],
      "stateMutability": "nonpayable",
      "type": "function"
    }
  ],
  "bytecode": "0x608060405234801561001057600080fd5b506001600081905550612904806100286000396000f3fe6080604052600436106100915760003560e01c8063a29c581711610059578063a29c5817146101bf578063aaea88de146101ef578063bd2662cd14610218578063c93c23ee14610243578063cf8058631461026c57610091565b8063227a32c01461009657806327e26594146100d35780634192bbb01461011557806346242d63146101525780639620e57914610194575b600080fd5b3480156100a257600080fd5b506100bd60048036038101906100b89190611fc6565b610297565b6040516100ca91906124c6565b60405180910390f35b3480156100df57600080fd5b506100fa60048036038101906100f59190611f8a565b610c75565b60405161010c96959493929190612617565b60405180910390f35b34801561012157600080fd5b5061013c60048036038101906101379190611fc6565b610d0e565b60405161014991906125e1565b60405180910390f35b34801561015e57600080fd5b5061017960048036038101906101749190611f8a565b610f82565b60405161018b96959493929190612617565b60405180910390f35b3480156101a057600080fd5b506101a961101b565b6040516101b691906125fc565b60405180910390f35b6101d960048036038101906101d49190611fef565b611024565b6040516101e691906125fc565b60405180910390f35b3480156101fb57600080fd5b5061021660048036038101906102119190611fc6565b61145d565b005b34801561022457600080fd5b5061022d6115f8565b60405161023a91906124a4565b60405180910390f35b34801561024f57600080fd5b5061026a60048036038101906102659190611fc6565b611768565b005b34801561027857600080fd5b50610281611ba6565b60405161028e91906124a4565b60405180910390f35b600080600160003373ffffffffffffffffffffffffffffffffffffffff1673ffffffffffffffffffffffffffffffffffffffff16815260200190815260200160002090506000818054905011610322576040517f08c379a0000000000000000000000000000000000000000000000000000000008152600401610319906125a1565b60405180910390fd5b61032a611d16565b60005b82805490508160ff16101561077b5784838260ff1681548110610379577f4e487b7100000000000000000000000000000000000000000000000000000000600052603260045260246000fd5b906000526020600020906006020160000154141561076857828160ff16815481106103cd577f4e487b7100000000000000000000000000000000000000000000000000000000600052603260045260246000fd5b90600052602060002090600602016040518060c0016040529081600082015481526020016001820160009054906101000a900473ffffffffffffffffffffffffffffffffffffffff1673ffffffffffffffffffffffffffffffffffffffff1673ffffffffffffffffffffffffffffffffffffffff1681526020016002820154815260200160038201548152602001600482015481526020016005820160009054906101000a900473ffffffffffffffffffffffffffffffffffffffff1673ffffffffffffffffffffffffffffffffffffffff1673ffffffffffffffffffffffffffffffffffffffff1681525050915082600184805490506104ce919061274c565b81548110610505577f4e487b7100000000000000000000000000000000000000000000000000000000600052603260045260246000fd5b9060005260206000209060060201838260ff168154811061054f577f4e487b7100000000000000000000000000000000000000000000000000000000600052603260045260246000fd5b9060005260206000209060060201600082015481600001556001820160009054906101000a900473ffffffffffffffffffffffffffffffffffffffff168160010160006101000a81548173ffffffffffffffffffffffffffffffffffffffff021916908373ffffffffffffffffffffffffffffffffffffffff1602179055506002820154816002015560038201548160030155600482015481600401556005820160009054906101000a900473ffffffffffffffffffffffffffffffffffffffff168160050160006101000a81548173ffffffffffffffffffffffffffffffffffffffff021916908373ffffffffffffffffffffffffffffffffffffffff1602179055509050508280548061068d577f4e487b7100000000000000000000000000000000000000000000000000000000600052603160045260246000fd5b60019003818190600052602060002090600602016000808201600090556001820160006101000a81549073ffffffffffffffffffffffffffffffffffffffff02191690556002820160009055600382016000905560048201600090556005820160006101000a81549073ffffffffffffffffffffffffffffffffffffffff02191690555050905582600160003373ffffffffffffffffffffffffffffffffffffffff1673ffffffffffffffffffffffffffffffffffffffff168152602001908152602001600020908054610762929190611d78565b5061077b565b808061077390612830565b91505061032d565b50600081600001511115610c69576000600260008360a0015173ffffffffffffffffffffffffffffffffffffffff1673ffffffffffffffffffffffffffffffffffffffff168152602001908152602001600020905060005b81805490508160ff161015610c665785828260ff168154811061081f577f4e487b7100000000000000000000000000000000000000000000000000000000600052603260045260246000fd5b9060005260206000209060060201600001541415610c5357818160ff1681548110610873577f4e487b7100000000000000000000000000000000000000000000000000000000600052603260045260246000fd5b90600052602060002090600602016040518060c0016040529081600082015481526020016001820160009054906101000a900473ffffffffffffffffffffffffffffffffffffffff1673ffffffffffffffffffffffffffffffffffffffff1673ffffffffffffffffffffffffffffffffffffffff1681526020016002820154815260200160038201548152602001600482015481526020016005820160009054906101000a900473ffffffffffffffffffffffffffffffffffffffff1673ffffffffffffffffffffffffffffffffffffffff1673ffffffffffffffffffffffffffffffffffffffff168152505092508160018380549050610974919061274c565b815481106109ab577f4e487b7100000000000000000000000000000000000000000000000000000000600052603260045260246000fd5b9060005260206000209060060201828260ff16815481106109f5577f4e487b7100000000000000000000000000000000000000000000000000000000600052603260045260246000fd5b9060005260206000209060060201600082015481600001556001820160009054906101000a900473ffffffffffffffffffffffffffffffffffffffff168160010160006101000a81548173ffffffffffffffffffffffffffffffffffffffff021916908373ffffffffffffffffffffffffffffffffffffffff1602179055506002820154816002015560038201548160030155600482015481600401556005820160009054906101000a900473ffffffffffffffffffffffffffffffffffffffff168160050160006101000a81548173ffffffffffffffffffffffffffffffffffffffff021916908373ffffffffffffffffffffffffffffffffffffffff16021790555090505081805480610b33577f4e487b7100000000000000000000000000000000000000000000000000000000600052603160045260246000fd5b60019003818190600052602060002090600602016000808201600090556001820160006101000a81549073ffffffffffffffffffffffffffffffffffffffff02191690556002820160009055600382016000905560048201600090556005820160006101000a81549073ffffffffffffffffffffffffffffffffffffffff02191690555050905581600260008560a0015173ffffffffffffffffffffffffffffffffffffffff1673ffffffffffffffffffffffffffffffffffffffff168152602001908152602001600020908054610c0c929190611d78565b507fd40dc4a639c90600691397f655099adba04d6b763ef2122630edd47c09f1b6f93387604051610c3e92919061247b565b60405180910390a16001945050505050610c70565b8080610c5e90612830565b9150506107d3565b50505b6000925050505b919050565b60026020528160005260406000208181548110610c9157600080fd5b9060005260206000209060060201600091509150508060000154908060010160009054906101000a900473ffffffffffffffffffffffffffffffffffffffff16908060020154908060030154908060040154908060050160009054906101000a900473ffffffffffffffffffffffffffffffffffffffff16905086565b610d16611d16565b6000600160003373ffffffffffffffffffffffffffffffffffffffff1673ffffffffffffffffffffffffffffffffffffffff168152602001908152602001600020805480602002602001604051908101604052809291908181526020016000905b82821015610e7d57838290600052602060002090600602016040518060c0016040529081600082015481526020016001820160009054906101000a900473ffffffffffffffffffffffffffffffffffffffff1673ffffffffffffffffffffffffffffffffffffffff1673ffffffffffffffffffffffffffffffffffffffff1681526020016002820154815260200160038201548152602001600482015481526020016005820160009054906101000a900473ffffffffffffffffffffffffffffffffffffffff1673ffffffffffffffffffffffffffffffffffffffff1673ffffffffffffffffffffffffffffffffffffffff168152505081526020019060010190610d77565b50505050905060005b81518160ff161015610f415783828260ff1681518110610ecf577f4e487b7100000000000000000000000000000000000000000000000000000000600052603260045260246000fd5b6020026020010151600001511415610f2e57818160ff1681518110610f1d577f4e487b7100000000000000000000000000000000000000000000000000000000600052603260045260246000fd5b602002602001015192505050610f7d565b8080610f3990612830565b915050610e86565b506040517f08c379a0000000000000000000000000000000000000000000000000000000008152600401610f74906124e1565b60405180910390fd5b919050565b60016020528160005260406000208181548110610f9e57600080fd5b9060005260206000209060060201600091509150508060000154908060010160009054906101000a900473ffffffffffffffffffffffffffffffffffffffff16908060020154908060030154908060040154908060050160009054906101000a900473ffffffffffffffffffffffffffffffffffffffff16905086565b6000600a905090565b600080600160003373ffffffffffffffffffffffffffffffffffffffff1673ffffffffffffffffffffffffffffffffffffffff1681526020019081526020016000209050600a8180549050106110af576040517f08c379a00000000000000000000000000000000000000000000000000000000081526004016110a6906125c1565b60405180910390fd5b6000808154809291906110c1906127e7565b919050555060006040518060c0016040528060005481526020013373ffffffffffffffffffffffffffffffffffffffff168152602001348152602001868152602001600081526020018573ffffffffffffffffffffffffffffffffffffffff168152509050818190806001815401808255809150506001900390600052602060002090600602016000909190919091506000820151816000015560208201518160010160006101000a81548173ffffffffffffffffffffffffffffffffffffffff021916908373ffffffffffffffffffffffffffffffffffffffff16021790555060408201518160020155606082015181600301556080820151816004015560a08201518160050160006101000a81548173ffffffffffffffffffffffffffffffffffffffff021916908373ffffffffffffffffffffffffffffffffffffffff160217905550505081600160003373ffffffffffffffffffffffffffffffffffffffff1673ffffffffffffffffffffffffffffffffffffffff168152602001908152602001600020908054611257929190611d78565b506000600260008673ffffffffffffffffffffffffffffffffffffffff1673ffffffffffffffffffffffffffffffffffffffff1681526020019081526020016000209050600a8180549050106112e2576040517f08c379a00000000000000000000000000000000000000000000000000000000081526004016112d990612501565b60405180910390fd5b808290806001815401808255809150506001900390600052602060002090600602016000909190919091506000820151816000015560208201518160010160006101000a81548173ffffffffffffffffffffffffffffffffffffffff021916908373ffffffffffffffffffffffffffffffffffffffff16021790555060408201518160020155606082015181600301556080820151816004015560a08201518160050160006101000a81548173ffffffffffffffffffffffffffffffffffffffff021916908373ffffffffffffffffffffffffffffffffffffffff160217905550505080600260008773ffffffffffffffffffffffffffffffffffffffff1673ffffffffffffffffffffffffffffffffffffffff168152602001908152602001600020908054611413929190611d78565b507fd40dc4a639c90600691397f655099adba04d6b763ef2122630edd47c09f1b6f93360005460405161144792919061247b565b60405180910390a1600054935050505092915050565b6000600160003373ffffffffffffffffffffffffffffffffffffffff1673ffffffffffffffffffffffffffffffffffffffff168152602001908152602001600020905060008180549050116114e7576040517f08c379a00000000000000000000000000000000000000000000000000000000081526004016114de906125a1565b60405180910390fd5b60005b81805490508160ff1610156115f35782828260ff1681548110611536577f4e487b7100000000000000000000000000000000000000000000000000000000600052603260045260246000fd5b90600052602060002090600602016000015414156115e05742828260ff168154811061158b577f4e487b7100000000000000000000000000000000000000000000000000000000600052603260045260246000fd5b9060005260206000209060060201600401819055507fc1ebbc75c762786fa594b165a0f87b98ee949f4f28d57d61351b8317e9bbac3b600054426040516115d3929190612678565b60405180910390a16115f3565b80806115eb90612830565b9150506114ea565b505050565b6060600260003373ffffffffffffffffffffffffffffffffffffffff1673ffffffffffffffffffffffffffffffffffffffff168152602001908152602001600020805480602002602001604051908101604052809291908181526020016000905b8282101561175f57838290600052602060002090600602016040518060c0016040529081600082015481526020016001820160009054906101000a900473ffffffffffffffffffffffffffffffffffffffff1673ffffffffffffffffffffffffffffffffffffffff1673ffffffffffffffffffffffffffffffffffffffff1681526020016002820154815260200160038201548152602001600482015481526020016005820160009054906101000a900473ffffffffffffffffffffffffffffffffffffffff1673ffffffffffffffffffffffffffffffffffffffff1673ffffffffffffffffffffffffffffffffffffffff168152505081526020019060010190611659565b50505050905090565b6000600260003373ffffffffffffffffffffffffffffffffffffffff1673ffffffffffffffffffffffffffffffffffffffff168152602001908152602001600020905060008180549050116117f2576040517f08c379a00000000000000000000000000000000000000000000000000000000081526004016117e9906125a1565b60405180910390fd5b6117fa611d16565b60005b82805490508160ff1610156119a45783838260ff1681548110611849577f4e487b7100000000000000000000000000000000000000000000000000000000600052603260045260246000fd5b906000526020600020906006020160000154141561199157828160ff168154811061189d577f4e487b7100000000000000000000000000000000000000000000000000000000600052603260045260246000fd5b90600052602060002090600602016040518060c0016040529081600082015481526020016001820160009054906101000a900473ffffffffffffffffffffffffffffffffffffffff1673ffffffffffffffffffffffffffffffffffffffff1673ffffffffffffffffffffffffffffffffffffffff1681526020016002820154815260200160038201548152602001600482015481526020016005820160009054906101000a900473ffffffffffffffffffffffffffffffffffffffff1673ffffffffffffffffffffffffffffffffffffffff1673ffffffffffffffffffffffffffffffffffffffff168152505091506119a4565b808061199c90612830565b9150506117fd565b503373ffffffffffffffffffffffffffffffffffffffff168160a0015173ffffffffffffffffffffffffffffffffffffffff1614611a17576040517f08c379a0000000000000000000000000000000000000000000000000000000008152600401611a0e90612561565b60405180910390fd5b42816060015110611a5d576040517f08c379a0000000000000000000000000000000000000000000000000000000008152600401611a5490612581565b60405180910390fd5b62ed4e0042611a6c91906126f6565b816080015110611ab1576040517f08c379a0000000000000000000000000000000000000000000000000000000008152600401611aa890612521565b60405180910390fd5b60008160a0015173ffffffffffffffffffffffffffffffffffffffff168260400151604051611adf90612466565b60006040518083038185875af1925050503d8060008114611b1c576040519150601f19603f3d011682016040523d82523d6000602084013e611b21565b606091505b5050905080611b65576040517f08c379a0000000000000000000000000000000000000000000000000000000008152600401611b5c90612541565b60405180910390fd5b7fe9b12b923502313ae48d08c4a2476bd3af0803cc9d920f48fde68beb648e9cda33600054604051611b9892919061247b565b60405180910390a150505050565b6060600160003373ffffffffffffffffffffffffffffffffffffffff1673ffffffffffffffffffffffffffffffffffffffff168152602001908152602001600020805480602002602001604051908101604052809291908181526020016000905b82821015611d0d57838290600052602060002090600602016040518060c0016040529081600082015481526020016001820160009054906101000a900473ffffffffffffffffffffffffffffffffffffffff1673ffffffffffffffffffffffffffffffffffffffff1673ffffffffffffffffffffffffffffffffffffffff1681526020016002820154815260200160038201548152602001600482015481526020016005820160009054906101000a900473ffffffffffffffffffffffffffffffffffffffff1673ffffffffffffffffffffffffffffffffffffffff1673ffffffffffffffffffffffffffffffffffffffff168152505081526020019060010190611c07565b50505050905090565b6040518060c0016040528060008152602001600073ffffffffffffffffffffffffffffffffffffffff168152602001600081526020016000815260200160008152602001600073ffffffffffffffffffffffffffffffffffffffff1681525090565b828054828255906000526020600020906006028101928215611eb55760005260206000209160060282015b82811115611eb4578282600082015481600001556001820160009054906101000a900473ffffffffffffffffffffffffffffffffffffffff168160010160006101000a81548173ffffffffffffffffffffffffffffffffffffffff021916908373ffffffffffffffffffffffffffffffffffffffff1602179055506002820154816002015560038201548160030155600482015481600401556005820160009054906101000a900473ffffffffffffffffffffffffffffffffffffffff168160050160006101000a81548173ffffffffffffffffffffffffffffffffffffffff021916908373ffffffffffffffffffffffffffffffffffffffff160217905550505091600601919060060190611da3565b5b509050611ec29190611ec6565b5090565b5b80821115611f47576000808201600090556001820160006101000a81549073ffffffffffffffffffffffffffffffffffffffff02191690556002820160009055600382016000905560048201600090556005820160006101000a81549073ffffffffffffffffffffffffffffffffffffffff021916905550600601611ec7565b5090565b600081359050611f5a81612889565b92915050565b600081359050611f6f816128a0565b92915050565b600081359050611f84816128b7565b92915050565b60008060408385031215611f9d57600080fd5b6000611fab85828601611f4b565b9250506020611fbc85828601611f75565b9150509250929050565b600060208284031215611fd857600080fd5b6000611fe684828501611f75565b91505092915050565b6000806040838503121561200257600080fd5b600061201085828601611f75565b925050602061202185828601611f60565b9150509250929050565b60006120378383612352565b60c08301905092915050565b61204c81612792565b82525050565b61205b81612792565b82525050565b61206a81612780565b82525050565b61207981612780565b82525050565b600061208a826126b1565b61209481856126c9565b935061209f836126a1565b8060005b838110156120d05781516120b7888261202b565b97506120c2836126bc565b9250506001810190506120a3565b5085935050505092915050565b6120e6816127a4565b82525050565b60006120f96009836126e5565b91507f4e6f7420666f756e6400000000000000000000000000000000000000000000006000830152602082019050919050565b60006121396032836126e5565b91507f4d6178696d756d206e756d626572206f662077696c6c7320726561636865642060008301527f666f7220746869732072657472696576657200000000000000000000000000006020830152604082019050919050565b600061219f603b836126e5565b91507f496e6865726974616e6365206e6565647320746f20776169742036206d6f6e7460008301527f68732066726f6d206c617374206f776e657220616374697669747900000000006020830152604082019050919050565b60006122056014836126e5565b91507f4661696c656420746f2073656e642045746865720000000000000000000000006000830152602082019050919050565b6000612245600f836126e5565b91507f57726f6e6720726563697069656e7400000000000000000000000000000000006000830152602082019050919050565b60006122856019836126e5565b91507f5472616e736665722074696d65206e6f742072656163686564000000000000006000830152602082019050919050565b60006122c56013836126e5565b91507f57696c6c206c697374206e6f7420666f756e64000000000000000000000000006000830152602082019050919050565b6000612305601f836126e5565b91507f4d6178696d756d206e756d626572206f662077696c6c732072656163686564006000830152602082019050919050565b60006123456000836126da565b9150600082019050919050565b60c0820160008201516123686000850182612448565b50602082015161237b6020850182612061565b50604082015161238e6040850182612448565b5060608201516123a16060850182612448565b5060808201516123b46080850182612448565b5060a08201516123c760a0850182612043565b50505050565b60c0820160008201516123e36000850182612448565b5060208201516123f66020850182612061565b5060408201516124096040850182612448565b50606082015161241c6060850182612448565b50608082015161242f6080850182612448565b5060a082015161244260a0850182612043565b50505050565b612451816127d0565b82525050565b612460816127d0565b82525050565b600061247182612338565b9150819050919050565b60006040820190506124906000830185612070565b61249d6020830184612457565b9392505050565b600060208201905081810360008301526124be818461207f565b905092915050565b60006020820190506124db60008301846120dd565b92915050565b600060208201905081810360008301526124fa816120ec565b9050919050565b6000602082019050818103600083015261251a8161212c565b9050919050565b6000602082019050818103600083015261253a81612192565b9050919050565b6000602082019050818103600083015261255a816121f8565b9050919050565b6000602082019050818103600083015261257a81612238565b9050919050565b6000602082019050818103600083015261259a81612278565b9050919050565b600060208201905081810360008301526125ba816122b8565b9050919050565b600060208201905081810360008301526125da816122f8565b9050919050565b600060c0820190506125f660008301846123cd565b92915050565b60006020820190506126116000830184612457565b92915050565b600060c08201905061262c6000830189612457565b6126396020830188612070565b6126466040830187612457565b6126536060830186612457565b6126606080830185612457565b61266d60a0830184612052565b979650505050505050565b600060408201905061268d6000830185612457565b61269a6020830184612457565b9392505050565b6000819050602082019050919050565b600081519050919050565b6000602082019050919050565b600082825260208201905092915050565b600081905092915050565b600082825260208201905092915050565b6000612701826127d0565b915061270c836127d0565b9250827fffffffffffffffffffffffffffffffffffffffffffffffffffffffffffffffff038211156127415761274061285a565b5b828201905092915050565b6000612757826127d0565b9150612762836127d0565b9250828210156127755761277461285a565b5b828203905092915050565b600061278b826127b0565b9050919050565b600061279d826127b0565b9050919050565b60008115159050919050565b600073ffffffffffffffffffffffffffffffffffffffff82169050919050565b6000819050919050565b600060ff82169050919050565b60006127f2826127d0565b91507fffffffffffffffffffffffffffffffffffffffffffffffffffffffffffffffff8214156128255761282461285a565b5b600182019050919050565b600061283b826127da565b915060ff82141561284f5761284e61285a565b5b600182019050919050565b7f4e487b7100000000000000000000000000000000000000000000000000000000600052601160045260246000fd5b61289281612780565b811461289d57600080fd5b50565b6128a981612792565b81146128b457600080fd5b50565b6128c0816127d0565b81146128cb57600080fd5b5056fea264697066735822122094b5be1ec699c33519b6df186670c89837b7ec2bc43abe3f2ef0b555a0154ce864736f6c63430008000033",
  "immutableReferences": {},
  "source": "// SPDX-License-Identifier: GPL-3.0\r\n\r\npragma solidity >=0.8.0 <0.9.0;\r\n\r\n/**\r\n * @title SmartWill\r\n * @dev Time based resource transfers\r\n */\r\ncontract SmartWill {\r\n\r\n    event WillCreated(address owner, uint id);\r\n    event WillDeleted(address owner, uint id);\r\n    event WillActivityRegistered(uint id, uint blockTime);\r\n    event WillRedeemed(address recipient, uint id);\r\n\r\n    uint constant maxWillCount = 10;\r\n\r\n    struct Will {\r\n        uint id;\r\n        address owner;\r\n        uint ammount;\r\n        uint redemptionDate;\r\n        uint lastActivity;\r\n        address payable recipient;\r\n    }\r\n\r\n    uint currentId;\r\n\r\n    mapping(address => Will[]) public willsByOwner;\r\n    mapping(address => Will[]) public willsByRecipient;\r\n\r\n    constructor() {\r\n        currentId = 1;\r\n    }\r\n\r\n    function createWill(uint redemptionDate, address payable recipient) external payable returns (uint){\r\n        Will[] storage wills = willsByOwner[msg.sender];\r\n        // Check if maxWillCount reached\r\n        require(wills.length < maxWillCount, \"Maximum number of wills reached\");\r\n        currentId++;\r\n        Will memory will = Will({\r\n            id: currentId,\r\n            owner: msg.sender,\r\n            ammount: msg.value,\r\n            redemptionDate: redemptionDate,\r\n            recipient: recipient,\r\n            lastActivity: 0\r\n        });\r\n        wills.push(will);\r\n        willsByOwner[msg.sender] = wills;\r\n\r\n        Will[] storage willsByRecipientList = willsByRecipient[recipient];\r\n        require(willsByRecipientList.length < maxWillCount, \"Maximum number of wills reached for this retriever\");    \r\n        willsByRecipientList.push(will);\r\n        willsByRecipient[recipient] = willsByRecipientList;\r\n\r\n        emit WillCreated(msg.sender,currentId);\r\n\r\n        return currentId;\r\n    }\r\n\r\n    function getMaxWillCount() external pure returns (uint){\r\n        return maxWillCount;\r\n    }\r\n\r\n    /**\r\n     * @dev Get a will by id\r\n     * @return w will\r\n     */\r\n    function getWill(uint id) external view returns (Will memory w){\r\n        Will[] memory willsByOwnerList = willsByOwner[msg.sender];\r\n        for (uint8 index = 0; index < willsByOwnerList.length; index++) {\r\n            if(willsByOwnerList[index].id == id) {\r\n               return willsByOwnerList[index];\r\n            }\r\n        }\r\n        revert('Not found');\r\n    }\r\n    \r\n    /**\r\n     * @dev Deletes a will\r\n     */\r\n    function deleteWill(uint id) public returns (bool){\r\n        Will[] storage willsByOwnerList = willsByOwner[msg.sender];\r\n        require(\r\n           willsByOwnerList.length > 0, \"Will list not found\"\r\n        );\r\n        Will memory will;\r\n        for (uint8 index = 0; index < willsByOwnerList.length; index++) {\r\n            if(willsByOwnerList[index].id == id) {\r\n               will = willsByOwnerList[index];\r\n               willsByOwnerList[index] = willsByOwnerList[willsByOwnerList.length-1];\r\n               willsByOwnerList.pop();\r\n               willsByOwner[msg.sender] = willsByOwnerList;\r\n               break;\r\n            }\r\n        }\r\n        if(will.id > 0){\r\n                Will[] storage willsByRecipientList = willsByRecipient[will.recipient];\r\n                for (uint8 index = 0; index < willsByRecipientList.length; index++) {\r\n                    if(willsByRecipientList[index].id == id) {\r\n                        will = willsByRecipientList[index];\r\n                        willsByRecipientList[index] = willsByRecipientList[willsByRecipientList.length-1];\r\n                        willsByRecipientList.pop();\r\n                        willsByRecipient[will.recipient] = willsByRecipientList;\r\n                        emit WillCreated(msg.sender,id);\r\n                        return true;\r\n                    }\r\n                }\r\n        }\r\n        return false;\r\n    }\r\n\r\n    /**\r\n     * @dev Get wills assigned to this owner address\r\n     * @return wills\r\n     */\r\n    function getWillsByOwner() public view returns (Will[] memory){\r\n        return willsByOwner[msg.sender];\r\n    }\r\n\r\n    /**\r\n     * @dev Get wills assigned to this recipient address\r\n     * @return wills\r\n     */\r\n    function getWillsByRecipient() public view returns (Will[] memory){\r\n        return willsByRecipient[msg.sender];\r\n    }\r\n\r\n    function redeemWill(uint id) public{\r\n        Will[] storage willsByRecipientList = willsByRecipient[msg.sender];\r\n        require(\r\n           willsByRecipientList.length > 0, \"Will list not found\"\r\n        );\r\n        Will memory will;\r\n        for (uint8 index = 0; index < willsByRecipientList.length; index++) {\r\n            if(willsByRecipientList[index].id == id) {\r\n                will = willsByRecipientList[index];   \r\n                break;\r\n            }\r\n        }\r\n        require(\r\n            will.recipient == msg.sender, \"Wrong recipient\"\r\n        );\r\n        require(\r\n            will.redemptionDate < block.timestamp, \"Transfer time not reached\"\r\n        );\r\n        require(\r\n            will.lastActivity < block.timestamp + 180 days, \"Inheritance needs to wait 6 months from last owner activity\"\r\n        );\r\n        (bool sent,) = will.recipient.call{value: will.ammount}(\"\");\r\n        require(sent, \"Failed to send Ether\");\r\n        emit WillRedeemed(msg.sender,currentId);\r\n    }\r\n\r\n    function registerActivy(uint id) public {\r\n        Will[] storage willsByOwnerList = willsByOwner[msg.sender];\r\n        require(\r\n           willsByOwnerList.length > 0, \"Will list not found\"\r\n        );\r\n        for (uint8 index = 0; index < willsByOwnerList.length; index++) {\r\n            if(willsByOwnerList[index].id == id) {\r\n               willsByOwnerList[index].lastActivity = block.timestamp;\r\n               emit WillActivityRegistered(currentId,block.timestamp);\r\n               break;\r\n            }\r\n        }\r\n    }\r\n\r\n}",
  "sourcePath": "D:\\dev\\smart_will\\contracts\\SmartWill.sol",
  "compiler": {
    "name": "solc",
    "version": "0.8.0+commit.c7dfd78e.Emscripten.clang"
  },
  "schemaVersion": "3.4.3",
  "updatedAt": "2021-11-02T22:54:11.655Z",
  "devdoc": {
    "details": "Time based resource transfers",
    "kind": "dev",
    "methods": {
      "deleteWill(uint256)": {
        "details": "Deletes a will"
      },
      "getWill(uint256)": {
        "details": "Get a will by id",
        "returns": {
          "w": "will"
        }
      },
      "getWillsByOwner()": {
        "details": "Get wills assigned to this owner address",
        "returns": {
          "_0": "wills"
        }
      },
      "getWillsByRecipient()": {
        "details": "Get wills assigned to this recipient address",
        "returns": {
          "_0": "wills"
        }
      }
    },
    "title": "SmartWill",
    "version": 1
  },
  "userdoc": {
    "kind": "user",
    "methods": {},
    "version": 1
  }
}