{
  "contractName": "SmartWill",
  "abi": [
    {
      "inputs": [],
      "stateMutability": "nonpayable",
      "type": "constructor"
    },
    {
      "anonymous": false,
      "inputs": [
        {
          "indexed": false,
          "internalType": "address",
          "name": "owner",
          "type": "address"
        },
        {
          "indexed": false,
          "internalType": "uint256",
          "name": "balance",
          "type": "uint256"
        }
      ],
      "name": "BalanceChanged",
      "type": "event"
    },
    {
      "anonymous": false,
      "inputs": [
        {
          "indexed": false,
          "internalType": "uint256",
          "name": "blockTime",
          "type": "uint256"
        },
        {
          "indexed": false,
          "internalType": "uint256",
          "name": "redemptionTime",
          "type": "uint256"
        }
      ],
      "name": "RedemptionError",
      "type": "event"
    },
    {
      "anonymous": false,
      "inputs": [
        {
          "indexed": false,
          "internalType": "uint256",
          "name": "id",
          "type": "uint256"
        },
        {
          "indexed": false,
          "internalType": "uint256",
          "name": "blockTime",
          "type": "uint256"
        }
      ],
      "name": "WillActivityRegistered",
      "type": "event"
    },
    {
      "anonymous": false,
      "inputs": [
        {
          "indexed": false,
          "internalType": "address",
          "name": "owner",
          "type": "address"
        },
        {
          "indexed": false,
          "internalType": "uint256",
          "name": "id",
          "type": "uint256"
        }
      ],
      "name": "WillCreated",
      "type": "event"
    },
    {
      "anonymous": false,
      "inputs": [
        {
          "indexed": false,
          "internalType": "address",
          "name": "recipient",
          "type": "address"
        },
        {
          "indexed": false,
          "internalType": "uint256",
          "name": "id",
          "type": "uint256"
        },
        {
          "indexed": false,
          "internalType": "uint256",
          "name": "blockTime",
          "type": "uint256"
        },
        {
          "indexed": false,
          "internalType": "uint256",
          "name": "redemptionTime",
          "type": "uint256"
        }
      ],
      "name": "WillRedeemed",
      "type": "event"
    },
    {
      "anonymous": false,
      "inputs": [
        {
          "indexed": false,
          "internalType": "address",
          "name": "owner",
          "type": "address"
        },
        {
          "indexed": false,
          "internalType": "uint256",
          "name": "id",
          "type": "uint256"
        }
      ],
      "name": "WillRefunded",
      "type": "event"
    },
    {
      "inputs": [
        {
          "internalType": "uint256",
          "name": "redemptionDate",
          "type": "uint256"
        },
        {
          "internalType": "address payable",
          "name": "recipient",
          "type": "address"
        }
      ],
      "name": "createWill",
      "outputs": [
        {
          "internalType": "uint256",
          "name": "",
          "type": "uint256"
        }
      ],
      "stateMutability": "payable",
      "type": "function"
    },
    {
      "inputs": [],
      "name": "getMaxWillCount",
      "outputs": [
        {
          "internalType": "uint256",
          "name": "",
          "type": "uint256"
        }
      ],
      "stateMutability": "pure",
      "type": "function"
    },
    {
      "inputs": [
        {
          "internalType": "uint256",
          "name": "id",
          "type": "uint256"
        }
      ],
      "name": "getWill",
      "outputs": [
        {
          "components": [
            {
              "internalType": "uint256",
              "name": "id",
              "type": "uint256"
            },
            {
              "internalType": "address",
              "name": "owner",
              "type": "address"
            },
            {
              "internalType": "uint256",
              "name": "ammount",
              "type": "uint256"
            },
            {
              "internalType": "uint256",
              "name": "redemptionDate",
              "type": "uint256"
            },
            {
              "internalType": "uint256",
              "name": "lastActivity",
              "type": "uint256"
            },
            {
              "internalType": "address payable",
              "name": "recipient",
              "type": "address"
            },
            {
              "internalType": "bool",
              "name": "redeemed",
              "type": "bool"
            }
          ],
          "internalType": "struct SmartWill.Will",
          "name": "w",
          "type": "tuple"
        }
      ],
      "stateMutability": "view",
      "type": "function"
    },
    {
      "inputs": [
        {
          "internalType": "uint256",
          "name": "id",
          "type": "uint256"
        }
      ],
      "name": "refundWill",
      "outputs": [
        {
          "internalType": "bool",
          "name": "",
          "type": "bool"
        }
      ],
      "stateMutability": "nonpayable",
      "type": "function"
    },
    {
      "inputs": [
        {
          "internalType": "address",
          "name": "ownerAddress",
          "type": "address"
        }
      ],
      "name": "getWillsByOwner",
      "outputs": [
        {
          "components": [
            {
              "internalType": "uint256",
              "name": "id",
              "type": "uint256"
            },
            {
              "internalType": "address",
              "name": "owner",
              "type": "address"
            },
            {
              "internalType": "uint256",
              "name": "ammount",
              "type": "uint256"
            },
            {
              "internalType": "uint256",
              "name": "redemptionDate",
              "type": "uint256"
            },
            {
              "internalType": "uint256",
              "name": "lastActivity",
              "type": "uint256"
            },
            {
              "internalType": "address payable",
              "name": "recipient",
              "type": "address"
            },
            {
              "internalType": "bool",
              "name": "redeemed",
              "type": "bool"
            }
          ],
          "internalType": "struct SmartWill.Will[]",
          "name": "",
          "type": "tuple[]"
        }
      ],
      "stateMutability": "view",
      "type": "function"
    },
    {
      "inputs": [
        {
          "internalType": "address",
          "name": "recipientAddress",
          "type": "address"
        }
      ],
      "name": "getWillsByRecipient",
      "outputs": [
        {
          "components": [
            {
              "internalType": "uint256",
              "name": "id",
              "type": "uint256"
            },
            {
              "internalType": "address",
              "name": "owner",
              "type": "address"
            },
            {
              "internalType": "uint256",
              "name": "ammount",
              "type": "uint256"
            },
            {
              "internalType": "uint256",
              "name": "redemptionDate",
              "type": "uint256"
            },
            {
              "internalType": "uint256",
              "name": "lastActivity",
              "type": "uint256"
            },
            {
              "internalType": "address payable",
              "name": "recipient",
              "type": "address"
            },
            {
              "internalType": "bool",
              "name": "redeemed",
              "type": "bool"
            }
          ],
          "internalType": "struct SmartWill.Will[]",
          "name": "",
          "type": "tuple[]"
        }
      ],
      "stateMutability": "view",
      "type": "function"
    },
    {
      "inputs": [
        {
          "internalType": "uint256",
          "name": "id",
          "type": "uint256"
        }
      ],
      "name": "redeemWill",
      "outputs": [],
      "stateMutability": "nonpayable",
      "type": "function"
    },
    {
      "inputs": [
        {
          "internalType": "uint256",
          "name": "id",
          "type": "uint256"
        }
      ],
      "name": "registerActivy",
      "outputs": [],
      "stateMutability": "nonpayable",
      "type": "function"
    }
  ],
  "bytecode": "0x608060405234801561001057600080fd5b506001600081905550612d27806100286000396000f3fe60806040526004361061007b5760003560e01c8063a29c58171161004e578063a29c581714610162578063aaea88de14610192578063b31ef87a146101bb578063c93c23ee146101f85761007b565b80634192bbb01461008057806379329554146100bd5780637de00a9d146100fa5780639620e57914610137575b600080fd5b34801561008c57600080fd5b506100a760048036038101906100a2919061231f565b610221565b6040516100b49190612a65565b60405180910390f35b3480156100c957600080fd5b506100e460048036038101906100df919061231f565b610474565b6040516100f1919061290a565b60405180910390f35b34801561010657600080fd5b50610121600480360381019061011c91906122f6565b611031565b60405161012e91906128e8565b60405180910390f35b34801561014357600080fd5b5061014c6111be565b6040516101599190612a80565b60405180910390f35b61017c60048036038101906101779190612348565b6111c7565b6040516101899190612a80565b60405180910390f35b34801561019e57600080fd5b506101b960048036038101906101b4919061231f565b6115ab565b005b3480156101c757600080fd5b506101e260048036038101906101dd91906122f6565b611746565b6040516101ef91906128e8565b60405180910390f35b34801561020457600080fd5b5061021f600480360381019061021a919061231f565b6118d3565b005b610229612038565b6000600160003373ffffffffffffffffffffffffffffffffffffffff1673ffffffffffffffffffffffffffffffffffffffff168152602001908152602001600020905060005b81805490508160ff1610156104335783828260ff16815481106102bb577f4e487b7100000000000000000000000000000000000000000000000000000000600052603260045260246000fd5b906000526020600020906006020160000154141561042057818160ff168154811061030f577f4e487b7100000000000000000000000000000000000000000000000000000000600052603260045260246000fd5b90600052602060002090600602016040518060e0016040529081600082015481526020016001820160009054906101000a900473ffffffffffffffffffffffffffffffffffffffff1673ffffffffffffffffffffffffffffffffffffffff1673ffffffffffffffffffffffffffffffffffffffff1681526020016002820154815260200160038201548152602001600482015481526020016005820160009054906101000a900473ffffffffffffffffffffffffffffffffffffffff1673ffffffffffffffffffffffffffffffffffffffff1673ffffffffffffffffffffffffffffffffffffffff1681526020016005820160149054906101000a900460ff1615151515815250509250505061046f565b808061042b90612c53565b91505061026f565b506040517f08c379a000000000000000000000000000000000000000000000000000000000815260040161046690612925565b60405180910390fd5b919050565b600080600160003373ffffffffffffffffffffffffffffffffffffffff1673ffffffffffffffffffffffffffffffffffffffff168152602001908152602001600020905060008180549050116104ff576040517f08c379a00000000000000000000000000000000000000000000000000000000081526004016104f690612a05565b60405180910390fd5b610507612038565b60005b82805490508160ff1610156109b45784838260ff1681548110610556577f4e487b7100000000000000000000000000000000000000000000000000000000600052603260045260246000fd5b90600052602060002090600602016000015414156109a157828160ff16815481106105aa577f4e487b7100000000000000000000000000000000000000000000000000000000600052603260045260246000fd5b90600052602060002090600602016040518060e0016040529081600082015481526020016001820160009054906101000a900473ffffffffffffffffffffffffffffffffffffffff1673ffffffffffffffffffffffffffffffffffffffff1673ffffffffffffffffffffffffffffffffffffffff1681526020016002820154815260200160038201548152602001600482015481526020016005820160009054906101000a900473ffffffffffffffffffffffffffffffffffffffff1673ffffffffffffffffffffffffffffffffffffffff1673ffffffffffffffffffffffffffffffffffffffff1681526020016005820160149054906101000a900460ff161515151581525050915082600184805490506106c69190612b6f565b815481106106fd577f4e487b7100000000000000000000000000000000000000000000000000000000600052603260045260246000fd5b9060005260206000209060060201838260ff1681548110610747577f4e487b7100000000000000000000000000000000000000000000000000000000600052603260045260246000fd5b9060005260206000209060060201600082015481600001556001820160009054906101000a900473ffffffffffffffffffffffffffffffffffffffff168160010160006101000a81548173ffffffffffffffffffffffffffffffffffffffff021916908373ffffffffffffffffffffffffffffffffffffffff1602179055506002820154816002015560038201548160030155600482015481600401556005820160009054906101000a900473ffffffffffffffffffffffffffffffffffffffff168160050160006101000a81548173ffffffffffffffffffffffffffffffffffffffff021916908373ffffffffffffffffffffffffffffffffffffffff1602179055506005820160149054906101000a900460ff168160050160146101000a81548160ff021916908315150217905550905050828054806108b2577f4e487b7100000000000000000000000000000000000000000000000000000000600052603160045260246000fd5b60019003818190600052602060002090600602016000808201600090556001820160006101000a81549073ffffffffffffffffffffffffffffffffffffffff02191690556002820160009055600382016000905560048201600090556005820160006101000a81549073ffffffffffffffffffffffffffffffffffffffff02191690556005820160146101000a81549060ff02191690555050905582600160003373ffffffffffffffffffffffffffffffffffffffff1673ffffffffffffffffffffffffffffffffffffffff16815260200190815260200160002090805461099b9291906120a3565b506109b4565b80806109ac90612c53565b91505061050a565b50600081600001511115611025576000600260008360a0015173ffffffffffffffffffffffffffffffffffffffff1673ffffffffffffffffffffffffffffffffffffffff168152602001908152602001600020905060005b81805490508160ff1610156110225785828260ff1681548110610a58577f4e487b7100000000000000000000000000000000000000000000000000000000600052603260045260246000fd5b906000526020600020906006020160000154141561100f57818160ff1681548110610aac577f4e487b7100000000000000000000000000000000000000000000000000000000600052603260045260246000fd5b90600052602060002090600602016040518060e0016040529081600082015481526020016001820160009054906101000a900473ffffffffffffffffffffffffffffffffffffffff1673ffffffffffffffffffffffffffffffffffffffff1673ffffffffffffffffffffffffffffffffffffffff1681526020016002820154815260200160038201548152602001600482015481526020016005820160009054906101000a900473ffffffffffffffffffffffffffffffffffffffff1673ffffffffffffffffffffffffffffffffffffffff1673ffffffffffffffffffffffffffffffffffffffff1681526020016005820160149054906101000a900460ff16151515158152505092507fa448afda7ea1e3a7a10fcab0c29fe9a9dd85791503bf0171f281521551c7ec053047604051610be792919061287a565b60405180910390a16000836020015173ffffffffffffffffffffffffffffffffffffffff168460400151604051610c1d90612865565b60006040518083038185875af1925050503d8060008114610c5a576040519150601f19603f3d011682016040523d82523d6000602084013e610c5f565b606091505b5050905080610ca3576040517f08c379a0000000000000000000000000000000000000000000000000000000008152600401610c9a90612985565b60405180910390fd5b7fa448afda7ea1e3a7a10fcab0c29fe9a9dd85791503bf0171f281521551c7ec053047604051610cd492919061287a565b60405180910390a18260018480549050610cee9190612b6f565b81548110610d25577f4e487b7100000000000000000000000000000000000000000000000000000000600052603260045260246000fd5b9060005260206000209060060201838360ff1681548110610d6f577f4e487b7100000000000000000000000000000000000000000000000000000000600052603260045260246000fd5b9060005260206000209060060201600082015481600001556001820160009054906101000a900473ffffffffffffffffffffffffffffffffffffffff168160010160006101000a81548173ffffffffffffffffffffffffffffffffffffffff021916908373ffffffffffffffffffffffffffffffffffffffff1602179055506002820154816002015560038201548160030155600482015481600401556005820160009054906101000a900473ffffffffffffffffffffffffffffffffffffffff168160050160006101000a81548173ffffffffffffffffffffffffffffffffffffffff021916908373ffffffffffffffffffffffffffffffffffffffff1602179055506005820160149054906101000a900460ff168160050160146101000a81548160ff02191690831515021790555090505082805480610eda577f4e487b7100000000000000000000000000000000000000000000000000000000600052603160045260246000fd5b60019003818190600052602060002090600602016000808201600090556001820160006101000a81549073ffffffffffffffffffffffffffffffffffffffff02191690556002820160009055600382016000905560048201600090556005820160006101000a81549073ffffffffffffffffffffffffffffffffffffffff02191690556005820160146101000a81549060ff02191690555050905582600260008660a0015173ffffffffffffffffffffffffffffffffffffffff1673ffffffffffffffffffffffffffffffffffffffff168152602001908152602001600020908054610fc79291906120a3565b507f42b34bd8821994517b0cc8ea56303517206e6ffbbd3c454020240bb65af95e433388604051610ff992919061287a565b60405180910390a160019550505050505061102c565b808061101a90612c53565b915050610a0c565b50505b6000925050505b919050565b6060600160008373ffffffffffffffffffffffffffffffffffffffff1673ffffffffffffffffffffffffffffffffffffffff168152602001908152602001600020805480602002602001604051908101604052809291908181526020016000905b828210156111b357838290600052602060002090600602016040518060e0016040529081600082015481526020016001820160009054906101000a900473ffffffffffffffffffffffffffffffffffffffff1673ffffffffffffffffffffffffffffffffffffffff1673ffffffffffffffffffffffffffffffffffffffff1681526020016002820154815260200160038201548152602001600482015481526020016005820160009054906101000a900473ffffffffffffffffffffffffffffffffffffffff1673ffffffffffffffffffffffffffffffffffffffff1673ffffffffffffffffffffffffffffffffffffffff1681526020016005820160149054906101000a900460ff16151515158152505081526020019060010190611092565b505050509050919050565b6000600a905090565b600080600160003373ffffffffffffffffffffffffffffffffffffffff1673ffffffffffffffffffffffffffffffffffffffff1681526020019081526020016000209050600a818054905010611252576040517f08c379a000000000000000000000000000000000000000000000000000000000815260040161124990612a25565b60405180910390fd5b60008081548092919061126490612c0a565b919050555060006040518060e0016040528060005481526020013373ffffffffffffffffffffffffffffffffffffffff168152602001348152602001868152602001600081526020018573ffffffffffffffffffffffffffffffffffffffff168152602001600015158152509050818190806001815401808255809150506001900390600052602060002090600602016000909190919091506000820151816000015560208201518160010160006101000a81548173ffffffffffffffffffffffffffffffffffffffff021916908373ffffffffffffffffffffffffffffffffffffffff16021790555060408201518160020155606082015181600301556080820151816004015560a08201518160050160006101000a81548173ffffffffffffffffffffffffffffffffffffffff021916908373ffffffffffffffffffffffffffffffffffffffff16021790555060c08201518160050160146101000a81548160ff02191690831515021790555050506000600260008673ffffffffffffffffffffffffffffffffffffffff1673ffffffffffffffffffffffffffffffffffffffff1681526020019081526020016000209050600a81805490501061145f576040517f08c379a000000000000000000000000000000000000000000000000000000000815260040161145690612945565b60405180910390fd5b808290806001815401808255809150506001900390600052602060002090600602016000909190919091506000820151816000015560208201518160010160006101000a81548173ffffffffffffffffffffffffffffffffffffffff021916908373ffffffffffffffffffffffffffffffffffffffff16021790555060408201518160020155606082015181600301556080820151816004015560a08201518160050160006101000a81548173ffffffffffffffffffffffffffffffffffffffff021916908373ffffffffffffffffffffffffffffffffffffffff16021790555060c08201518160050160146101000a81548160ff02191690831515021790555050507fd40dc4a639c90600691397f655099adba04d6b763ef2122630edd47c09f1b6f93360005460405161159592919061287a565b60405180910390a1600054935050505092915050565b6000600160003373ffffffffffffffffffffffffffffffffffffffff1673ffffffffffffffffffffffffffffffffffffffff16815260200190815260200160002090506000818054905011611635576040517f08c379a000000000000000000000000000000000000000000000000000000000815260040161162c90612a05565b60405180910390fd5b60005b81805490508160ff1610156117415782828260ff1681548110611684577f4e487b7100000000000000000000000000000000000000000000000000000000600052603260045260246000fd5b906000526020600020906006020160000154141561172e5742828260ff16815481106116d9577f4e487b7100000000000000000000000000000000000000000000000000000000600052603260045260246000fd5b9060005260206000209060060201600401819055507fc1ebbc75c762786fa594b165a0f87b98ee949f4f28d57d61351b8317e9bbac3b60005442604051611721929190612a9b565b60405180910390a1611741565b808061173990612c53565b915050611638565b505050565b6060600260008373ffffffffffffffffffffffffffffffffffffffff1673ffffffffffffffffffffffffffffffffffffffff168152602001908152602001600020805480602002602001604051908101604052809291908181526020016000905b828210156118c857838290600052602060002090600602016040518060e0016040529081600082015481526020016001820160009054906101000a900473ffffffffffffffffffffffffffffffffffffffff1673ffffffffffffffffffffffffffffffffffffffff1673ffffffffffffffffffffffffffffffffffffffff1681526020016002820154815260200160038201548152602001600482015481526020016005820160009054906101000a900473ffffffffffffffffffffffffffffffffffffffff1673ffffffffffffffffffffffffffffffffffffffff1673ffffffffffffffffffffffffffffffffffffffff1681526020016005820160149054906101000a900460ff161515151581525050815260200190600101906117a7565b505050509050919050565b6000600260003373ffffffffffffffffffffffffffffffffffffffff1673ffffffffffffffffffffffffffffffffffffffff1681526020019081526020016000209050600081805490501161195d576040517f08c379a000000000000000000000000000000000000000000000000000000000815260040161195490612a05565b60405180910390fd5b6000805b82805490508160ff161015611e3f5783838260ff16815481106119ad577f4e487b7100000000000000000000000000000000000000000000000000000000600052603260045260246000fd5b9060005260206000209060060201600001541415611e2c573373ffffffffffffffffffffffffffffffffffffffff16838260ff1681548110611a18577f4e487b7100000000000000000000000000000000000000000000000000000000600052603260045260246000fd5b906000526020600020906006020160050160009054906101000a900473ffffffffffffffffffffffffffffffffffffffff1673ffffffffffffffffffffffffffffffffffffffff1614611aa0576040517f08c379a0000000000000000000000000000000000000000000000000000000008152600401611a97906129a5565b60405180910390fd5b42838260ff1681548110611add577f4e487b7100000000000000000000000000000000000000000000000000000000600052603260045260246000fd5b90600052602060002090600602016003015410611b2f576040517f08c379a0000000000000000000000000000000000000000000000000000000008152600401611b26906129e5565b60405180910390fd5b62ed4e0042611b3e9190612b19565b838260ff1681548110611b7a577f4e487b7100000000000000000000000000000000000000000000000000000000600052603260045260246000fd5b90600052602060002090600602016004015410611bcc576040517f08c379a0000000000000000000000000000000000000000000000000000000008152600401611bc390612965565b60405180910390fd5b6000838260ff1681548110611c0a577f4e487b7100000000000000000000000000000000000000000000000000000000600052603260045260246000fd5b906000526020600020906006020160050160009054906101000a900473ffffffffffffffffffffffffffffffffffffffff1673ffffffffffffffffffffffffffffffffffffffff16848360ff1681548110611c8e577f4e487b7100000000000000000000000000000000000000000000000000000000600052603260045260246000fd5b906000526020600020906006020160020154604051611cac90612865565b60006040518083038185875af1925050503d8060008114611ce9576040519150601f19603f3d011682016040523d82523d6000602084013e611cee565b606091505b5050905080611d32576040517f08c379a0000000000000000000000000000000000000000000000000000000008152600401611d2990612985565b60405180910390fd5b6001848360ff1681548110611d70577f4e487b7100000000000000000000000000000000000000000000000000000000600052603260045260246000fd5b906000526020600020906006020160050160146101000a81548160ff0219169083151502179055507fea26074848e8b75aed7219d5a8edbd2adf91432b05b4ffe959dcdbfcce55df07338642878660ff1681548110611df8577f4e487b7100000000000000000000000000000000000000000000000000000000600052603260045260246000fd5b906000526020600020906006020160030154604051611e1a94939291906128a3565b60405180910390a16001925050611e3f565b8080611e3790612c53565b915050611961565b5080611e80576040517f08c379a0000000000000000000000000000000000000000000000000000000008152600401611e77906129c5565b60405180910390fd5b600080600160003373ffffffffffffffffffffffffffffffffffffffff1673ffffffffffffffffffffffffffffffffffffffff16815260200190815260200160002090506000818054905011611f0b576040517f08c379a0000000000000000000000000000000000000000000000000000000008152600401611f0290612a05565b60405180910390fd5b60005b81805490508160ff161015611ff05785828260ff1681548110611f5a577f4e487b7100000000000000000000000000000000000000000000000000000000600052603260045260246000fd5b9060005260206000209060060201600001541415611fdd576001828260ff1681548110611fb0577f4e487b7100000000000000000000000000000000000000000000000000000000600052603260045260246000fd5b906000526020600020906006020160050160146101000a81548160ff021916908315150217905550600192505b8080611fe890612c53565b915050611f0e565b5081612031576040517f08c379a000000000000000000000000000000000000000000000000000000000815260040161202890612a45565b60405180910390fd5b5050505050565b6040518060e0016040528060008152602001600073ffffffffffffffffffffffffffffffffffffffff168152602001600081526020016000815260200160008152602001600073ffffffffffffffffffffffffffffffffffffffff1681526020016000151581525090565b82805482825590600052602060002090600602810192821561220d5760005260206000209160060282015b8281111561220c578282600082015481600001556001820160009054906101000a900473ffffffffffffffffffffffffffffffffffffffff168160010160006101000a81548173ffffffffffffffffffffffffffffffffffffffff021916908373ffffffffffffffffffffffffffffffffffffffff1602179055506002820154816002015560038201548160030155600482015481600401556005820160009054906101000a900473ffffffffffffffffffffffffffffffffffffffff168160050160006101000a81548173ffffffffffffffffffffffffffffffffffffffff021916908373ffffffffffffffffffffffffffffffffffffffff1602179055506005820160149054906101000a900460ff168160050160146101000a81548160ff0219169083151502179055505050916006019190600601906120ce565b5b50905061221a919061221e565b5090565b5b808211156122b3576000808201600090556001820160006101000a81549073ffffffffffffffffffffffffffffffffffffffff02191690556002820160009055600382016000905560048201600090556005820160006101000a81549073ffffffffffffffffffffffffffffffffffffffff02191690556005820160146101000a81549060ff02191690555060060161221f565b5090565b6000813590506122c681612cac565b92915050565b6000813590506122db81612cc3565b92915050565b6000813590506122f081612cda565b92915050565b60006020828403121561230857600080fd5b6000612316848285016122b7565b91505092915050565b60006020828403121561233157600080fd5b600061233f848285016122e1565b91505092915050565b6000806040838503121561235b57600080fd5b6000612369858286016122e1565b925050602061237a858286016122cc565b9150509250929050565b6000612390838361272b565b60e08301905092915050565b6123a581612bb5565b82525050565b6123b481612ba3565b82525050565b6123c381612ba3565b82525050565b60006123d482612ad4565b6123de8185612aec565b93506123e983612ac4565b8060005b8381101561241a5781516124018882612384565b975061240c83612adf565b9250506001810190506123ed565b5085935050505092915050565b61243081612bc7565b82525050565b61243f81612bc7565b82525050565b6000612452600983612b08565b91507f4e6f7420666f756e6400000000000000000000000000000000000000000000006000830152602082019050919050565b6000612492603283612b08565b91507f4d6178696d756d206e756d626572206f662077696c6c7320726561636865642060008301527f666f7220746869732072657472696576657200000000000000000000000000006020830152604082019050919050565b60006124f8603b83612b08565b91507f496e6865726974616e6365206e6565647320746f20776169742036206d6f6e7460008301527f68732066726f6d206c617374206f776e657220616374697669747900000000006020830152604082019050919050565b600061255e601483612b08565b91507f4661696c656420746f2073656e642045746865720000000000000000000000006000830152602082019050919050565b600061259e600f83612b08565b91507f57726f6e6720726563697069656e7400000000000000000000000000000000006000830152602082019050919050565b60006125de601383612b08565b91507f526563697069656e74206e6f7420666f756e64000000000000000000000000006000830152602082019050919050565b600061261e601983612b08565b91507f5472616e736665722074696d65206e6f742072656163686564000000000000006000830152602082019050919050565b600061265e601383612b08565b91507f57696c6c206c697374206e6f7420666f756e64000000000000000000000000006000830152602082019050919050565b600061269e601f83612b08565b91507f4d6178696d756d206e756d626572206f662077696c6c732072656163686564006000830152602082019050919050565b60006126de600083612afd565b9150600082019050919050565b60006126f8600f83612b08565b91507f4f776e6572206e6f7420666f756e6400000000000000000000000000000000006000830152602082019050919050565b60e0820160008201516127416000850182612847565b50602082015161275460208501826123ab565b5060408201516127676040850182612847565b50606082015161277a6060850182612847565b50608082015161278d6080850182612847565b5060a08201516127a060a085018261239c565b5060c08201516127b360c0850182612427565b50505050565b60e0820160008201516127cf6000850182612847565b5060208201516127e260208501826123ab565b5060408201516127f56040850182612847565b5060608201516128086060850182612847565b50608082015161281b6080850182612847565b5060a082015161282e60a085018261239c565b5060c082015161284160c0850182612427565b50505050565b61285081612bf3565b82525050565b61285f81612bf3565b82525050565b6000612870826126d1565b9150819050919050565b600060408201905061288f60008301856123ba565b61289c6020830184612856565b9392505050565b60006080820190506128b860008301876123ba565b6128c56020830186612856565b6128d26040830185612856565b6128df6060830184612856565b95945050505050565b6000602082019050818103600083015261290281846123c9565b905092915050565b600060208201905061291f6000830184612436565b92915050565b6000602082019050818103600083015261293e81612445565b9050919050565b6000602082019050818103600083015261295e81612485565b9050919050565b6000602082019050818103600083015261297e816124eb565b9050919050565b6000602082019050818103600083015261299e81612551565b9050919050565b600060208201905081810360008301526129be81612591565b9050919050565b600060208201905081810360008301526129de816125d1565b9050919050565b600060208201905081810360008301526129fe81612611565b9050919050565b60006020820190508181036000830152612a1e81612651565b9050919050565b60006020820190508181036000830152612a3e81612691565b9050919050565b60006020820190508181036000830152612a5e816126eb565b9050919050565b600060e082019050612a7a60008301846127b9565b92915050565b6000602082019050612a956000830184612856565b92915050565b6000604082019050612ab06000830185612856565b612abd6020830184612856565b9392505050565b6000819050602082019050919050565b600081519050919050565b6000602082019050919050565b600082825260208201905092915050565b600081905092915050565b600082825260208201905092915050565b6000612b2482612bf3565b9150612b2f83612bf3565b9250827fffffffffffffffffffffffffffffffffffffffffffffffffffffffffffffffff03821115612b6457612b63612c7d565b5b828201905092915050565b6000612b7a82612bf3565b9150612b8583612bf3565b925082821015612b9857612b97612c7d565b5b828203905092915050565b6000612bae82612bd3565b9050919050565b6000612bc082612bd3565b9050919050565b60008115159050919050565b600073ffffffffffffffffffffffffffffffffffffffff82169050919050565b6000819050919050565b600060ff82169050919050565b6000612c1582612bf3565b91507fffffffffffffffffffffffffffffffffffffffffffffffffffffffffffffffff821415612c4857612c47612c7d565b5b600182019050919050565b6000612c5e82612bfd565b915060ff821415612c7257612c71612c7d565b5b600182019050919050565b7f4e487b7100000000000000000000000000000000000000000000000000000000600052601160045260246000fd5b612cb581612ba3565b8114612cc057600080fd5b50565b612ccc81612bb5565b8114612cd757600080fd5b50565b612ce381612bf3565b8114612cee57600080fd5b5056fea2646970667358221220f00f488f469b9e20bbaae05af3872bb56e6b3c0ed33f5319bcbd527b8e99fb8c64736f6c63430008000033",
  "immutableReferences": {},
  "source": "// SPDX-License-Identifier: GPL-3.0\r\n\r\npragma solidity >=0.8.0 <0.9.0;\r\n\r\n/**\r\n * @title SmartWill\r\n * @dev Time based resource transfers\r\n */\r\ncontract SmartWill {\r\n\r\n    event WillCreated(address owner, uint id);\r\n    event WillRefunded(address owner, uint id);\r\n    event WillActivityRegistered(uint id, uint blockTime);\r\n    event WillRedeemed(address recipient, uint id, uint blockTime, uint redemptionTime);\r\n    event BalanceChanged(address owner, uint balance);\r\n    event RedemptionError(uint blockTime, uint redemptionTime);\r\n\r\n    uint constant maxWillCount = 10;\r\n\r\n    struct Will {\r\n        uint id;\r\n        address owner;\r\n        uint ammount;\r\n        uint redemptionDate;\r\n        uint lastActivity;\r\n        address payable recipient;\r\n        bool redeemed;\r\n    }\r\n\r\n    uint currentId;\r\n\r\n    mapping(address => Will[])  willsByOwner;\r\n    mapping(address => Will[])  willsByRecipient;\r\n\r\n    constructor() {\r\n        currentId = 1;\r\n    }\r\n    \r\n    function createWill(uint redemptionDate, address payable recipient) external payable returns (uint){\r\n        Will[] storage wills = willsByOwner[msg.sender];\r\n        // Check if maxWillCount reached\r\n        require(wills.length < maxWillCount, \"Maximum number of wills reached\");\r\n        currentId++;\r\n        Will memory will = Will({\r\n            id: currentId,\r\n            owner: msg.sender,\r\n            ammount: msg.value,\r\n            redemptionDate: redemptionDate,\r\n            recipient: recipient,\r\n            lastActivity: 0,\r\n            redeemed: false\r\n        });\r\n        wills.push(will);\r\n        \r\n        Will[] storage willsByRecipientList = willsByRecipient[recipient];\r\n        require(willsByRecipientList.length < maxWillCount, \"Maximum number of wills reached for this retriever\");    \r\n        willsByRecipientList.push(will);\r\n        \r\n        emit WillCreated(msg.sender,currentId);\r\n\r\n        return currentId;\r\n    }\r\n\r\n    function getMaxWillCount() external pure returns (uint){\r\n        return maxWillCount;\r\n    }\r\n\r\n    /**\r\n     * @dev Get a will by id\r\n     * @return w will\r\n     */\r\n    function getWill(uint id) external view returns (Will memory w){\r\n        Will[] storage willsByOwnerList = willsByOwner[msg.sender];\r\n        for (uint8 index = 0; index < willsByOwnerList.length; index++) {\r\n            if(willsByOwnerList[index].id == id) {\r\n               return willsByOwnerList[index];\r\n            }\r\n        }\r\n        revert('Not found');\r\n    }\r\n    \r\n    /**\r\n     * @dev Deletes a will and returns value to owner (minus gas costs)\r\n     */\r\n    function refundWill(uint id) public returns (bool){\r\n        Will[] storage willsByOwnerList = willsByOwner[msg.sender];\r\n        require(\r\n           willsByOwnerList.length > 0, \"Will list not found\"\r\n        );\r\n        Will memory will;\r\n        for (uint8 index = 0; index < willsByOwnerList.length; index++) {\r\n            if(willsByOwnerList[index].id == id) {\r\n               will = willsByOwnerList[index];\r\n               willsByOwnerList[index] = willsByOwnerList[willsByOwnerList.length-1];\r\n               willsByOwnerList.pop();\r\n               willsByOwner[msg.sender] = willsByOwnerList;\r\n               break;\r\n            }\r\n        }\r\n        if(will.id > 0){\r\n                Will[] storage willsByRecipientList = willsByRecipient[will.recipient];\r\n                for (uint8 index = 0; index < willsByRecipientList.length; index++) {\r\n                    if(willsByRecipientList[index].id == id) {\r\n                        will = willsByRecipientList[index];\r\n\r\n                        emit BalanceChanged(address(this),address(this).balance);    \r\n                        (bool sent,) = will.owner.call{value: will.ammount}(\"\");\r\n                        require(sent, \"Failed to send Ether\");\r\n                        emit BalanceChanged(address(this),address(this).balance);   \r\n\r\n                        willsByRecipientList[index] = willsByRecipientList[willsByRecipientList.length-1];\r\n                        willsByRecipientList.pop();\r\n                        willsByRecipient[will.recipient] = willsByRecipientList;\r\n                        emit WillRefunded(msg.sender,id);\r\n                        return true;\r\n                    }\r\n                }\r\n        }\r\n        return false;\r\n    }\r\n\r\n    /**\r\n     * @dev Get wills assigned to this owner address\r\n     * @return wills\r\n     */\r\n    function getWillsByOwner(address ownerAddress) public view returns (Will[] memory){\r\n        return willsByOwner[ownerAddress];\r\n    }\r\n\r\n    /**\r\n     * @dev Get wills assigned to this recipient address\r\n     * @return wills\r\n     */\r\n    function getWillsByRecipient(address recipientAddress) public view returns (Will[] memory){\r\n        return willsByRecipient[recipientAddress];\r\n    }\r\n\r\n    function redeemWill(uint id) external{\r\n        Will[] storage willsByRecipientList = willsByRecipient[msg.sender];\r\n        require(\r\n           willsByRecipientList.length > 0, \"Will list not found\"\r\n        );\r\n        bool recipientFound = false;\r\n        for (uint8 index = 0; index < willsByRecipientList.length; index++) {\r\n            if(willsByRecipientList[index].id == id) {\r\n                require(\r\n                    willsByRecipientList[index].recipient == msg.sender, \"Wrong recipient\"\r\n                );\r\n                require(\r\n                    willsByRecipientList[index].redemptionDate < block.timestamp, \"Transfer time not reached\"\r\n                );\r\n                require(\r\n                    willsByRecipientList[index].lastActivity < block.timestamp + 180 days, \"Inheritance needs to wait 6 months from last owner activity\"\r\n                );\r\n                (bool sent,) = willsByRecipientList[index].recipient.call{value: willsByRecipientList[index].ammount}(\"\");\r\n                require(sent, \"Failed to send Ether\");\r\n                willsByRecipientList[index].redeemed = true;\r\n                emit WillRedeemed(msg.sender,id, block.timestamp,willsByRecipientList[index].redemptionDate);\r\n                recipientFound = true;\r\n                break;\r\n            }\r\n        }\r\n        require(recipientFound, 'Recipient not found');\r\n        bool ownerFound = false;\r\n        Will[] storage willsByOwnerList = willsByOwner[msg.sender];\r\n        require(\r\n           willsByOwnerList.length > 0, \"Will list not found\"\r\n        );\r\n        for (uint8 index = 0; index < willsByOwnerList.length; index++) {\r\n            if(willsByOwnerList[index].id == id) {\r\n                willsByOwnerList[index].redeemed = true;\r\n                ownerFound = true;\r\n            }\r\n        }\r\n        require(ownerFound, 'Owner not found');\r\n    }\r\n\r\n    function registerActivy(uint id) public {\r\n        Will[] storage willsByOwnerList = willsByOwner[msg.sender];\r\n        require(\r\n           willsByOwnerList.length > 0, \"Will list not found\"\r\n        );\r\n        for (uint8 index = 0; index < willsByOwnerList.length; index++) {\r\n            if(willsByOwnerList[index].id == id) {\r\n               willsByOwnerList[index].lastActivity = block.timestamp;\r\n               emit WillActivityRegistered(currentId,block.timestamp);\r\n               break;\r\n            }\r\n        }\r\n    }\r\n\r\n}",
  "sourcePath": "D:\\dev\\smart_will\\contracts\\SmartWill.sol",
  "compiler": {
    "name": "solc",
    "version": "0.8.0+commit.c7dfd78e.Emscripten.clang"
  },
  "schemaVersion": "3.4.3",
  "updatedAt": "2021-11-24T04:42:31.885Z",
  "devdoc": {
    "details": "Time based resource transfers",
    "kind": "dev",
    "methods": {
      "getWill(uint256)": {
        "details": "Get a will by id",
        "returns": {
          "w": "will"
        }
      },
      "getWillsByOwner(address)": {
        "details": "Get wills assigned to this owner address",
        "returns": {
          "_0": "wills"
        }
      },
      "getWillsByRecipient(address)": {
        "details": "Get wills assigned to this recipient address",
        "returns": {
          "_0": "wills"
        }
      },
      "refundWill(uint256)": {
        "details": "Deletes a will and returns value to owner (minus gas costs)"
      }
    },
    "title": "SmartWill",
    "version": 1
  },
  "userdoc": {
    "kind": "user",
    "methods": {},
    "version": 1
  }
}