{
  "contractName": "SmartWill",
  "abi": [
    {
      "inputs": [],
      "stateMutability": "nonpayable",
      "type": "constructor"
    },
    {
      "anonymous": false,
      "inputs": [
        {
          "indexed": false,
          "internalType": "address",
          "name": "owner",
          "type": "address"
        },
        {
          "indexed": false,
          "internalType": "uint256",
          "name": "balance",
          "type": "uint256"
        }
      ],
      "name": "BalanceChanged",
      "type": "event"
    },
    {
      "anonymous": false,
      "inputs": [
        {
          "indexed": false,
          "internalType": "uint256",
          "name": "id",
          "type": "uint256"
        },
        {
          "indexed": false,
          "internalType": "uint256",
          "name": "blockTime",
          "type": "uint256"
        }
      ],
      "name": "WillActivityRegistered",
      "type": "event"
    },
    {
      "anonymous": false,
      "inputs": [
        {
          "indexed": false,
          "internalType": "address",
          "name": "owner",
          "type": "address"
        },
        {
          "indexed": false,
          "internalType": "uint256",
          "name": "id",
          "type": "uint256"
        }
      ],
      "name": "WillCreated",
      "type": "event"
    },
    {
      "anonymous": false,
      "inputs": [
        {
          "indexed": false,
          "internalType": "address",
          "name": "recipient",
          "type": "address"
        },
        {
          "indexed": false,
          "internalType": "uint256",
          "name": "id",
          "type": "uint256"
        }
      ],
      "name": "WillRedeemed",
      "type": "event"
    },
    {
      "anonymous": false,
      "inputs": [
        {
          "indexed": false,
          "internalType": "address",
          "name": "owner",
          "type": "address"
        },
        {
          "indexed": false,
          "internalType": "uint256",
          "name": "id",
          "type": "uint256"
        }
      ],
      "name": "WillRefunded",
      "type": "event"
    },
    {
      "inputs": [
        {
          "internalType": "address",
          "name": "",
          "type": "address"
        },
        {
          "internalType": "uint256",
          "name": "",
          "type": "uint256"
        }
      ],
      "name": "willsByOwner",
      "outputs": [
        {
          "internalType": "uint256",
          "name": "id",
          "type": "uint256"
        },
        {
          "internalType": "address",
          "name": "owner",
          "type": "address"
        },
        {
          "internalType": "uint256",
          "name": "ammount",
          "type": "uint256"
        },
        {
          "internalType": "uint256",
          "name": "redemptionDate",
          "type": "uint256"
        },
        {
          "internalType": "uint256",
          "name": "lastActivity",
          "type": "uint256"
        },
        {
          "internalType": "address payable",
          "name": "recipient",
          "type": "address"
        }
      ],
      "stateMutability": "view",
      "type": "function"
    },
    {
      "inputs": [
        {
          "internalType": "address",
          "name": "",
          "type": "address"
        },
        {
          "internalType": "uint256",
          "name": "",
          "type": "uint256"
        }
      ],
      "name": "willsByRecipient",
      "outputs": [
        {
          "internalType": "uint256",
          "name": "id",
          "type": "uint256"
        },
        {
          "internalType": "address",
          "name": "owner",
          "type": "address"
        },
        {
          "internalType": "uint256",
          "name": "ammount",
          "type": "uint256"
        },
        {
          "internalType": "uint256",
          "name": "redemptionDate",
          "type": "uint256"
        },
        {
          "internalType": "uint256",
          "name": "lastActivity",
          "type": "uint256"
        },
        {
          "internalType": "address payable",
          "name": "recipient",
          "type": "address"
        }
      ],
      "stateMutability": "view",
      "type": "function"
    },
    {
      "inputs": [
        {
          "internalType": "uint256",
          "name": "redemptionDate",
          "type": "uint256"
        },
        {
          "internalType": "address payable",
          "name": "recipient",
          "type": "address"
        }
      ],
      "name": "createWill",
      "outputs": [
        {
          "internalType": "uint256",
          "name": "",
          "type": "uint256"
        }
      ],
      "stateMutability": "payable",
      "type": "function"
    },
    {
      "inputs": [],
      "name": "getMaxWillCount",
      "outputs": [
        {
          "internalType": "uint256",
          "name": "",
          "type": "uint256"
        }
      ],
      "stateMutability": "pure",
      "type": "function"
    },
    {
      "inputs": [
        {
          "internalType": "uint256",
          "name": "id",
          "type": "uint256"
        }
      ],
      "name": "getWill",
      "outputs": [
        {
          "components": [
            {
              "internalType": "uint256",
              "name": "id",
              "type": "uint256"
            },
            {
              "internalType": "address",
              "name": "owner",
              "type": "address"
            },
            {
              "internalType": "uint256",
              "name": "ammount",
              "type": "uint256"
            },
            {
              "internalType": "uint256",
              "name": "redemptionDate",
              "type": "uint256"
            },
            {
              "internalType": "uint256",
              "name": "lastActivity",
              "type": "uint256"
            },
            {
              "internalType": "address payable",
              "name": "recipient",
              "type": "address"
            }
          ],
          "internalType": "struct SmartWill.Will",
          "name": "w",
          "type": "tuple"
        }
      ],
      "stateMutability": "view",
      "type": "function"
    },
    {
      "inputs": [
        {
          "internalType": "uint256",
          "name": "id",
          "type": "uint256"
        }
      ],
      "name": "refundWill",
      "outputs": [
        {
          "internalType": "bool",
          "name": "",
          "type": "bool"
        }
      ],
      "stateMutability": "nonpayable",
      "type": "function"
    },
    {
      "inputs": [
        {
          "internalType": "address",
          "name": "ownerAddress",
          "type": "address"
        }
      ],
      "name": "getWillsByOwner",
      "outputs": [
        {
          "components": [
            {
              "internalType": "uint256",
              "name": "id",
              "type": "uint256"
            },
            {
              "internalType": "address",
              "name": "owner",
              "type": "address"
            },
            {
              "internalType": "uint256",
              "name": "ammount",
              "type": "uint256"
            },
            {
              "internalType": "uint256",
              "name": "redemptionDate",
              "type": "uint256"
            },
            {
              "internalType": "uint256",
              "name": "lastActivity",
              "type": "uint256"
            },
            {
              "internalType": "address payable",
              "name": "recipient",
              "type": "address"
            }
          ],
          "internalType": "struct SmartWill.Will[]",
          "name": "",
          "type": "tuple[]"
        }
      ],
      "stateMutability": "view",
      "type": "function"
    },
    {
      "inputs": [
        {
          "internalType": "address",
          "name": "recipientAddress",
          "type": "address"
        }
      ],
      "name": "getWillsByRecipient",
      "outputs": [
        {
          "components": [
            {
              "internalType": "uint256",
              "name": "id",
              "type": "uint256"
            },
            {
              "internalType": "address",
              "name": "owner",
              "type": "address"
            },
            {
              "internalType": "uint256",
              "name": "ammount",
              "type": "uint256"
            },
            {
              "internalType": "uint256",
              "name": "redemptionDate",
              "type": "uint256"
            },
            {
              "internalType": "uint256",
              "name": "lastActivity",
              "type": "uint256"
            },
            {
              "internalType": "address payable",
              "name": "recipient",
              "type": "address"
            }
          ],
          "internalType": "struct SmartWill.Will[]",
          "name": "",
          "type": "tuple[]"
        }
      ],
      "stateMutability": "view",
      "type": "function"
    },
    {
      "inputs": [
        {
          "internalType": "uint256",
          "name": "id",
          "type": "uint256"
        }
      ],
      "name": "redeemWill",
      "outputs": [],
      "stateMutability": "nonpayable",
      "type": "function"
    },
    {
      "inputs": [
        {
          "internalType": "uint256",
          "name": "id",
          "type": "uint256"
        }
      ],
      "name": "registerActivy",
      "outputs": [],
      "stateMutability": "nonpayable",
      "type": "function"
    }
  ],
  "bytecode": "0x608060405234801561001057600080fd5b506001600081905550612a7c806100286000396000f3fe6080604052600436106100915760003560e01c80639620e579116100595780639620e579146101d1578063a29c5817146101fc578063aaea88de1461022c578063b31ef87a14610255578063c93c23ee1461029257610091565b806327e26594146100965780634192bbb0146100d857806346242d631461011557806379329554146101575780637de00a9d14610194575b600080fd5b3480156100a257600080fd5b506100bd60048036038101906100b89190612102565b6102bb565b6040516100cf9695949392919061278f565b60405180910390f35b3480156100e457600080fd5b506100ff60048036038101906100fa919061213e565b610354565b60405161010c9190612759565b60405180910390f35b34801561012157600080fd5b5061013c60048036038101906101379190612102565b6105c8565b60405161014e9695949392919061278f565b60405180910390f35b34801561016357600080fd5b5061017e6004803603810190610179919061213e565b610661565b60405161018b919061263e565b60405180910390f35b3480156101a057600080fd5b506101bb60048036038101906101b691906120d9565b611166565b6040516101c8919061261c565b60405180910390f35b3480156101dd57600080fd5b506101e66112d8565b6040516101f39190612774565b60405180910390f35b61021660048036038101906102119190612167565b6112e1565b6040516102239190612774565b60405180910390f35b34801561023857600080fd5b50610253600480360381019061024e919061213e565b61171a565b005b34801561026157600080fd5b5061027c600480360381019061027791906120d9565b6118b5565b604051610289919061261c565b60405180910390f35b34801561029e57600080fd5b506102b960048036038101906102b4919061213e565b611a27565b005b600260205281600052604060002081815481106102d757600080fd5b9060005260206000209060060201600091509150508060000154908060010160009054906101000a900473ffffffffffffffffffffffffffffffffffffffff16908060020154908060030154908060040154908060050160009054906101000a900473ffffffffffffffffffffffffffffffffffffffff16905086565b61035c611e65565b6000600160003373ffffffffffffffffffffffffffffffffffffffff1673ffffffffffffffffffffffffffffffffffffffff168152602001908152602001600020805480602002602001604051908101604052809291908181526020016000905b828210156104c357838290600052602060002090600602016040518060c0016040529081600082015481526020016001820160009054906101000a900473ffffffffffffffffffffffffffffffffffffffff1673ffffffffffffffffffffffffffffffffffffffff1673ffffffffffffffffffffffffffffffffffffffff1681526020016002820154815260200160038201548152602001600482015481526020016005820160009054906101000a900473ffffffffffffffffffffffffffffffffffffffff1673ffffffffffffffffffffffffffffffffffffffff1673ffffffffffffffffffffffffffffffffffffffff1681525050815260200190600101906103bd565b50505050905060005b81518160ff1610156105875783828260ff1681518110610515577f4e487b7100000000000000000000000000000000000000000000000000000000600052603260045260246000fd5b602002602001015160000151141561057457818160ff1681518110610563577f4e487b7100000000000000000000000000000000000000000000000000000000600052603260045260246000fd5b6020026020010151925050506105c3565b808061057f906129a8565b9150506104cc565b506040517f08c379a00000000000000000000000000000000000000000000000000000000081526004016105ba90612659565b60405180910390fd5b919050565b600160205281600052604060002081815481106105e457600080fd5b9060005260206000209060060201600091509150508060000154908060010160009054906101000a900473ffffffffffffffffffffffffffffffffffffffff16908060020154908060030154908060040154908060050160009054906101000a900473ffffffffffffffffffffffffffffffffffffffff16905086565b600080600160003373ffffffffffffffffffffffffffffffffffffffff1673ffffffffffffffffffffffffffffffffffffffff168152602001908152602001600020905060008180549050116106ec576040517f08c379a00000000000000000000000000000000000000000000000000000000081526004016106e390612719565b60405180910390fd5b6106f4611e65565b60005b82805490508160ff161015610b455784838260ff1681548110610743577f4e487b7100000000000000000000000000000000000000000000000000000000600052603260045260246000fd5b9060005260206000209060060201600001541415610b3257828160ff1681548110610797577f4e487b7100000000000000000000000000000000000000000000000000000000600052603260045260246000fd5b90600052602060002090600602016040518060c0016040529081600082015481526020016001820160009054906101000a900473ffffffffffffffffffffffffffffffffffffffff1673ffffffffffffffffffffffffffffffffffffffff1673ffffffffffffffffffffffffffffffffffffffff1681526020016002820154815260200160038201548152602001600482015481526020016005820160009054906101000a900473ffffffffffffffffffffffffffffffffffffffff1673ffffffffffffffffffffffffffffffffffffffff1673ffffffffffffffffffffffffffffffffffffffff16815250509150826001848054905061089891906128c4565b815481106108cf577f4e487b7100000000000000000000000000000000000000000000000000000000600052603260045260246000fd5b9060005260206000209060060201838260ff1681548110610919577f4e487b7100000000000000000000000000000000000000000000000000000000600052603260045260246000fd5b9060005260206000209060060201600082015481600001556001820160009054906101000a900473ffffffffffffffffffffffffffffffffffffffff168160010160006101000a81548173ffffffffffffffffffffffffffffffffffffffff021916908373ffffffffffffffffffffffffffffffffffffffff1602179055506002820154816002015560038201548160030155600482015481600401556005820160009054906101000a900473ffffffffffffffffffffffffffffffffffffffff168160050160006101000a81548173ffffffffffffffffffffffffffffffffffffffff021916908373ffffffffffffffffffffffffffffffffffffffff16021790555090505082805480610a57577f4e487b7100000000000000000000000000000000000000000000000000000000600052603160045260246000fd5b60019003818190600052602060002090600602016000808201600090556001820160006101000a81549073ffffffffffffffffffffffffffffffffffffffff02191690556002820160009055600382016000905560048201600090556005820160006101000a81549073ffffffffffffffffffffffffffffffffffffffff02191690555050905582600160003373ffffffffffffffffffffffffffffffffffffffff1673ffffffffffffffffffffffffffffffffffffffff168152602001908152602001600020908054610b2c929190611ec7565b50610b45565b8080610b3d906129a8565b9150506106f7565b5060008160000151111561115a576000600260008360a0015173ffffffffffffffffffffffffffffffffffffffff1673ffffffffffffffffffffffffffffffffffffffff168152602001908152602001600020905060005b81805490508160ff1610156111575785828260ff1681548110610be9577f4e487b7100000000000000000000000000000000000000000000000000000000600052603260045260246000fd5b906000526020600020906006020160000154141561114457818160ff1681548110610c3d577f4e487b7100000000000000000000000000000000000000000000000000000000600052603260045260246000fd5b90600052602060002090600602016040518060c0016040529081600082015481526020016001820160009054906101000a900473ffffffffffffffffffffffffffffffffffffffff1673ffffffffffffffffffffffffffffffffffffffff1673ffffffffffffffffffffffffffffffffffffffff1681526020016002820154815260200160038201548152602001600482015481526020016005820160009054906101000a900473ffffffffffffffffffffffffffffffffffffffff1673ffffffffffffffffffffffffffffffffffffffff1673ffffffffffffffffffffffffffffffffffffffff168152505092507fa448afda7ea1e3a7a10fcab0c29fe9a9dd85791503bf0171f281521551c7ec053047604051610d5d9291906125f3565b60405180910390a16000836020015173ffffffffffffffffffffffffffffffffffffffff168460400151604051610d93906125de565b60006040518083038185875af1925050503d8060008114610dd0576040519150601f19603f3d011682016040523d82523d6000602084013e610dd5565b606091505b5050905080610e19576040517f08c379a0000000000000000000000000000000000000000000000000000000008152600401610e10906126b9565b60405180910390fd5b7fa448afda7ea1e3a7a10fcab0c29fe9a9dd85791503bf0171f281521551c7ec053047604051610e4a9291906125f3565b60405180910390a18260018480549050610e6491906128c4565b81548110610e9b577f4e487b7100000000000000000000000000000000000000000000000000000000600052603260045260246000fd5b9060005260206000209060060201838360ff1681548110610ee5577f4e487b7100000000000000000000000000000000000000000000000000000000600052603260045260246000fd5b9060005260206000209060060201600082015481600001556001820160009054906101000a900473ffffffffffffffffffffffffffffffffffffffff168160010160006101000a81548173ffffffffffffffffffffffffffffffffffffffff021916908373ffffffffffffffffffffffffffffffffffffffff1602179055506002820154816002015560038201548160030155600482015481600401556005820160009054906101000a900473ffffffffffffffffffffffffffffffffffffffff168160050160006101000a81548173ffffffffffffffffffffffffffffffffffffffff021916908373ffffffffffffffffffffffffffffffffffffffff16021790555090505082805480611023577f4e487b7100000000000000000000000000000000000000000000000000000000600052603160045260246000fd5b60019003818190600052602060002090600602016000808201600090556001820160006101000a81549073ffffffffffffffffffffffffffffffffffffffff02191690556002820160009055600382016000905560048201600090556005820160006101000a81549073ffffffffffffffffffffffffffffffffffffffff02191690555050905582600260008660a0015173ffffffffffffffffffffffffffffffffffffffff1673ffffffffffffffffffffffffffffffffffffffff1681526020019081526020016000209080546110fc929190611ec7565b507f42b34bd8821994517b0cc8ea56303517206e6ffbbd3c454020240bb65af95e43338860405161112e9291906125f3565b60405180910390a1600195505050505050611161565b808061114f906129a8565b915050610b9d565b50505b6000925050505b919050565b6060600160008373ffffffffffffffffffffffffffffffffffffffff1673ffffffffffffffffffffffffffffffffffffffff168152602001908152602001600020805480602002602001604051908101604052809291908181526020016000905b828210156112cd57838290600052602060002090600602016040518060c0016040529081600082015481526020016001820160009054906101000a900473ffffffffffffffffffffffffffffffffffffffff1673ffffffffffffffffffffffffffffffffffffffff1673ffffffffffffffffffffffffffffffffffffffff1681526020016002820154815260200160038201548152602001600482015481526020016005820160009054906101000a900473ffffffffffffffffffffffffffffffffffffffff1673ffffffffffffffffffffffffffffffffffffffff1673ffffffffffffffffffffffffffffffffffffffff1681525050815260200190600101906111c7565b505050509050919050565b6000600a905090565b600080600160003373ffffffffffffffffffffffffffffffffffffffff1673ffffffffffffffffffffffffffffffffffffffff1681526020019081526020016000209050600a81805490501061136c576040517f08c379a000000000000000000000000000000000000000000000000000000000815260040161136390612739565b60405180910390fd5b60008081548092919061137e9061295f565b919050555060006040518060c0016040528060005481526020013373ffffffffffffffffffffffffffffffffffffffff168152602001348152602001868152602001600081526020018573ffffffffffffffffffffffffffffffffffffffff168152509050818190806001815401808255809150506001900390600052602060002090600602016000909190919091506000820151816000015560208201518160010160006101000a81548173ffffffffffffffffffffffffffffffffffffffff021916908373ffffffffffffffffffffffffffffffffffffffff16021790555060408201518160020155606082015181600301556080820151816004015560a08201518160050160006101000a81548173ffffffffffffffffffffffffffffffffffffffff021916908373ffffffffffffffffffffffffffffffffffffffff160217905550505081600160003373ffffffffffffffffffffffffffffffffffffffff1673ffffffffffffffffffffffffffffffffffffffff168152602001908152602001600020908054611514929190611ec7565b506000600260008673ffffffffffffffffffffffffffffffffffffffff1673ffffffffffffffffffffffffffffffffffffffff1681526020019081526020016000209050600a81805490501061159f576040517f08c379a000000000000000000000000000000000000000000000000000000000815260040161159690612679565b60405180910390fd5b808290806001815401808255809150506001900390600052602060002090600602016000909190919091506000820151816000015560208201518160010160006101000a81548173ffffffffffffffffffffffffffffffffffffffff021916908373ffffffffffffffffffffffffffffffffffffffff16021790555060408201518160020155606082015181600301556080820151816004015560a08201518160050160006101000a81548173ffffffffffffffffffffffffffffffffffffffff021916908373ffffffffffffffffffffffffffffffffffffffff160217905550505080600260008773ffffffffffffffffffffffffffffffffffffffff1673ffffffffffffffffffffffffffffffffffffffff1681526020019081526020016000209080546116d0929190611ec7565b507fd40dc4a639c90600691397f655099adba04d6b763ef2122630edd47c09f1b6f9336000546040516117049291906125f3565b60405180910390a1600054935050505092915050565b6000600160003373ffffffffffffffffffffffffffffffffffffffff1673ffffffffffffffffffffffffffffffffffffffff168152602001908152602001600020905060008180549050116117a4576040517f08c379a000000000000000000000000000000000000000000000000000000000815260040161179b90612719565b60405180910390fd5b60005b81805490508160ff1610156118b05782828260ff16815481106117f3577f4e487b7100000000000000000000000000000000000000000000000000000000600052603260045260246000fd5b906000526020600020906006020160000154141561189d5742828260ff1681548110611848577f4e487b7100000000000000000000000000000000000000000000000000000000600052603260045260246000fd5b9060005260206000209060060201600401819055507fc1ebbc75c762786fa594b165a0f87b98ee949f4f28d57d61351b8317e9bbac3b600054426040516118909291906127f0565b60405180910390a16118b0565b80806118a8906129a8565b9150506117a7565b505050565b6060600260008373ffffffffffffffffffffffffffffffffffffffff1673ffffffffffffffffffffffffffffffffffffffff168152602001908152602001600020805480602002602001604051908101604052809291908181526020016000905b82821015611a1c57838290600052602060002090600602016040518060c0016040529081600082015481526020016001820160009054906101000a900473ffffffffffffffffffffffffffffffffffffffff1673ffffffffffffffffffffffffffffffffffffffff1673ffffffffffffffffffffffffffffffffffffffff1681526020016002820154815260200160038201548152602001600482015481526020016005820160009054906101000a900473ffffffffffffffffffffffffffffffffffffffff1673ffffffffffffffffffffffffffffffffffffffff1673ffffffffffffffffffffffffffffffffffffffff168152505081526020019060010190611916565b505050509050919050565b6000600260003373ffffffffffffffffffffffffffffffffffffffff1673ffffffffffffffffffffffffffffffffffffffff16815260200190815260200160002090506000818054905011611ab1576040517f08c379a0000000000000000000000000000000000000000000000000000000008152600401611aa890612719565b60405180910390fd5b611ab9611e65565b60005b82805490508160ff161015611c635783838260ff1681548110611b08577f4e487b7100000000000000000000000000000000000000000000000000000000600052603260045260246000fd5b9060005260206000209060060201600001541415611c5057828160ff1681548110611b5c577f4e487b7100000000000000000000000000000000000000000000000000000000600052603260045260246000fd5b90600052602060002090600602016040518060c0016040529081600082015481526020016001820160009054906101000a900473ffffffffffffffffffffffffffffffffffffffff1673ffffffffffffffffffffffffffffffffffffffff1673ffffffffffffffffffffffffffffffffffffffff1681526020016002820154815260200160038201548152602001600482015481526020016005820160009054906101000a900473ffffffffffffffffffffffffffffffffffffffff1673ffffffffffffffffffffffffffffffffffffffff1673ffffffffffffffffffffffffffffffffffffffff16815250509150611c63565b8080611c5b906129a8565b915050611abc565b503373ffffffffffffffffffffffffffffffffffffffff168160a0015173ffffffffffffffffffffffffffffffffffffffff1614611cd6576040517f08c379a0000000000000000000000000000000000000000000000000000000008152600401611ccd906126d9565b60405180910390fd5b42816060015110611d1c576040517f08c379a0000000000000000000000000000000000000000000000000000000008152600401611d13906126f9565b60405180910390fd5b62ed4e0042611d2b919061286e565b816080015110611d70576040517f08c379a0000000000000000000000000000000000000000000000000000000008152600401611d6790612699565b60405180910390fd5b60008160a0015173ffffffffffffffffffffffffffffffffffffffff168260400151604051611d9e906125de565b60006040518083038185875af1925050503d8060008114611ddb576040519150601f19603f3d011682016040523d82523d6000602084013e611de0565b606091505b5050905080611e24576040517f08c379a0000000000000000000000000000000000000000000000000000000008152600401611e1b906126b9565b60405180910390fd5b7fe9b12b923502313ae48d08c4a2476bd3af0803cc9d920f48fde68beb648e9cda33600054604051611e579291906125f3565b60405180910390a150505050565b6040518060c0016040528060008152602001600073ffffffffffffffffffffffffffffffffffffffff168152602001600081526020016000815260200160008152602001600073ffffffffffffffffffffffffffffffffffffffff1681525090565b8280548282559060005260206000209060060281019282156120045760005260206000209160060282015b82811115612003578282600082015481600001556001820160009054906101000a900473ffffffffffffffffffffffffffffffffffffffff168160010160006101000a81548173ffffffffffffffffffffffffffffffffffffffff021916908373ffffffffffffffffffffffffffffffffffffffff1602179055506002820154816002015560038201548160030155600482015481600401556005820160009054906101000a900473ffffffffffffffffffffffffffffffffffffffff168160050160006101000a81548173ffffffffffffffffffffffffffffffffffffffff021916908373ffffffffffffffffffffffffffffffffffffffff160217905550505091600601919060060190611ef2565b5b5090506120119190612015565b5090565b5b80821115612096576000808201600090556001820160006101000a81549073ffffffffffffffffffffffffffffffffffffffff02191690556002820160009055600382016000905560048201600090556005820160006101000a81549073ffffffffffffffffffffffffffffffffffffffff021916905550600601612016565b5090565b6000813590506120a981612a01565b92915050565b6000813590506120be81612a18565b92915050565b6000813590506120d381612a2f565b92915050565b6000602082840312156120eb57600080fd5b60006120f98482850161209a565b91505092915050565b6000806040838503121561211557600080fd5b60006121238582860161209a565b9250506020612134858286016120c4565b9150509250929050565b60006020828403121561215057600080fd5b600061215e848285016120c4565b91505092915050565b6000806040838503121561217a57600080fd5b6000612188858286016120c4565b9250506020612199858286016120af565b9150509250929050565b60006121af83836124ca565b60c08301905092915050565b6121c48161290a565b82525050565b6121d38161290a565b82525050565b6121e2816128f8565b82525050565b6121f1816128f8565b82525050565b600061220282612829565b61220c8185612841565b935061221783612819565b8060005b8381101561224857815161222f88826121a3565b975061223a83612834565b92505060018101905061221b565b5085935050505092915050565b61225e8161291c565b82525050565b600061227160098361285d565b91507f4e6f7420666f756e6400000000000000000000000000000000000000000000006000830152602082019050919050565b60006122b160328361285d565b91507f4d6178696d756d206e756d626572206f662077696c6c7320726561636865642060008301527f666f7220746869732072657472696576657200000000000000000000000000006020830152604082019050919050565b6000612317603b8361285d565b91507f496e6865726974616e6365206e6565647320746f20776169742036206d6f6e7460008301527f68732066726f6d206c617374206f776e657220616374697669747900000000006020830152604082019050919050565b600061237d60148361285d565b91507f4661696c656420746f2073656e642045746865720000000000000000000000006000830152602082019050919050565b60006123bd600f8361285d565b91507f57726f6e6720726563697069656e7400000000000000000000000000000000006000830152602082019050919050565b60006123fd60198361285d565b91507f5472616e736665722074696d65206e6f742072656163686564000000000000006000830152602082019050919050565b600061243d60138361285d565b91507f57696c6c206c697374206e6f7420666f756e64000000000000000000000000006000830152602082019050919050565b600061247d601f8361285d565b91507f4d6178696d756d206e756d626572206f662077696c6c732072656163686564006000830152602082019050919050565b60006124bd600083612852565b9150600082019050919050565b60c0820160008201516124e060008501826125c0565b5060208201516124f360208501826121d9565b50604082015161250660408501826125c0565b50606082015161251960608501826125c0565b50608082015161252c60808501826125c0565b5060a082015161253f60a08501826121bb565b50505050565b60c08201600082015161255b60008501826125c0565b50602082015161256e60208501826121d9565b50604082015161258160408501826125c0565b50606082015161259460608501826125c0565b5060808201516125a760808501826125c0565b5060a08201516125ba60a08501826121bb565b50505050565b6125c981612948565b82525050565b6125d881612948565b82525050565b60006125e9826124b0565b9150819050919050565b600060408201905061260860008301856121e8565b61261560208301846125cf565b9392505050565b6000602082019050818103600083015261263681846121f7565b905092915050565b60006020820190506126536000830184612255565b92915050565b6000602082019050818103600083015261267281612264565b9050919050565b60006020820190508181036000830152612692816122a4565b9050919050565b600060208201905081810360008301526126b28161230a565b9050919050565b600060208201905081810360008301526126d281612370565b9050919050565b600060208201905081810360008301526126f2816123b0565b9050919050565b60006020820190508181036000830152612712816123f0565b9050919050565b6000602082019050818103600083015261273281612430565b9050919050565b6000602082019050818103600083015261275281612470565b9050919050565b600060c08201905061276e6000830184612545565b92915050565b600060208201905061278960008301846125cf565b92915050565b600060c0820190506127a460008301896125cf565b6127b160208301886121e8565b6127be60408301876125cf565b6127cb60608301866125cf565b6127d860808301856125cf565b6127e560a08301846121ca565b979650505050505050565b600060408201905061280560008301856125cf565b61281260208301846125cf565b9392505050565b6000819050602082019050919050565b600081519050919050565b6000602082019050919050565b600082825260208201905092915050565b600081905092915050565b600082825260208201905092915050565b600061287982612948565b915061288483612948565b9250827fffffffffffffffffffffffffffffffffffffffffffffffffffffffffffffffff038211156128b9576128b86129d2565b5b828201905092915050565b60006128cf82612948565b91506128da83612948565b9250828210156128ed576128ec6129d2565b5b828203905092915050565b600061290382612928565b9050919050565b600061291582612928565b9050919050565b60008115159050919050565b600073ffffffffffffffffffffffffffffffffffffffff82169050919050565b6000819050919050565b600060ff82169050919050565b600061296a82612948565b91507fffffffffffffffffffffffffffffffffffffffffffffffffffffffffffffffff82141561299d5761299c6129d2565b5b600182019050919050565b60006129b382612952565b915060ff8214156129c7576129c66129d2565b5b600182019050919050565b7f4e487b7100000000000000000000000000000000000000000000000000000000600052601160045260246000fd5b612a0a816128f8565b8114612a1557600080fd5b50565b612a218161290a565b8114612a2c57600080fd5b50565b612a3881612948565b8114612a4357600080fd5b5056fea26469706673582212203db701404fd1f8bf62249f08106b25cdd1080e27cf91ed93ef162115c22b1b7164736f6c63430008000033",
  "immutableReferences": {},
  "source": "// SPDX-License-Identifier: GPL-3.0\r\n\r\npragma solidity >=0.8.0 <0.9.0;\r\n\r\n/**\r\n * @title SmartWill\r\n * @dev Time based resource transfers\r\n */\r\ncontract SmartWill {\r\n\r\n    event WillCreated(address owner, uint id);\r\n    event WillRefunded(address owner, uint id);\r\n    event WillActivityRegistered(uint id, uint blockTime);\r\n    event WillRedeemed(address recipient, uint id);\r\n    event BalanceChanged(address owner, uint balance);\r\n\r\n    uint constant maxWillCount = 10;\r\n\r\n    struct Will {\r\n        uint id;\r\n        address owner;\r\n        uint ammount;\r\n        uint redemptionDate;\r\n        uint lastActivity;\r\n        address payable recipient;\r\n    }\r\n\r\n    uint currentId;\r\n\r\n    mapping(address => Will[]) public willsByOwner;\r\n    mapping(address => Will[]) public willsByRecipient;\r\n\r\n    constructor() {\r\n        currentId = 1;\r\n    }\r\n\r\n    function createWill(uint redemptionDate, address payable recipient) external payable returns (uint){\r\n        Will[] storage wills = willsByOwner[msg.sender];\r\n        // Check if maxWillCount reached\r\n        require(wills.length < maxWillCount, \"Maximum number of wills reached\");\r\n        currentId++;\r\n        Will memory will = Will({\r\n            id: currentId,\r\n            owner: msg.sender,\r\n            ammount: msg.value,\r\n            redemptionDate: redemptionDate,\r\n            recipient: recipient,\r\n            lastActivity: 0\r\n        });\r\n        wills.push(will);\r\n        willsByOwner[msg.sender] = wills;\r\n\r\n        Will[] storage willsByRecipientList = willsByRecipient[recipient];\r\n        require(willsByRecipientList.length < maxWillCount, \"Maximum number of wills reached for this retriever\");    \r\n        willsByRecipientList.push(will);\r\n        willsByRecipient[recipient] = willsByRecipientList;\r\n\r\n        emit WillCreated(msg.sender,currentId);\r\n\r\n        return currentId;\r\n    }\r\n\r\n    function getMaxWillCount() external pure returns (uint){\r\n        return maxWillCount;\r\n    }\r\n\r\n    /**\r\n     * @dev Get a will by id\r\n     * @return w will\r\n     */\r\n    function getWill(uint id) external view returns (Will memory w){\r\n        Will[] memory willsByOwnerList = willsByOwner[msg.sender];\r\n        for (uint8 index = 0; index < willsByOwnerList.length; index++) {\r\n            if(willsByOwnerList[index].id == id) {\r\n               return willsByOwnerList[index];\r\n            }\r\n        }\r\n        revert('Not found');\r\n    }\r\n    \r\n    /**\r\n     * @dev Deletes a will and returns value to owner (minus gas costs)\r\n     */\r\n    function refundWill(uint id) public returns (bool){\r\n        Will[] storage willsByOwnerList = willsByOwner[msg.sender];\r\n        require(\r\n           willsByOwnerList.length > 0, \"Will list not found\"\r\n        );\r\n        Will memory will;\r\n        for (uint8 index = 0; index < willsByOwnerList.length; index++) {\r\n            if(willsByOwnerList[index].id == id) {\r\n               will = willsByOwnerList[index];\r\n               willsByOwnerList[index] = willsByOwnerList[willsByOwnerList.length-1];\r\n               willsByOwnerList.pop();\r\n               willsByOwner[msg.sender] = willsByOwnerList;\r\n               break;\r\n            }\r\n        }\r\n        if(will.id > 0){\r\n                Will[] storage willsByRecipientList = willsByRecipient[will.recipient];\r\n                for (uint8 index = 0; index < willsByRecipientList.length; index++) {\r\n                    if(willsByRecipientList[index].id == id) {\r\n                        will = willsByRecipientList[index];\r\n\r\n                        emit BalanceChanged(address(this),address(this).balance);    \r\n                        (bool sent,) = will.owner.call{value: will.ammount}(\"\");\r\n                        require(sent, \"Failed to send Ether\");\r\n                        emit BalanceChanged(address(this),address(this).balance);   \r\n\r\n                        willsByRecipientList[index] = willsByRecipientList[willsByRecipientList.length-1];\r\n                        willsByRecipientList.pop();\r\n                        willsByRecipient[will.recipient] = willsByRecipientList;\r\n                        emit WillRefunded(msg.sender,id);\r\n                        return true;\r\n                    }\r\n                }\r\n        }\r\n        return false;\r\n    }\r\n\r\n    /**\r\n     * @dev Get wills assigned to this owner address\r\n     * @return wills\r\n     */\r\n    function getWillsByOwner(address ownerAddress) public view returns (Will[] memory){\r\n        return willsByOwner[ownerAddress];\r\n    }\r\n\r\n    /**\r\n     * @dev Get wills assigned to this recipient address\r\n     * @return wills\r\n     */\r\n    function getWillsByRecipient(address recipientAddress) public view returns (Will[] memory){\r\n        return willsByRecipient[recipientAddress];\r\n    }\r\n\r\n    function redeemWill(uint id) public{\r\n        Will[] storage willsByRecipientList = willsByRecipient[msg.sender];\r\n        require(\r\n           willsByRecipientList.length > 0, \"Will list not found\"\r\n        );\r\n        Will memory will;\r\n        for (uint8 index = 0; index < willsByRecipientList.length; index++) {\r\n            if(willsByRecipientList[index].id == id) {\r\n                will = willsByRecipientList[index];   \r\n                break;\r\n            }\r\n        }\r\n        require(\r\n            will.recipient == msg.sender, \"Wrong recipient\"\r\n        );\r\n        require(\r\n            will.redemptionDate < block.timestamp, \"Transfer time not reached\"\r\n        );\r\n        require(\r\n            will.lastActivity < block.timestamp + 180 days, \"Inheritance needs to wait 6 months from last owner activity\"\r\n        );\r\n        (bool sent,) = will.recipient.call{value: will.ammount}(\"\");\r\n        require(sent, \"Failed to send Ether\");\r\n        emit WillRedeemed(msg.sender,currentId);\r\n    }\r\n\r\n    function registerActivy(uint id) public {\r\n        Will[] storage willsByOwnerList = willsByOwner[msg.sender];\r\n        require(\r\n           willsByOwnerList.length > 0, \"Will list not found\"\r\n        );\r\n        for (uint8 index = 0; index < willsByOwnerList.length; index++) {\r\n            if(willsByOwnerList[index].id == id) {\r\n               willsByOwnerList[index].lastActivity = block.timestamp;\r\n               emit WillActivityRegistered(currentId,block.timestamp);\r\n               break;\r\n            }\r\n        }\r\n    }\r\n\r\n}",
  "sourcePath": "D:\\dev\\smart_will\\contracts\\SmartWill.sol",
  "compiler": {
    "name": "solc",
    "version": "0.8.0+commit.c7dfd78e.Emscripten.clang"
  },
  "schemaVersion": "3.4.3",
  "updatedAt": "2021-11-19T05:10:51.240Z",
  "devdoc": {
    "details": "Time based resource transfers",
    "kind": "dev",
    "methods": {
      "getWill(uint256)": {
        "details": "Get a will by id",
        "returns": {
          "w": "will"
        }
      },
      "getWillsByOwner(address)": {
        "details": "Get wills assigned to this owner address",
        "returns": {
          "_0": "wills"
        }
      },
      "getWillsByRecipient(address)": {
        "details": "Get wills assigned to this recipient address",
        "returns": {
          "_0": "wills"
        }
      },
      "refundWill(uint256)": {
        "details": "Deletes a will and returns value to owner (minus gas costs)"
      }
    },
    "title": "SmartWill",
    "version": 1
  },
  "userdoc": {
    "kind": "user",
    "methods": {},
    "version": 1
  }
}