{
  "contractName": "SmartWill",
  "abi": [
    {
      "inputs": [],
      "stateMutability": "nonpayable",
      "type": "constructor"
    },
    {
      "anonymous": false,
      "inputs": [
        {
          "indexed": false,
          "internalType": "address",
          "name": "owner",
          "type": "address"
        },
        {
          "indexed": false,
          "internalType": "uint256",
          "name": "balance",
          "type": "uint256"
        }
      ],
      "name": "BalanceChanged",
      "type": "event"
    },
    {
      "anonymous": false,
      "inputs": [
        {
          "indexed": false,
          "internalType": "uint256",
          "name": "blockTime",
          "type": "uint256"
        },
        {
          "indexed": false,
          "internalType": "uint256",
          "name": "redemptionTime",
          "type": "uint256"
        }
      ],
      "name": "RedemptionError",
      "type": "event"
    },
    {
      "anonymous": false,
      "inputs": [
        {
          "indexed": false,
          "internalType": "uint256",
          "name": "id",
          "type": "uint256"
        },
        {
          "indexed": false,
          "internalType": "uint256",
          "name": "blockTime",
          "type": "uint256"
        }
      ],
      "name": "WillActivityRegistered",
      "type": "event"
    },
    {
      "anonymous": false,
      "inputs": [
        {
          "indexed": false,
          "internalType": "address",
          "name": "owner",
          "type": "address"
        },
        {
          "indexed": false,
          "internalType": "uint256",
          "name": "id",
          "type": "uint256"
        }
      ],
      "name": "WillCreated",
      "type": "event"
    },
    {
      "anonymous": false,
      "inputs": [
        {
          "indexed": false,
          "internalType": "address",
          "name": "recipient",
          "type": "address"
        },
        {
          "indexed": false,
          "internalType": "uint256",
          "name": "id",
          "type": "uint256"
        },
        {
          "indexed": false,
          "internalType": "uint256",
          "name": "blockTime",
          "type": "uint256"
        },
        {
          "indexed": false,
          "internalType": "uint256",
          "name": "redemptionTime",
          "type": "uint256"
        }
      ],
      "name": "WillRedeemed",
      "type": "event"
    },
    {
      "anonymous": false,
      "inputs": [
        {
          "indexed": false,
          "internalType": "address",
          "name": "owner",
          "type": "address"
        },
        {
          "indexed": false,
          "internalType": "uint256",
          "name": "id",
          "type": "uint256"
        }
      ],
      "name": "WillRefunded",
      "type": "event"
    },
    {
      "inputs": [
        {
          "internalType": "uint256",
          "name": "redemptionDate",
          "type": "uint256"
        },
        {
          "internalType": "address payable",
          "name": "recipient",
          "type": "address"
        }
      ],
      "name": "createWill",
      "outputs": [
        {
          "internalType": "uint256",
          "name": "",
          "type": "uint256"
        }
      ],
      "stateMutability": "payable",
      "type": "function",
      "payable": true
    },
    {
      "inputs": [],
      "name": "getMaxWillCount",
      "outputs": [
        {
          "internalType": "uint256",
          "name": "",
          "type": "uint256"
        }
      ],
      "stateMutability": "pure",
      "type": "function",
      "constant": true
    },
    {
      "inputs": [
        {
          "internalType": "uint256",
          "name": "id",
          "type": "uint256"
        }
      ],
      "name": "getWill",
      "outputs": [
        {
          "components": [
            {
              "internalType": "uint256",
              "name": "id",
              "type": "uint256"
            },
            {
              "internalType": "address",
              "name": "owner",
              "type": "address"
            },
            {
              "internalType": "uint256",
              "name": "ammount",
              "type": "uint256"
            },
            {
              "internalType": "uint256",
              "name": "redemptionDate",
              "type": "uint256"
            },
            {
              "internalType": "uint256",
              "name": "lastActivity",
              "type": "uint256"
            },
            {
              "internalType": "address payable",
              "name": "recipient",
              "type": "address"
            },
            {
              "internalType": "bool",
              "name": "redeemed",
              "type": "bool"
            }
          ],
          "internalType": "struct SmartWill.Will",
          "name": "w",
          "type": "tuple"
        }
      ],
      "stateMutability": "view",
      "type": "function",
      "constant": true
    },
    {
      "inputs": [
        {
          "internalType": "address",
          "name": "ownerAddress",
          "type": "address"
        }
      ],
      "name": "getWillsByOwner",
      "outputs": [
        {
          "components": [
            {
              "internalType": "uint256",
              "name": "id",
              "type": "uint256"
            },
            {
              "internalType": "address",
              "name": "owner",
              "type": "address"
            },
            {
              "internalType": "uint256",
              "name": "ammount",
              "type": "uint256"
            },
            {
              "internalType": "uint256",
              "name": "redemptionDate",
              "type": "uint256"
            },
            {
              "internalType": "uint256",
              "name": "lastActivity",
              "type": "uint256"
            },
            {
              "internalType": "address payable",
              "name": "recipient",
              "type": "address"
            },
            {
              "internalType": "bool",
              "name": "redeemed",
              "type": "bool"
            }
          ],
          "internalType": "struct SmartWill.Will[]",
          "name": "",
          "type": "tuple[]"
        }
      ],
      "stateMutability": "view",
      "type": "function",
      "constant": true
    },
    {
      "inputs": [
        {
          "internalType": "address",
          "name": "recipientAddress",
          "type": "address"
        }
      ],
      "name": "getWillsByRecipient",
      "outputs": [
        {
          "components": [
            {
              "internalType": "uint256",
              "name": "id",
              "type": "uint256"
            },
            {
              "internalType": "address",
              "name": "owner",
              "type": "address"
            },
            {
              "internalType": "uint256",
              "name": "ammount",
              "type": "uint256"
            },
            {
              "internalType": "uint256",
              "name": "redemptionDate",
              "type": "uint256"
            },
            {
              "internalType": "uint256",
              "name": "lastActivity",
              "type": "uint256"
            },
            {
              "internalType": "address payable",
              "name": "recipient",
              "type": "address"
            },
            {
              "internalType": "bool",
              "name": "redeemed",
              "type": "bool"
            }
          ],
          "internalType": "struct SmartWill.Will[]",
          "name": "",
          "type": "tuple[]"
        }
      ],
      "stateMutability": "view",
      "type": "function",
      "constant": true
    },
    {
      "inputs": [
        {
          "internalType": "uint256",
          "name": "id",
          "type": "uint256"
        }
      ],
      "name": "redeemWill",
      "outputs": [],
      "stateMutability": "nonpayable",
      "type": "function"
    },
    {
      "inputs": [
        {
          "internalType": "uint256",
          "name": "id",
          "type": "uint256"
        }
      ],
      "name": "refundWill",
      "outputs": [
        {
          "internalType": "bool",
          "name": "",
          "type": "bool"
        }
      ],
      "stateMutability": "nonpayable",
      "type": "function"
    },
    {
      "inputs": [
        {
          "internalType": "uint256",
          "name": "id",
          "type": "uint256"
        }
      ],
      "name": "registerActivy",
      "outputs": [],
      "stateMutability": "nonpayable",
      "type": "function"
    }
  ],
  "bytecode": "0x608060405234801561001057600080fd5b506001600081905550612f62806100286000396000f3fe60806040526004361061007b5760003560e01c8063a29c58171161004e578063a29c581714610162578063aaea88de14610192578063b31ef87a146101bb578063c93c23ee146101f85761007b565b80634192bbb01461008057806379329554146100bd5780637de00a9d146100fa5780639620e57914610137575b600080fd5b34801561008c57600080fd5b506100a760048036038101906100a2919061249a565b610221565b6040516100b49190612ca0565b60405180910390f35b3480156100c957600080fd5b506100e460048036038101906100df919061249a565b610474565b6040516100f19190612b05565b60405180910390f35b34801561010657600080fd5b50610121600480360381019061011c9190612471565b610fbf565b60405161012e9190612ae3565b60405180910390f35b34801561014357600080fd5b5061014c61114c565b6040516101599190612cbb565b60405180910390f35b61017c600480360381019061017791906124c3565b611155565b6040516101899190612cbb565b60405180910390f35b34801561019e57600080fd5b506101b960048036038101906101b4919061249a565b611539565b005b3480156101c757600080fd5b506101e260048036038101906101dd9190612471565b6118c1565b6040516101ef9190612ae3565b60405180910390f35b34801561020457600080fd5b5061021f600480360381019061021a919061249a565b611a4e565b005b6102296121b3565b6000600160003373ffffffffffffffffffffffffffffffffffffffff1673ffffffffffffffffffffffffffffffffffffffff168152602001908152602001600020905060005b81805490508160ff1610156104335783828260ff16815481106102bb577f4e487b7100000000000000000000000000000000000000000000000000000000600052603260045260246000fd5b906000526020600020906006020160000154141561042057818160ff168154811061030f577f4e487b7100000000000000000000000000000000000000000000000000000000600052603260045260246000fd5b90600052602060002090600602016040518060e0016040529081600082015481526020016001820160009054906101000a900473ffffffffffffffffffffffffffffffffffffffff1673ffffffffffffffffffffffffffffffffffffffff1673ffffffffffffffffffffffffffffffffffffffff1681526020016002820154815260200160038201548152602001600482015481526020016005820160009054906101000a900473ffffffffffffffffffffffffffffffffffffffff1673ffffffffffffffffffffffffffffffffffffffff1673ffffffffffffffffffffffffffffffffffffffff1681526020016005820160149054906101000a900460ff1615151515815250509250505061046f565b808061042b90612e8e565b91505061026f565b506040517f08c379a000000000000000000000000000000000000000000000000000000000815260040161046690612b20565b60405180910390fd5b919050565b600080600160003373ffffffffffffffffffffffffffffffffffffffff1673ffffffffffffffffffffffffffffffffffffffff168152602001908152602001600020905060008180549050116104ff576040517f08c379a00000000000000000000000000000000000000000000000000000000081526004016104f690612c20565b60405180910390fd5b6105076121b3565b60005b82805490508160ff1610156109b45784838260ff1681548110610556577f4e487b7100000000000000000000000000000000000000000000000000000000600052603260045260246000fd5b90600052602060002090600602016000015414156109a157828160ff16815481106105aa577f4e487b7100000000000000000000000000000000000000000000000000000000600052603260045260246000fd5b90600052602060002090600602016040518060e0016040529081600082015481526020016001820160009054906101000a900473ffffffffffffffffffffffffffffffffffffffff1673ffffffffffffffffffffffffffffffffffffffff1673ffffffffffffffffffffffffffffffffffffffff1681526020016002820154815260200160038201548152602001600482015481526020016005820160009054906101000a900473ffffffffffffffffffffffffffffffffffffffff1673ffffffffffffffffffffffffffffffffffffffff1673ffffffffffffffffffffffffffffffffffffffff1681526020016005820160149054906101000a900460ff161515151581525050915082600184805490506106c69190612daa565b815481106106fd577f4e487b7100000000000000000000000000000000000000000000000000000000600052603260045260246000fd5b9060005260206000209060060201838260ff1681548110610747577f4e487b7100000000000000000000000000000000000000000000000000000000600052603260045260246000fd5b9060005260206000209060060201600082015481600001556001820160009054906101000a900473ffffffffffffffffffffffffffffffffffffffff168160010160006101000a81548173ffffffffffffffffffffffffffffffffffffffff021916908373ffffffffffffffffffffffffffffffffffffffff1602179055506002820154816002015560038201548160030155600482015481600401556005820160009054906101000a900473ffffffffffffffffffffffffffffffffffffffff168160050160006101000a81548173ffffffffffffffffffffffffffffffffffffffff021916908373ffffffffffffffffffffffffffffffffffffffff1602179055506005820160149054906101000a900460ff168160050160146101000a81548160ff021916908315150217905550905050828054806108b2577f4e487b7100000000000000000000000000000000000000000000000000000000600052603160045260246000fd5b60019003818190600052602060002090600602016000808201600090556001820160006101000a81549073ffffffffffffffffffffffffffffffffffffffff02191690556002820160009055600382016000905560048201600090556005820160006101000a81549073ffffffffffffffffffffffffffffffffffffffff02191690556005820160146101000a81549060ff02191690555050905582600160003373ffffffffffffffffffffffffffffffffffffffff1673ffffffffffffffffffffffffffffffffffffffff16815260200190815260200160002090805461099b92919061221e565b506109b4565b80806109ac90612e8e565b91505061050a565b50600081600001511115610fb3576000600260008360a0015173ffffffffffffffffffffffffffffffffffffffff1673ffffffffffffffffffffffffffffffffffffffff168152602001908152602001600020905060005b81805490508160ff161015610fb05785828260ff1681548110610a58577f4e487b7100000000000000000000000000000000000000000000000000000000600052603260045260246000fd5b9060005260206000209060060201600001541415610f9d57818160ff1681548110610aac577f4e487b7100000000000000000000000000000000000000000000000000000000600052603260045260246000fd5b90600052602060002090600602016040518060e0016040529081600082015481526020016001820160009054906101000a900473ffffffffffffffffffffffffffffffffffffffff1673ffffffffffffffffffffffffffffffffffffffff1673ffffffffffffffffffffffffffffffffffffffff1681526020016002820154815260200160038201548152602001600482015481526020016005820160009054906101000a900473ffffffffffffffffffffffffffffffffffffffff1673ffffffffffffffffffffffffffffffffffffffff1673ffffffffffffffffffffffffffffffffffffffff1681526020016005820160149054906101000a900460ff16151515158152505092506000836020015173ffffffffffffffffffffffffffffffffffffffff168460400151604051610be490612a60565b60006040518083038185875af1925050503d8060008114610c21576040519150601f19603f3d011682016040523d82523d6000602084013e610c26565b606091505b5050905080610c6a576040517f08c379a0000000000000000000000000000000000000000000000000000000008152600401610c6190612b80565b60405180910390fd5b8260018480549050610c7c9190612daa565b81548110610cb3577f4e487b7100000000000000000000000000000000000000000000000000000000600052603260045260246000fd5b9060005260206000209060060201838360ff1681548110610cfd577f4e487b7100000000000000000000000000000000000000000000000000000000600052603260045260246000fd5b9060005260206000209060060201600082015481600001556001820160009054906101000a900473ffffffffffffffffffffffffffffffffffffffff168160010160006101000a81548173ffffffffffffffffffffffffffffffffffffffff021916908373ffffffffffffffffffffffffffffffffffffffff1602179055506002820154816002015560038201548160030155600482015481600401556005820160009054906101000a900473ffffffffffffffffffffffffffffffffffffffff168160050160006101000a81548173ffffffffffffffffffffffffffffffffffffffff021916908373ffffffffffffffffffffffffffffffffffffffff1602179055506005820160149054906101000a900460ff168160050160146101000a81548160ff02191690831515021790555090505082805480610e68577f4e487b7100000000000000000000000000000000000000000000000000000000600052603160045260246000fd5b60019003818190600052602060002090600602016000808201600090556001820160006101000a81549073ffffffffffffffffffffffffffffffffffffffff02191690556002820160009055600382016000905560048201600090556005820160006101000a81549073ffffffffffffffffffffffffffffffffffffffff02191690556005820160146101000a81549060ff02191690555050905582600260008660a0015173ffffffffffffffffffffffffffffffffffffffff1673ffffffffffffffffffffffffffffffffffffffff168152602001908152602001600020908054610f5592919061221e565b507f42b34bd8821994517b0cc8ea56303517206e6ffbbd3c454020240bb65af95e433388604051610f87929190612a75565b60405180910390a1600195505050505050610fba565b8080610fa890612e8e565b915050610a0c565b50505b6000925050505b919050565b6060600160008373ffffffffffffffffffffffffffffffffffffffff1673ffffffffffffffffffffffffffffffffffffffff168152602001908152602001600020805480602002602001604051908101604052809291908181526020016000905b8282101561114157838290600052602060002090600602016040518060e0016040529081600082015481526020016001820160009054906101000a900473ffffffffffffffffffffffffffffffffffffffff1673ffffffffffffffffffffffffffffffffffffffff1673ffffffffffffffffffffffffffffffffffffffff1681526020016002820154815260200160038201548152602001600482015481526020016005820160009054906101000a900473ffffffffffffffffffffffffffffffffffffffff1673ffffffffffffffffffffffffffffffffffffffff1673ffffffffffffffffffffffffffffffffffffffff1681526020016005820160149054906101000a900460ff16151515158152505081526020019060010190611020565b505050509050919050565b6000600a905090565b600080600160003373ffffffffffffffffffffffffffffffffffffffff1673ffffffffffffffffffffffffffffffffffffffff1681526020019081526020016000209050600a8180549050106111e0576040517f08c379a00000000000000000000000000000000000000000000000000000000081526004016111d790612c40565b60405180910390fd5b6000808154809291906111f290612e45565b919050555060006040518060e0016040528060005481526020013373ffffffffffffffffffffffffffffffffffffffff168152602001348152602001868152602001600081526020018573ffffffffffffffffffffffffffffffffffffffff168152602001600015158152509050818190806001815401808255809150506001900390600052602060002090600602016000909190919091506000820151816000015560208201518160010160006101000a81548173ffffffffffffffffffffffffffffffffffffffff021916908373ffffffffffffffffffffffffffffffffffffffff16021790555060408201518160020155606082015181600301556080820151816004015560a08201518160050160006101000a81548173ffffffffffffffffffffffffffffffffffffffff021916908373ffffffffffffffffffffffffffffffffffffffff16021790555060c08201518160050160146101000a81548160ff02191690831515021790555050506000600260008673ffffffffffffffffffffffffffffffffffffffff1673ffffffffffffffffffffffffffffffffffffffff1681526020019081526020016000209050600a8180549050106113ed576040517f08c379a00000000000000000000000000000000000000000000000000000000081526004016113e490612b40565b60405180910390fd5b808290806001815401808255809150506001900390600052602060002090600602016000909190919091506000820151816000015560208201518160010160006101000a81548173ffffffffffffffffffffffffffffffffffffffff021916908373ffffffffffffffffffffffffffffffffffffffff16021790555060408201518160020155606082015181600301556080820151816004015560a08201518160050160006101000a81548173ffffffffffffffffffffffffffffffffffffffff021916908373ffffffffffffffffffffffffffffffffffffffff16021790555060c08201518160050160146101000a81548160ff02191690831515021790555050507fd40dc4a639c90600691397f655099adba04d6b763ef2122630edd47c09f1b6f933600054604051611523929190612a75565b60405180910390a1600054935050505092915050565b60004290506000600160003373ffffffffffffffffffffffffffffffffffffffff1673ffffffffffffffffffffffffffffffffffffffff168152602001908152602001600020905060008180549050116115c8576040517f08c379a00000000000000000000000000000000000000000000000000000000081526004016115bf90612bc0565b60405180910390fd5b6000805b82805490508160ff16101561169e5784838260ff1681548110611618577f4e487b7100000000000000000000000000000000000000000000000000000000600052603260045260246000fd5b906000526020600020906006020160000154141561168b5783838260ff168154811061166d577f4e487b7100000000000000000000000000000000000000000000000000000000600052603260045260246000fd5b9060005260206000209060060201600401819055506001915061169e565b808061169690612e8e565b9150506115cc565b50806116df576040517f08c379a00000000000000000000000000000000000000000000000000000000081526004016116d690612c80565b60405180910390fd5b6000600260003373ffffffffffffffffffffffffffffffffffffffff1673ffffffffffffffffffffffffffffffffffffffff16815260200190815260200160002090506000818054905011611769576040517f08c379a000000000000000000000000000000000000000000000000000000000815260040161176090612c60565b60405180910390fd5b6000805b82805490508160ff16101561183f5786838260ff16815481106117b9577f4e487b7100000000000000000000000000000000000000000000000000000000600052603260045260246000fd5b906000526020600020906006020160000154141561182c5785838260ff168154811061180e577f4e487b7100000000000000000000000000000000000000000000000000000000600052603260045260246000fd5b9060005260206000209060060201600401819055506001915061183f565b808061183790612e8e565b91505061176d565b5080611880576040517f08c379a000000000000000000000000000000000000000000000000000000000815260040161187790612be0565b60405180910390fd5b7fc1ebbc75c762786fa594b165a0f87b98ee949f4f28d57d61351b8317e9bbac3b86866040516118b1929190612cd6565b60405180910390a1505050505050565b6060600260008373ffffffffffffffffffffffffffffffffffffffff1673ffffffffffffffffffffffffffffffffffffffff168152602001908152602001600020805480602002602001604051908101604052809291908181526020016000905b82821015611a4357838290600052602060002090600602016040518060e0016040529081600082015481526020016001820160009054906101000a900473ffffffffffffffffffffffffffffffffffffffff1673ffffffffffffffffffffffffffffffffffffffff1673ffffffffffffffffffffffffffffffffffffffff1681526020016002820154815260200160038201548152602001600482015481526020016005820160009054906101000a900473ffffffffffffffffffffffffffffffffffffffff1673ffffffffffffffffffffffffffffffffffffffff1673ffffffffffffffffffffffffffffffffffffffff1681526020016005820160149054906101000a900460ff16151515158152505081526020019060010190611922565b505050509050919050565b6000600260003373ffffffffffffffffffffffffffffffffffffffff1673ffffffffffffffffffffffffffffffffffffffff16815260200190815260200160002090506000818054905011611ad8576040517f08c379a0000000000000000000000000000000000000000000000000000000008152600401611acf90612c20565b60405180910390fd5b6000805b82805490508160ff161015611fba5783838260ff1681548110611b28577f4e487b7100000000000000000000000000000000000000000000000000000000600052603260045260246000fd5b9060005260206000209060060201600001541415611fa7573373ffffffffffffffffffffffffffffffffffffffff16838260ff1681548110611b93577f4e487b7100000000000000000000000000000000000000000000000000000000600052603260045260246000fd5b906000526020600020906006020160050160009054906101000a900473ffffffffffffffffffffffffffffffffffffffff1673ffffffffffffffffffffffffffffffffffffffff1614611c1b576040517f08c379a0000000000000000000000000000000000000000000000000000000008152600401611c1290612ba0565b60405180910390fd5b42838260ff1681548110611c58577f4e487b7100000000000000000000000000000000000000000000000000000000600052603260045260246000fd5b90600052602060002090600602016003015410611caa576040517f08c379a0000000000000000000000000000000000000000000000000000000008152600401611ca190612c00565b60405180910390fd5b62ed4e0042611cb99190612d54565b838260ff1681548110611cf5577f4e487b7100000000000000000000000000000000000000000000000000000000600052603260045260246000fd5b90600052602060002090600602016004015410611d47576040517f08c379a0000000000000000000000000000000000000000000000000000000008152600401611d3e90612b60565b60405180910390fd5b6000838260ff1681548110611d85577f4e487b7100000000000000000000000000000000000000000000000000000000600052603260045260246000fd5b906000526020600020906006020160050160009054906101000a900473ffffffffffffffffffffffffffffffffffffffff1673ffffffffffffffffffffffffffffffffffffffff16848360ff1681548110611e09577f4e487b7100000000000000000000000000000000000000000000000000000000600052603260045260246000fd5b906000526020600020906006020160020154604051611e2790612a60565b60006040518083038185875af1925050503d8060008114611e64576040519150601f19603f3d011682016040523d82523d6000602084013e611e69565b606091505b5050905080611ead576040517f08c379a0000000000000000000000000000000000000000000000000000000008152600401611ea490612b80565b60405180910390fd5b6001848360ff1681548110611eeb577f4e487b7100000000000000000000000000000000000000000000000000000000600052603260045260246000fd5b906000526020600020906006020160050160146101000a81548160ff0219169083151502179055507fea26074848e8b75aed7219d5a8edbd2adf91432b05b4ffe959dcdbfcce55df07338642878660ff1681548110611f73577f4e487b7100000000000000000000000000000000000000000000000000000000600052603260045260246000fd5b906000526020600020906006020160030154604051611f959493929190612a9e565b60405180910390a16001925050611fba565b8080611fb290612e8e565b915050611adc565b5080611ffb576040517f08c379a0000000000000000000000000000000000000000000000000000000008152600401611ff290612be0565b60405180910390fd5b600080600160003373ffffffffffffffffffffffffffffffffffffffff1673ffffffffffffffffffffffffffffffffffffffff16815260200190815260200160002090506000818054905011612086576040517f08c379a000000000000000000000000000000000000000000000000000000000815260040161207d90612c20565b60405180910390fd5b60005b81805490508160ff16101561216b5785828260ff16815481106120d5577f4e487b7100000000000000000000000000000000000000000000000000000000600052603260045260246000fd5b9060005260206000209060060201600001541415612158576001828260ff168154811061212b577f4e487b7100000000000000000000000000000000000000000000000000000000600052603260045260246000fd5b906000526020600020906006020160050160146101000a81548160ff021916908315150217905550600192505b808061216390612e8e565b915050612089565b50816121ac576040517f08c379a00000000000000000000000000000000000000000000000000000000081526004016121a390612c80565b60405180910390fd5b5050505050565b6040518060e0016040528060008152602001600073ffffffffffffffffffffffffffffffffffffffff168152602001600081526020016000815260200160008152602001600073ffffffffffffffffffffffffffffffffffffffff1681526020016000151581525090565b8280548282559060005260206000209060060281019282156123885760005260206000209160060282015b82811115612387578282600082015481600001556001820160009054906101000a900473ffffffffffffffffffffffffffffffffffffffff168160010160006101000a81548173ffffffffffffffffffffffffffffffffffffffff021916908373ffffffffffffffffffffffffffffffffffffffff1602179055506002820154816002015560038201548160030155600482015481600401556005820160009054906101000a900473ffffffffffffffffffffffffffffffffffffffff168160050160006101000a81548173ffffffffffffffffffffffffffffffffffffffff021916908373ffffffffffffffffffffffffffffffffffffffff1602179055506005820160149054906101000a900460ff168160050160146101000a81548160ff021916908315150217905550505091600601919060060190612249565b5b5090506123959190612399565b5090565b5b8082111561242e576000808201600090556001820160006101000a81549073ffffffffffffffffffffffffffffffffffffffff02191690556002820160009055600382016000905560048201600090556005820160006101000a81549073ffffffffffffffffffffffffffffffffffffffff02191690556005820160146101000a81549060ff02191690555060060161239a565b5090565b60008135905061244181612ee7565b92915050565b60008135905061245681612efe565b92915050565b60008135905061246b81612f15565b92915050565b60006020828403121561248357600080fd5b600061249184828501612432565b91505092915050565b6000602082840312156124ac57600080fd5b60006124ba8482850161245c565b91505092915050565b600080604083850312156124d657600080fd5b60006124e48582860161245c565b92505060206124f585828601612447565b9150509250929050565b600061250b8383612926565b60e08301905092915050565b61252081612df0565b82525050565b61252f81612dde565b82525050565b61253e81612dde565b82525050565b600061254f82612d0f565b6125598185612d27565b935061256483612cff565b8060005b8381101561259557815161257c88826124ff565b975061258783612d1a565b925050600181019050612568565b5085935050505092915050565b6125ab81612e02565b82525050565b6125ba81612e02565b82525050565b60006125cd600983612d43565b91507f4e6f7420666f756e6400000000000000000000000000000000000000000000006000830152602082019050919050565b600061260d603283612d43565b91507f4d6178696d756d206e756d626572206f662077696c6c7320726561636865642060008301527f666f7220746869732072657472696576657200000000000000000000000000006020830152604082019050919050565b6000612673603b83612d43565b91507f496e6865726974616e6365206e6565647320746f20776169742036206d6f6e7460008301527f68732066726f6d206c617374206f776e657220616374697669747900000000006020830152604082019050919050565b60006126d9601483612d43565b91507f4661696c656420746f2073656e642045746865720000000000000000000000006000830152602082019050919050565b6000612719600f83612d43565b91507f57726f6e6720726563697069656e7400000000000000000000000000000000006000830152602082019050919050565b6000612759601983612d43565b91507f4f776e65722057696c6c206c697374206e6f7420666f756e64000000000000006000830152602082019050919050565b6000612799601383612d43565b91507f526563697069656e74206e6f7420666f756e64000000000000000000000000006000830152602082019050919050565b60006127d9601983612d43565b91507f5472616e736665722074696d65206e6f742072656163686564000000000000006000830152602082019050919050565b6000612819601383612d43565b91507f57696c6c206c697374206e6f7420666f756e64000000000000000000000000006000830152602082019050919050565b6000612859601f83612d43565b91507f4d6178696d756d206e756d626572206f662077696c6c732072656163686564006000830152602082019050919050565b6000612899601d83612d43565b91507f526563697069656e742057696c6c206c697374206e6f7420666f756e640000006000830152602082019050919050565b60006128d9600083612d38565b9150600082019050919050565b60006128f3600f83612d43565b91507f4f776e6572206e6f7420666f756e6400000000000000000000000000000000006000830152602082019050919050565b60e08201600082015161293c6000850182612a42565b50602082015161294f6020850182612526565b5060408201516129626040850182612a42565b5060608201516129756060850182612a42565b5060808201516129886080850182612a42565b5060a082015161299b60a0850182612517565b5060c08201516129ae60c08501826125a2565b50505050565b60e0820160008201516129ca6000850182612a42565b5060208201516129dd6020850182612526565b5060408201516129f06040850182612a42565b506060820151612a036060850182612a42565b506080820151612a166080850182612a42565b5060a0820151612a2960a0850182612517565b5060c0820151612a3c60c08501826125a2565b50505050565b612a4b81612e2e565b82525050565b612a5a81612e2e565b82525050565b6000612a6b826128cc565b9150819050919050565b6000604082019050612a8a6000830185612535565b612a976020830184612a51565b9392505050565b6000608082019050612ab36000830187612535565b612ac06020830186612a51565b612acd6040830185612a51565b612ada6060830184612a51565b95945050505050565b60006020820190508181036000830152612afd8184612544565b905092915050565b6000602082019050612b1a60008301846125b1565b92915050565b60006020820190508181036000830152612b39816125c0565b9050919050565b60006020820190508181036000830152612b5981612600565b9050919050565b60006020820190508181036000830152612b7981612666565b9050919050565b60006020820190508181036000830152612b99816126cc565b9050919050565b60006020820190508181036000830152612bb98161270c565b9050919050565b60006020820190508181036000830152612bd98161274c565b9050919050565b60006020820190508181036000830152612bf98161278c565b9050919050565b60006020820190508181036000830152612c19816127cc565b9050919050565b60006020820190508181036000830152612c398161280c565b9050919050565b60006020820190508181036000830152612c598161284c565b9050919050565b60006020820190508181036000830152612c798161288c565b9050919050565b60006020820190508181036000830152612c99816128e6565b9050919050565b600060e082019050612cb560008301846129b4565b92915050565b6000602082019050612cd06000830184612a51565b92915050565b6000604082019050612ceb6000830185612a51565b612cf86020830184612a51565b9392505050565b6000819050602082019050919050565b600081519050919050565b6000602082019050919050565b600082825260208201905092915050565b600081905092915050565b600082825260208201905092915050565b6000612d5f82612e2e565b9150612d6a83612e2e565b9250827fffffffffffffffffffffffffffffffffffffffffffffffffffffffffffffffff03821115612d9f57612d9e612eb8565b5b828201905092915050565b6000612db582612e2e565b9150612dc083612e2e565b925082821015612dd357612dd2612eb8565b5b828203905092915050565b6000612de982612e0e565b9050919050565b6000612dfb82612e0e565b9050919050565b60008115159050919050565b600073ffffffffffffffffffffffffffffffffffffffff82169050919050565b6000819050919050565b600060ff82169050919050565b6000612e5082612e2e565b91507fffffffffffffffffffffffffffffffffffffffffffffffffffffffffffffffff821415612e8357612e82612eb8565b5b600182019050919050565b6000612e9982612e38565b915060ff821415612ead57612eac612eb8565b5b600182019050919050565b7f4e487b7100000000000000000000000000000000000000000000000000000000600052601160045260246000fd5b612ef081612dde565b8114612efb57600080fd5b50565b612f0781612df0565b8114612f1257600080fd5b50565b612f1e81612e2e565b8114612f2957600080fd5b5056fea264697066735822122035c7b0f09a7fff42848e0e3b584f9836a9db412cd1eea29bea0d3aa24fec9ab464736f6c63430008000033",
  "immutableReferences": {},
  "source": "// SPDX-License-Identifier: GPL-3.0\r\n\r\npragma solidity >=0.8.0 <0.9.0;\r\n\r\n/**\r\n * @title SmartWill\r\n * @dev Time based resource transfers\r\n */\r\ncontract SmartWill {\r\n\r\n    event WillCreated(address owner, uint id);\r\n    event WillRefunded(address owner, uint id);\r\n    event WillActivityRegistered(uint id, uint blockTime);\r\n    event WillRedeemed(address recipient, uint id, uint blockTime, uint redemptionTime);\r\n    event BalanceChanged(address owner, uint balance);\r\n    event RedemptionError(uint blockTime, uint redemptionTime);\r\n\r\n    uint constant maxWillCount = 10;\r\n\r\n    struct Will {\r\n        uint id;\r\n        address owner;\r\n        uint ammount;\r\n        uint redemptionDate;\r\n        uint lastActivity;\r\n        address payable recipient;\r\n        bool redeemed;\r\n    }\r\n\r\n    uint currentId;\r\n\r\n    mapping(address => Will[])  willsByOwner;\r\n    mapping(address => Will[])  willsByRecipient;\r\n\r\n    constructor() {\r\n        currentId = 1;\r\n    }\r\n    \r\n    function createWill(uint redemptionDate, address payable recipient) external payable returns (uint){\r\n        Will[] storage wills = willsByOwner[msg.sender];\r\n        // Check if maxWillCount reached\r\n        require(wills.length < maxWillCount, \"Maximum number of wills reached\");\r\n        currentId++;\r\n        Will memory will = Will({\r\n            id: currentId,\r\n            owner: msg.sender,\r\n            ammount: msg.value,\r\n            redemptionDate: redemptionDate,\r\n            recipient: recipient,\r\n            lastActivity: 0,\r\n            redeemed: false\r\n        });\r\n        wills.push(will);\r\n        \r\n        Will[] storage willsByRecipientList = willsByRecipient[recipient];\r\n        require(willsByRecipientList.length < maxWillCount, \"Maximum number of wills reached for this retriever\");    \r\n        willsByRecipientList.push(will);\r\n        \r\n        emit WillCreated(msg.sender,currentId);\r\n\r\n        return currentId;\r\n    }\r\n\r\n    function getMaxWillCount() external pure returns (uint){\r\n        return maxWillCount;\r\n    }\r\n\r\n    /**\r\n     * @dev Get a will by id\r\n     * @return w will\r\n     */\r\n    function getWill(uint id) external view returns (Will memory w){\r\n        Will[] storage willsByOwnerList = willsByOwner[msg.sender];\r\n        for (uint8 index = 0; index < willsByOwnerList.length; index++) {\r\n            if(willsByOwnerList[index].id == id) {\r\n               return willsByOwnerList[index];\r\n            }\r\n        }\r\n        revert('Not found');\r\n    }\r\n    \r\n    /**\r\n     * @dev Get wills assigned to this owner address\r\n     * @return wills\r\n     */\r\n    function getWillsByOwner(address ownerAddress) public view returns (Will[] memory){\r\n        return willsByOwner[ownerAddress];\r\n    }\r\n\r\n    /**\r\n     * @dev Get wills assigned to this recipient address\r\n     * @return wills\r\n     */\r\n    function getWillsByRecipient(address recipientAddress) public view returns (Will[] memory){\r\n        return willsByRecipient[recipientAddress];\r\n    }\r\n\r\n    function redeemWill(uint id) external{\r\n        Will[] storage willsByRecipientList = willsByRecipient[msg.sender];\r\n        require(\r\n           willsByRecipientList.length > 0, \"Will list not found\"\r\n        );\r\n        bool recipientFound = false;\r\n        for (uint8 index = 0; index < willsByRecipientList.length; index++) {\r\n            if(willsByRecipientList[index].id == id) {\r\n                require(\r\n                    willsByRecipientList[index].recipient == msg.sender, \"Wrong recipient\"\r\n                );\r\n                require(\r\n                    willsByRecipientList[index].redemptionDate < block.timestamp, \"Transfer time not reached\"\r\n                );\r\n                require(\r\n                    willsByRecipientList[index].lastActivity < block.timestamp + 180 days, \"Inheritance needs to wait 6 months from last owner activity\"\r\n                );\r\n                (bool sent,) = willsByRecipientList[index].recipient.call{value: willsByRecipientList[index].ammount}(\"\");\r\n                require(sent, \"Failed to send Ether\");\r\n                willsByRecipientList[index].redeemed = true;\r\n                emit WillRedeemed(msg.sender,id, block.timestamp,willsByRecipientList[index].redemptionDate);\r\n                recipientFound = true;\r\n                break;\r\n            }\r\n        }\r\n        require(recipientFound, 'Recipient not found');\r\n        bool ownerFound = false;\r\n        Will[] storage willsByOwnerList = willsByOwner[msg.sender];\r\n        require(\r\n           willsByOwnerList.length > 0, \"Will list not found\"\r\n        );\r\n        for (uint8 index = 0; index < willsByOwnerList.length; index++) {\r\n            if(willsByOwnerList[index].id == id) {\r\n                willsByOwnerList[index].redeemed = true;\r\n                ownerFound = true;\r\n            }\r\n        }\r\n        require(ownerFound, 'Owner not found');\r\n    }\r\n\r\n    /**\r\n     * @dev Deletes a will and returns value to owner (minus gas costs)\r\n     */\r\n    function refundWill(uint id) public returns (bool){\r\n        Will[] storage willsByOwnerList = willsByOwner[msg.sender];\r\n        require(\r\n           willsByOwnerList.length > 0, \"Will list not found\"\r\n        );\r\n        Will memory will;\r\n        for (uint8 index = 0; index < willsByOwnerList.length; index++) {\r\n            if(willsByOwnerList[index].id == id) {\r\n               will = willsByOwnerList[index];\r\n               willsByOwnerList[index] = willsByOwnerList[willsByOwnerList.length-1];\r\n               willsByOwnerList.pop();\r\n               willsByOwner[msg.sender] = willsByOwnerList;\r\n               break;\r\n            }\r\n        }\r\n        if(will.id > 0){\r\n                Will[] storage willsByRecipientList = willsByRecipient[will.recipient];\r\n                for (uint8 index = 0; index < willsByRecipientList.length; index++) {\r\n                    if(willsByRecipientList[index].id == id) {\r\n                        will = willsByRecipientList[index];\r\n\r\n                        (bool sent,) = will.owner.call{value: will.ammount}(\"\");\r\n                        require(sent, \"Failed to send Ether\");\r\n                        \r\n                        willsByRecipientList[index] = willsByRecipientList[willsByRecipientList.length-1];\r\n                        willsByRecipientList.pop();\r\n                        willsByRecipient[will.recipient] = willsByRecipientList;\r\n                        emit WillRefunded(msg.sender,id);\r\n                        return true;\r\n                    }\r\n                }\r\n        }\r\n        return false;\r\n    }\r\n\r\n    function registerActivy(uint id) public {\r\n        uint blockTime = block.timestamp;\r\n        Will[] storage willsByOwnerList = willsByOwner[msg.sender];\r\n        require(\r\n           willsByOwnerList.length > 0, \"Owner Will list not found\"\r\n        );\r\n        bool ownerFound = false;\r\n        for (uint8 index = 0; index < willsByOwnerList.length; index++) {\r\n            if(willsByOwnerList[index].id == id) {\r\n               willsByOwnerList[index].lastActivity = blockTime;\r\n               ownerFound = true;\r\n               break;\r\n            }\r\n        }\r\n        require(ownerFound, 'Owner not found');\r\n        Will[] storage willsByRecipientList = willsByRecipient[msg.sender];\r\n        require(\r\n           willsByRecipientList.length > 0, \"Recipient Will list not found\"\r\n        );\r\n        bool recipientFound = false;\r\n        for (uint8 index = 0; index < willsByRecipientList.length; index++) {\r\n            if(willsByRecipientList[index].id == id) {\r\n               willsByRecipientList[index].lastActivity = blockTime;\r\n               recipientFound = true;\r\n               break;\r\n            }\r\n        }\r\n        require(recipientFound, 'Recipient not found');\r\n        emit WillActivityRegistered(id,blockTime);\r\n    }\r\n\r\n}",
  "sourcePath": "D:\\dev\\smart_will\\contracts\\SmartWill.sol",
  "compiler": {
    "name": "solc",
    "version": "0.8.0+commit.c7dfd78e.Emscripten.clang"
  },
  "schemaVersion": "3.4.3",
  "updatedAt": "2021-11-25T04:05:07.414Z",
  "networkType": "ethereum",
  "devdoc": {
    "details": "Time based resource transfers",
    "kind": "dev",
    "methods": {
      "getWill(uint256)": {
        "details": "Get a will by id",
        "returns": {
          "w": "will"
        }
      },
      "getWillsByOwner(address)": {
        "details": "Get wills assigned to this owner address",
        "returns": {
          "_0": "wills"
        }
      },
      "getWillsByRecipient(address)": {
        "details": "Get wills assigned to this recipient address",
        "returns": {
          "_0": "wills"
        }
      },
      "refundWill(uint256)": {
        "details": "Deletes a will and returns value to owner (minus gas costs)"
      }
    },
    "title": "SmartWill",
    "version": 1
  },
  "userdoc": {
    "kind": "user",
    "methods": {},
    "version": 1
  }
}