{
  "contractName": "SmartWill",
  "abi": [
    {
      "inputs": [],
      "stateMutability": "nonpayable",
      "type": "constructor"
    },
    {
      "inputs": [],
      "name": "initialBalance",
      "outputs": [
        {
          "internalType": "uint256",
          "name": "",
          "type": "uint256"
        }
      ],
      "stateMutability": "view",
      "type": "function"
    },
    {
      "inputs": [
        {
          "internalType": "address",
          "name": "",
          "type": "address"
        },
        {
          "internalType": "uint256",
          "name": "",
          "type": "uint256"
        }
      ],
      "name": "willsByOwner",
      "outputs": [
        {
          "internalType": "uint256",
          "name": "id",
          "type": "uint256"
        },
        {
          "internalType": "address",
          "name": "owner",
          "type": "address"
        },
        {
          "internalType": "uint256",
          "name": "ammount",
          "type": "uint256"
        },
        {
          "internalType": "uint256",
          "name": "unlockTime",
          "type": "uint256"
        },
        {
          "internalType": "uint256",
          "name": "lastActivity",
          "type": "uint256"
        },
        {
          "internalType": "address payable",
          "name": "recipient",
          "type": "address"
        }
      ],
      "stateMutability": "view",
      "type": "function"
    },
    {
      "inputs": [
        {
          "internalType": "address",
          "name": "",
          "type": "address"
        },
        {
          "internalType": "uint256",
          "name": "",
          "type": "uint256"
        }
      ],
      "name": "willsByRecipient",
      "outputs": [
        {
          "internalType": "uint256",
          "name": "id",
          "type": "uint256"
        },
        {
          "internalType": "address",
          "name": "owner",
          "type": "address"
        },
        {
          "internalType": "uint256",
          "name": "ammount",
          "type": "uint256"
        },
        {
          "internalType": "uint256",
          "name": "unlockTime",
          "type": "uint256"
        },
        {
          "internalType": "uint256",
          "name": "lastActivity",
          "type": "uint256"
        },
        {
          "internalType": "address payable",
          "name": "recipient",
          "type": "address"
        }
      ],
      "stateMutability": "view",
      "type": "function"
    },
    {
      "inputs": [
        {
          "internalType": "uint256",
          "name": "unlockTime",
          "type": "uint256"
        },
        {
          "internalType": "address payable",
          "name": "recipient",
          "type": "address"
        }
      ],
      "name": "createWill",
      "outputs": [
        {
          "internalType": "uint256",
          "name": "",
          "type": "uint256"
        }
      ],
      "stateMutability": "payable",
      "type": "function"
    },
    {
      "inputs": [],
      "name": "getMaxWillCount",
      "outputs": [
        {
          "internalType": "uint256",
          "name": "",
          "type": "uint256"
        }
      ],
      "stateMutability": "pure",
      "type": "function"
    },
    {
      "inputs": [
        {
          "internalType": "uint256",
          "name": "id",
          "type": "uint256"
        }
      ],
      "name": "getWill",
      "outputs": [
        {
          "components": [
            {
              "internalType": "uint256",
              "name": "id",
              "type": "uint256"
            },
            {
              "internalType": "address",
              "name": "owner",
              "type": "address"
            },
            {
              "internalType": "uint256",
              "name": "ammount",
              "type": "uint256"
            },
            {
              "internalType": "uint256",
              "name": "unlockTime",
              "type": "uint256"
            },
            {
              "internalType": "uint256",
              "name": "lastActivity",
              "type": "uint256"
            },
            {
              "internalType": "address payable",
              "name": "recipient",
              "type": "address"
            }
          ],
          "internalType": "struct SmartWill.Will",
          "name": "w",
          "type": "tuple"
        }
      ],
      "stateMutability": "view",
      "type": "function"
    },
    {
      "inputs": [
        {
          "internalType": "uint256",
          "name": "id",
          "type": "uint256"
        }
      ],
      "name": "retrieveValueByWillId",
      "outputs": [],
      "stateMutability": "nonpayable",
      "type": "function"
    },
    {
      "inputs": [
        {
          "internalType": "uint256",
          "name": "id",
          "type": "uint256"
        }
      ],
      "name": "deleteWill",
      "outputs": [
        {
          "internalType": "bool",
          "name": "",
          "type": "bool"
        }
      ],
      "stateMutability": "nonpayable",
      "type": "function"
    },
    {
      "inputs": [],
      "name": "getWillsByOwner",
      "outputs": [
        {
          "components": [
            {
              "internalType": "uint256",
              "name": "id",
              "type": "uint256"
            },
            {
              "internalType": "address",
              "name": "owner",
              "type": "address"
            },
            {
              "internalType": "uint256",
              "name": "ammount",
              "type": "uint256"
            },
            {
              "internalType": "uint256",
              "name": "unlockTime",
              "type": "uint256"
            },
            {
              "internalType": "uint256",
              "name": "lastActivity",
              "type": "uint256"
            },
            {
              "internalType": "address payable",
              "name": "recipient",
              "type": "address"
            }
          ],
          "internalType": "struct SmartWill.Will[]",
          "name": "",
          "type": "tuple[]"
        }
      ],
      "stateMutability": "view",
      "type": "function"
    },
    {
      "inputs": [],
      "name": "getWillsByRecipient",
      "outputs": [
        {
          "components": [
            {
              "internalType": "uint256",
              "name": "id",
              "type": "uint256"
            },
            {
              "internalType": "address",
              "name": "owner",
              "type": "address"
            },
            {
              "internalType": "uint256",
              "name": "ammount",
              "type": "uint256"
            },
            {
              "internalType": "uint256",
              "name": "unlockTime",
              "type": "uint256"
            },
            {
              "internalType": "uint256",
              "name": "lastActivity",
              "type": "uint256"
            },
            {
              "internalType": "address payable",
              "name": "recipient",
              "type": "address"
            }
          ],
          "internalType": "struct SmartWill.Will[]",
          "name": "",
          "type": "tuple[]"
        }
      ],
      "stateMutability": "view",
      "type": "function"
    }
  ],
  "bytecode": "0x6080604052670de0b6b3a764000060005534801561001c57600080fd5b5060018081905550612518806100336000396000f3fe6080604052600436106100915760003560e01c806346242d631161005957806346242d63146101a65780639620e579146101e8578063a29c581714610213578063bd2662cd14610243578063cf8058631461026e57610091565b806318369a2a14610096578063227a32c0146100c157806327e26594146100fe5780634192bbb014610140578063423c53a11461017d575b600080fd5b3480156100a257600080fd5b506100ab610299565b6040516100b8919061229a565b60405180910390f35b3480156100cd57600080fd5b506100e860048036038101906100e39190611d42565b61029f565b6040516100f59190612184565b60405180910390f35b34801561010a57600080fd5b5061012560048036038101906101209190611d06565b610c40565b604051610137969594939291906122b5565b60405180910390f35b34801561014c57600080fd5b5061016760048036038101906101629190611d42565b610cd9565b604051610174919061227f565b60405180910390f35b34801561018957600080fd5b506101a4600480360381019061019f9190611d42565b610f4d565b005b3480156101b257600080fd5b506101cd60048036038101906101c89190611d06565b611311565b6040516101df969594939291906122b5565b60405180910390f35b3480156101f457600080fd5b506101fd6113aa565b60405161020a919061229a565b60405180910390f35b61022d60048036038101906102289190611d6b565b6113b3565b60405161023a919061229a565b60405180910390f35b34801561024f57600080fd5b506102586117b2565b6040516102659190612162565b60405180910390f35b34801561027a57600080fd5b50610283611922565b6040516102909190612162565b60405180910390f35b60005481565b600080600260003373ffffffffffffffffffffffffffffffffffffffff1673ffffffffffffffffffffffffffffffffffffffff1681526020019081526020016000209050600081805490501161032a576040517f08c379a0000000000000000000000000000000000000000000000000000000008152600401610321906121ff565b60405180910390fd5b610332611a92565b60005b82805490508160ff16101561077f5784838260ff1681548110610381577f4e487b7100000000000000000000000000000000000000000000000000000000600052603260045260246000fd5b906000526020600020906006020160000154141561076c57828160ff16815481106103d5577f4e487b7100000000000000000000000000000000000000000000000000000000600052603260045260246000fd5b90600052602060002090600602016040518060c0016040529081600082015481526020016001820160009054906101000a900473ffffffffffffffffffffffffffffffffffffffff1673ffffffffffffffffffffffffffffffffffffffff1673ffffffffffffffffffffffffffffffffffffffff1681526020016002820154815260200160038201548152602001600482015481526020016005820160009054906101000a900473ffffffffffffffffffffffffffffffffffffffff1673ffffffffffffffffffffffffffffffffffffffff1673ffffffffffffffffffffffffffffffffffffffff1681525050915082600184805490506104d69190612360565b8154811061050d577f4e487b7100000000000000000000000000000000000000000000000000000000600052603260045260246000fd5b9060005260206000209060060201838260ff1681548110610557577f4e487b7100000000000000000000000000000000000000000000000000000000600052603260045260246000fd5b9060005260206000209060060201600082015481600001556001820160009054906101000a900473ffffffffffffffffffffffffffffffffffffffff168160010160006101000a81548173ffffffffffffffffffffffffffffffffffffffff021916908373ffffffffffffffffffffffffffffffffffffffff1602179055506002820154816002015560038201548160030155600482015481600401556005820160009054906101000a900473ffffffffffffffffffffffffffffffffffffffff168160050160006101000a81548173ffffffffffffffffffffffffffffffffffffffff021916908373ffffffffffffffffffffffffffffffffffffffff16021790555090505082805480610695577f4e487b7100000000000000000000000000000000000000000000000000000000600052603160045260246000fd5b60019003818190600052602060002090600602016000808201600090556001820160006101000a81549073ffffffffffffffffffffffffffffffffffffffff02191690556002820160009055600382016000905560048201600090556005820160006101000a81549073ffffffffffffffffffffffffffffffffffffffff02191690555050905582600260003373ffffffffffffffffffffffffffffffffffffffff1673ffffffffffffffffffffffffffffffffffffffff16815260200190815260200160002090805461076a929190611af4565b505b808061077790612444565b915050610335565b50600081600001511115610c34576000600360008360a0015173ffffffffffffffffffffffffffffffffffffffff1673ffffffffffffffffffffffffffffffffffffffff168152602001908152602001600020905060005b81805490508160ff161015610c315785828260ff1681548110610823577f4e487b7100000000000000000000000000000000000000000000000000000000600052603260045260246000fd5b9060005260206000209060060201600001541415610c1e57818160ff1681548110610877577f4e487b7100000000000000000000000000000000000000000000000000000000600052603260045260246000fd5b90600052602060002090600602016040518060c0016040529081600082015481526020016001820160009054906101000a900473ffffffffffffffffffffffffffffffffffffffff1673ffffffffffffffffffffffffffffffffffffffff1673ffffffffffffffffffffffffffffffffffffffff1681526020016002820154815260200160038201548152602001600482015481526020016005820160009054906101000a900473ffffffffffffffffffffffffffffffffffffffff1673ffffffffffffffffffffffffffffffffffffffff1673ffffffffffffffffffffffffffffffffffffffff1681525050925081600183805490506109789190612360565b815481106109af577f4e487b7100000000000000000000000000000000000000000000000000000000600052603260045260246000fd5b9060005260206000209060060201828260ff16815481106109f9577f4e487b7100000000000000000000000000000000000000000000000000000000600052603260045260246000fd5b9060005260206000209060060201600082015481600001556001820160009054906101000a900473ffffffffffffffffffffffffffffffffffffffff168160010160006101000a81548173ffffffffffffffffffffffffffffffffffffffff021916908373ffffffffffffffffffffffffffffffffffffffff1602179055506002820154816002015560038201548160030155600482015481600401556005820160009054906101000a900473ffffffffffffffffffffffffffffffffffffffff168160050160006101000a81548173ffffffffffffffffffffffffffffffffffffffff021916908373ffffffffffffffffffffffffffffffffffffffff16021790555090505081805480610b37577f4e487b7100000000000000000000000000000000000000000000000000000000600052603160045260246000fd5b60019003818190600052602060002090600602016000808201600090556001820160006101000a81549073ffffffffffffffffffffffffffffffffffffffff02191690556002820160009055600382016000905560048201600090556005820160006101000a81549073ffffffffffffffffffffffffffffffffffffffff02191690555050905581600360008560a0015173ffffffffffffffffffffffffffffffffffffffff1673ffffffffffffffffffffffffffffffffffffffff168152602001908152602001600020908054610c10929190611af4565b506001945050505050610c3b565b8080610c2990612444565b9150506107d7565b50505b6000925050505b919050565b60036020528160005260406000208181548110610c5c57600080fd5b9060005260206000209060060201600091509150508060000154908060010160009054906101000a900473ffffffffffffffffffffffffffffffffffffffff16908060020154908060030154908060040154908060050160009054906101000a900473ffffffffffffffffffffffffffffffffffffffff16905086565b610ce1611a92565b6000600260003373ffffffffffffffffffffffffffffffffffffffff1673ffffffffffffffffffffffffffffffffffffffff168152602001908152602001600020805480602002602001604051908101604052809291908181526020016000905b82821015610e4857838290600052602060002090600602016040518060c0016040529081600082015481526020016001820160009054906101000a900473ffffffffffffffffffffffffffffffffffffffff1673ffffffffffffffffffffffffffffffffffffffff1673ffffffffffffffffffffffffffffffffffffffff1681526020016002820154815260200160038201548152602001600482015481526020016005820160009054906101000a900473ffffffffffffffffffffffffffffffffffffffff1673ffffffffffffffffffffffffffffffffffffffff1673ffffffffffffffffffffffffffffffffffffffff168152505081526020019060010190610d42565b50505050905060005b81518160ff161015610f0c5783828260ff1681518110610e9a577f4e487b7100000000000000000000000000000000000000000000000000000000600052603260045260246000fd5b6020026020010151600001511415610ef957818160ff1681518110610ee8577f4e487b7100000000000000000000000000000000000000000000000000000000600052603260045260246000fd5b602002602001015192505050610f48565b8080610f0490612444565b915050610e51565b506040517f08c379a0000000000000000000000000000000000000000000000000000000008152600401610f3f9061219f565b60405180910390fd5b919050565b6000600360003373ffffffffffffffffffffffffffffffffffffffff1673ffffffffffffffffffffffffffffffffffffffff168152602001908152602001600020805480602002602001604051908101604052809291908181526020016000905b828210156110b457838290600052602060002090600602016040518060c0016040529081600082015481526020016001820160009054906101000a900473ffffffffffffffffffffffffffffffffffffffff1673ffffffffffffffffffffffffffffffffffffffff1673ffffffffffffffffffffffffffffffffffffffff1681526020016002820154815260200160038201548152602001600482015481526020016005820160009054906101000a900473ffffffffffffffffffffffffffffffffffffffff1673ffffffffffffffffffffffffffffffffffffffff1673ffffffffffffffffffffffffffffffffffffffff168152505081526020019060010190610fae565b50505050905060008151116110fe576040517f08c379a00000000000000000000000000000000000000000000000000000000081526004016110f5906121ff565b60405180910390fd5b611106611a92565b60005b82518160ff1610156111be5783838260ff1681518110611152577f4e487b7100000000000000000000000000000000000000000000000000000000600052603260045260246000fd5b60200260200101516000015114156111ab57828160ff16815181106111a0577f4e487b7100000000000000000000000000000000000000000000000000000000600052603260045260246000fd5b602002602001015191505b80806111b690612444565b915050611109565b5082816000015114611205576040517f08c379a00000000000000000000000000000000000000000000000000000000081526004016111fc9061223f565b60405180910390fd5b3373ffffffffffffffffffffffffffffffffffffffff168160a0015173ffffffffffffffffffffffffffffffffffffffff1614611277576040517f08c379a000000000000000000000000000000000000000000000000000000000815260040161126e906121df565b60405180910390fd5b806060015142116112bd576040517f08c379a00000000000000000000000000000000000000000000000000000000081526004016112b49061225f565b60405180910390fd5b8060a0015173ffffffffffffffffffffffffffffffffffffffff166108fc82604001519081150290604051600060405180830381858888f1935050505015801561130b573d6000803e3d6000fd5b50505050565b6002602052816000526040600020818154811061132d57600080fd5b9060005260206000209060060201600091509150508060000154908060010160009054906101000a900473ffffffffffffffffffffffffffffffffffffffff16908060020154908060030154908060040154908060050160009054906101000a900473ffffffffffffffffffffffffffffffffffffffff16905086565b6000600a905090565b600080600260003373ffffffffffffffffffffffffffffffffffffffff1673ffffffffffffffffffffffffffffffffffffffff1681526020019081526020016000209050600a81805490501061143e576040517f08c379a00000000000000000000000000000000000000000000000000000000081526004016114359061221f565b60405180910390fd5b60016000815480929190611451906123fb565b919050555060006040518060c0016040528060015481526020013373ffffffffffffffffffffffffffffffffffffffff168152602001348152602001868152602001600081526020018573ffffffffffffffffffffffffffffffffffffffff168152509050818190806001815401808255809150506001900390600052602060002090600602016000909190919091506000820151816000015560208201518160010160006101000a81548173ffffffffffffffffffffffffffffffffffffffff021916908373ffffffffffffffffffffffffffffffffffffffff16021790555060408201518160020155606082015181600301556080820151816004015560a08201518160050160006101000a81548173ffffffffffffffffffffffffffffffffffffffff021916908373ffffffffffffffffffffffffffffffffffffffff160217905550505081600260003373ffffffffffffffffffffffffffffffffffffffff1673ffffffffffffffffffffffffffffffffffffffff1681526020019081526020016000209080546115e7929190611af4565b506000600360008673ffffffffffffffffffffffffffffffffffffffff1673ffffffffffffffffffffffffffffffffffffffff1681526020019081526020016000209050600a818054905010611672576040517f08c379a0000000000000000000000000000000000000000000000000000000008152600401611669906121bf565b60405180910390fd5b808290806001815401808255809150506001900390600052602060002090600602016000909190919091506000820151816000015560208201518160010160006101000a81548173ffffffffffffffffffffffffffffffffffffffff021916908373ffffffffffffffffffffffffffffffffffffffff16021790555060408201518160020155606082015181600301556080820151816004015560a08201518160050160006101000a81548173ffffffffffffffffffffffffffffffffffffffff021916908373ffffffffffffffffffffffffffffffffffffffff160217905550505080600360008773ffffffffffffffffffffffffffffffffffffffff1673ffffffffffffffffffffffffffffffffffffffff1681526020019081526020016000209080546117a3929190611af4565b50600154935050505092915050565b6060600360003373ffffffffffffffffffffffffffffffffffffffff1673ffffffffffffffffffffffffffffffffffffffff168152602001908152602001600020805480602002602001604051908101604052809291908181526020016000905b8282101561191957838290600052602060002090600602016040518060c0016040529081600082015481526020016001820160009054906101000a900473ffffffffffffffffffffffffffffffffffffffff1673ffffffffffffffffffffffffffffffffffffffff1673ffffffffffffffffffffffffffffffffffffffff1681526020016002820154815260200160038201548152602001600482015481526020016005820160009054906101000a900473ffffffffffffffffffffffffffffffffffffffff1673ffffffffffffffffffffffffffffffffffffffff1673ffffffffffffffffffffffffffffffffffffffff168152505081526020019060010190611813565b50505050905090565b6060600260003373ffffffffffffffffffffffffffffffffffffffff1673ffffffffffffffffffffffffffffffffffffffff168152602001908152602001600020805480602002602001604051908101604052809291908181526020016000905b82821015611a8957838290600052602060002090600602016040518060c0016040529081600082015481526020016001820160009054906101000a900473ffffffffffffffffffffffffffffffffffffffff1673ffffffffffffffffffffffffffffffffffffffff1673ffffffffffffffffffffffffffffffffffffffff1681526020016002820154815260200160038201548152602001600482015481526020016005820160009054906101000a900473ffffffffffffffffffffffffffffffffffffffff1673ffffffffffffffffffffffffffffffffffffffff1673ffffffffffffffffffffffffffffffffffffffff168152505081526020019060010190611983565b50505050905090565b6040518060c0016040528060008152602001600073ffffffffffffffffffffffffffffffffffffffff168152602001600081526020016000815260200160008152602001600073ffffffffffffffffffffffffffffffffffffffff1681525090565b828054828255906000526020600020906006028101928215611c315760005260206000209160060282015b82811115611c30578282600082015481600001556001820160009054906101000a900473ffffffffffffffffffffffffffffffffffffffff168160010160006101000a81548173ffffffffffffffffffffffffffffffffffffffff021916908373ffffffffffffffffffffffffffffffffffffffff1602179055506002820154816002015560038201548160030155600482015481600401556005820160009054906101000a900473ffffffffffffffffffffffffffffffffffffffff168160050160006101000a81548173ffffffffffffffffffffffffffffffffffffffff021916908373ffffffffffffffffffffffffffffffffffffffff160217905550505091600601919060060190611b1f565b5b509050611c3e9190611c42565b5090565b5b80821115611cc3576000808201600090556001820160006101000a81549073ffffffffffffffffffffffffffffffffffffffff02191690556002820160009055600382016000905560048201600090556005820160006101000a81549073ffffffffffffffffffffffffffffffffffffffff021916905550600601611c43565b5090565b600081359050611cd68161249d565b92915050565b600081359050611ceb816124b4565b92915050565b600081359050611d00816124cb565b92915050565b60008060408385031215611d1957600080fd5b6000611d2785828601611cc7565b9250506020611d3885828601611cf1565b9150509250929050565b600060208284031215611d5457600080fd5b6000611d6284828501611cf1565b91505092915050565b60008060408385031215611d7e57600080fd5b6000611d8c85828601611cf1565b9250506020611d9d85828601611cdc565b9150509250929050565b6000611db3838361204e565b60c08301905092915050565b611dc8816123a6565b82525050565b611dd7816123a6565b82525050565b611de681612394565b82525050565b611df581612394565b82525050565b6000611e0682612326565b611e10818561233e565b9350611e1b83612316565b8060005b83811015611e4c578151611e338882611da7565b9750611e3e83612331565b925050600181019050611e1f565b5085935050505092915050565b611e62816123b8565b82525050565b6000611e7560098361234f565b91507f4e6f7420666f756e6400000000000000000000000000000000000000000000006000830152602082019050919050565b6000611eb560328361234f565b91507f4d6178696d756d206e756d626572206f662077696c6c7320726561636865642060008301527f666f7220746869732072657472696576657200000000000000000000000000006020830152604082019050919050565b6000611f1b60118361234f565b91507f4e6f742074686520726563697069656e740000000000000000000000000000006000830152602082019050919050565b6000611f5b60138361234f565b91507f57696c6c206c697374206e6f7420666f756e64000000000000000000000000006000830152602082019050919050565b6000611f9b601f8361234f565b91507f4d6178696d756d206e756d626572206f662077696c6c732072656163686564006000830152602082019050919050565b6000611fdb600e8361234f565b91507f57696c6c206e6f7420666f756e640000000000000000000000000000000000006000830152602082019050919050565b600061201b60178361234f565b91507f556e6c6f636b2074696d65206e6f7420726561636865640000000000000000006000830152602082019050919050565b60c0820160008201516120646000850182612144565b5060208201516120776020850182611ddd565b50604082015161208a6040850182612144565b50606082015161209d6060850182612144565b5060808201516120b06080850182612144565b5060a08201516120c360a0850182611dbf565b50505050565b60c0820160008201516120df6000850182612144565b5060208201516120f26020850182611ddd565b5060408201516121056040850182612144565b5060608201516121186060850182612144565b50608082015161212b6080850182612144565b5060a082015161213e60a0850182611dbf565b50505050565b61214d816123e4565b82525050565b61215c816123e4565b82525050565b6000602082019050818103600083015261217c8184611dfb565b905092915050565b60006020820190506121996000830184611e59565b92915050565b600060208201905081810360008301526121b881611e68565b9050919050565b600060208201905081810360008301526121d881611ea8565b9050919050565b600060208201905081810360008301526121f881611f0e565b9050919050565b6000602082019050818103600083015261221881611f4e565b9050919050565b6000602082019050818103600083015261223881611f8e565b9050919050565b6000602082019050818103600083015261225881611fce565b9050919050565b600060208201905081810360008301526122788161200e565b9050919050565b600060c08201905061229460008301846120c9565b92915050565b60006020820190506122af6000830184612153565b92915050565b600060c0820190506122ca6000830189612153565b6122d76020830188611dec565b6122e46040830187612153565b6122f16060830186612153565b6122fe6080830185612153565b61230b60a0830184611dce565b979650505050505050565b6000819050602082019050919050565b600081519050919050565b6000602082019050919050565b600082825260208201905092915050565b600082825260208201905092915050565b600061236b826123e4565b9150612376836123e4565b9250828210156123895761238861246e565b5b828203905092915050565b600061239f826123c4565b9050919050565b60006123b1826123c4565b9050919050565b60008115159050919050565b600073ffffffffffffffffffffffffffffffffffffffff82169050919050565b6000819050919050565b600060ff82169050919050565b6000612406826123e4565b91507fffffffffffffffffffffffffffffffffffffffffffffffffffffffffffffffff8214156124395761243861246e565b5b600182019050919050565b600061244f826123ee565b915060ff8214156124635761246261246e565b5b600182019050919050565b7f4e487b7100000000000000000000000000000000000000000000000000000000600052601160045260246000fd5b6124a681612394565b81146124b157600080fd5b50565b6124bd816123a6565b81146124c857600080fd5b50565b6124d4816123e4565b81146124df57600080fd5b5056fea2646970667358221220fafa73a6053229cef3d25e8c0de654780cc1576c7610b3ad1efe30c1fba3712b64736f6c63430008000033",
  "immutableReferences": {},
  "source": "// SPDX-License-Identifier: GPL-3.0\r\n\r\npragma solidity >=0.8.0 <0.9.0;\r\n\r\n/**\r\n * @title SmartWill\r\n * @dev Time based resource transfers\r\n */\r\ncontract SmartWill {\r\n\r\n    uint constant maxWillCount = 10;\r\n\r\n    // Truffle will send the TestContract one Ether after deploying the contract.\r\n    uint public initialBalance = 1 ether;\r\n\r\n    struct Will {\r\n        uint id;\r\n        address owner;\r\n        uint ammount;\r\n        uint unlockTime;\r\n        uint lastActivity;\r\n        address payable recipient;\r\n    }\r\n\r\n    uint currentId;\r\n\r\n    mapping(address => Will[]) public willsByOwner;\r\n    mapping(address => Will[]) public willsByRecipient;\r\n\r\n    constructor() {\r\n        currentId = 1;\r\n    }\r\n\r\n    function createWill(uint unlockTime, address payable recipient) external payable returns (uint){\r\n        Will[] storage wills = willsByOwner[msg.sender];\r\n        // Check if maxWillCount reached\r\n        require(wills.length < maxWillCount, \"Maximum number of wills reached\");\r\n        currentId++;\r\n        Will memory will = Will({\r\n            id: currentId,\r\n            owner: msg.sender,\r\n            ammount: msg.value,\r\n            unlockTime: unlockTime,\r\n            recipient: recipient,\r\n            lastActivity: 0\r\n        });\r\n        wills.push(will);\r\n        willsByOwner[msg.sender] = wills;\r\n\r\n        Will[] storage willsByRecipientList = willsByRecipient[recipient];\r\n        require(willsByRecipientList.length < maxWillCount, \"Maximum number of wills reached for this retriever\");    \r\n        willsByRecipientList.push(will);\r\n        willsByRecipient[recipient] = willsByRecipientList;\r\n\r\n        return currentId;\r\n    }\r\n\r\n    function getMaxWillCount() external pure returns (uint){\r\n        return maxWillCount;\r\n    }\r\n\r\n    /**\r\n     * @dev Get a will by id\r\n     * @return w will\r\n     */\r\n    function getWill(uint id) external view returns (Will memory w){\r\n        Will[] memory willsByOwnerList = willsByOwner[msg.sender];\r\n        for (uint8 index = 0; index < willsByOwnerList.length; index++) {\r\n            if(willsByOwnerList[index].id == id) {\r\n               return willsByOwnerList[index];\r\n            }\r\n        }\r\n        revert('Not found');\r\n    }\r\n\r\n    /**\r\n     * @dev Retrieve will value\r\n     */\r\n    function retrieveValueByWillId(uint id) external{\r\n        Will[] memory wills = willsByRecipient[msg.sender];\r\n        require(\r\n           wills.length > 0, \"Will list not found\"\r\n        );\r\n        Will memory will;\r\n        for (uint8 index = 0; index < wills.length; index++) {\r\n            if(wills[index].id == id) {\r\n                will = wills[index];\r\n            }\r\n        }\r\n        require(\r\n            will.id == id,\"Will not found\"\r\n        );\r\n        require(\r\n            will.recipient == msg.sender,\"Not the recipient\"\r\n        );\r\n        require(\r\n            block.timestamp > will.unlockTime,\"Unlock time not reached\"\r\n        );\r\n        //emit VaultValueRetrieved(vault.owner,id,msg.sender);\r\n        will.recipient.transfer(will.ammount);\r\n    }\r\n\r\n    /**\r\n     * @dev Deletes a will\r\n     */\r\n    function deleteWill(uint id) public returns (bool){\r\n        Will[] storage willsByOwnerList = willsByOwner[msg.sender];\r\n        require(\r\n           willsByOwnerList.length > 0, \"Will list not found\"\r\n        );\r\n        Will memory will;\r\n        for (uint8 index = 0; index < willsByOwnerList.length; index++) {\r\n            if(willsByOwnerList[index].id == id) {\r\n               will = willsByOwnerList[index];\r\n               willsByOwnerList[index] = willsByOwnerList[willsByOwnerList.length-1];\r\n               willsByOwnerList.pop();\r\n               willsByOwner[msg.sender] = willsByOwnerList;\r\n            }\r\n        }\r\n        if(will.id > 0){\r\n                Will[] storage willsByRecipientList = willsByRecipient[will.recipient];\r\n                for (uint8 index = 0; index < willsByRecipientList.length; index++) {\r\n                    if(willsByRecipientList[index].id == id) {\r\n                        will = willsByRecipientList[index];\r\n                        willsByRecipientList[index] = willsByRecipientList[willsByRecipientList.length-1];\r\n                        willsByRecipientList.pop();\r\n                        willsByRecipient[will.recipient] = willsByRecipientList;\r\n                        //emit VaultDeleted(msg.sender,id);\r\n                        return true;\r\n                    }\r\n                }\r\n        }\r\n        return false;\r\n    }\r\n\r\n    /**\r\n     * @dev Get wills assigned to this owner address\r\n     * @return wills\r\n     */\r\n    function getWillsByOwner() public view returns (Will[] memory){\r\n        return willsByOwner[msg.sender];\r\n    }\r\n\r\n    /**\r\n     * @dev Get wills assigned to this recipient address\r\n     * @return wills\r\n     */\r\n    function getWillsByRecipient() public view returns (Will[] memory){\r\n        return willsByRecipient[msg.sender];\r\n    }\r\n\r\n}",
  "sourcePath": "D:\\dev\\smart_will\\contracts\\SmartWill.sol",
  "compiler": {
    "name": "solc",
    "version": "0.8.0+commit.c7dfd78e.Emscripten.clang"
  },
  "schemaVersion": "3.4.3",
  "updatedAt": "2021-10-27T04:54:41.564Z",
  "devdoc": {
    "details": "Time based resource transfers",
    "kind": "dev",
    "methods": {
      "deleteWill(uint256)": {
        "details": "Deletes a will"
      },
      "getWill(uint256)": {
        "details": "Get a will by id",
        "returns": {
          "w": "will"
        }
      },
      "getWillsByOwner()": {
        "details": "Get wills assigned to this owner address",
        "returns": {
          "_0": "wills"
        }
      },
      "getWillsByRecipient()": {
        "details": "Get wills assigned to this recipient address",
        "returns": {
          "_0": "wills"
        }
      },
      "retrieveValueByWillId(uint256)": {
        "details": "Retrieve will value"
      }
    },
    "title": "SmartWill",
    "version": 1
  },
  "userdoc": {
    "kind": "user",
    "methods": {},
    "version": 1
  }
}