{
  "contractName": "SmartWill",
  "abi": [
    {
      "inputs": [],
      "stateMutability": "nonpayable",
      "type": "constructor"
    },
    {
      "anonymous": false,
      "inputs": [
        {
          "indexed": false,
          "internalType": "address",
          "name": "owner",
          "type": "address"
        },
        {
          "indexed": false,
          "internalType": "uint256",
          "name": "balance",
          "type": "uint256"
        }
      ],
      "name": "BalanceChanged",
      "type": "event"
    },
    {
      "anonymous": false,
      "inputs": [
        {
          "indexed": false,
          "internalType": "uint256",
          "name": "blockTime",
          "type": "uint256"
        },
        {
          "indexed": false,
          "internalType": "uint256",
          "name": "redemptionTime",
          "type": "uint256"
        }
      ],
      "name": "RedemptionError",
      "type": "event"
    },
    {
      "anonymous": false,
      "inputs": [
        {
          "indexed": false,
          "internalType": "uint256",
          "name": "id",
          "type": "uint256"
        },
        {
          "indexed": false,
          "internalType": "uint256",
          "name": "blockTime",
          "type": "uint256"
        }
      ],
      "name": "WillActivityRegistered",
      "type": "event"
    },
    {
      "anonymous": false,
      "inputs": [
        {
          "indexed": false,
          "internalType": "address",
          "name": "owner",
          "type": "address"
        },
        {
          "indexed": false,
          "internalType": "uint256",
          "name": "id",
          "type": "uint256"
        }
      ],
      "name": "WillCreated",
      "type": "event"
    },
    {
      "anonymous": false,
      "inputs": [
        {
          "indexed": false,
          "internalType": "address",
          "name": "recipient",
          "type": "address"
        },
        {
          "indexed": false,
          "internalType": "uint256",
          "name": "id",
          "type": "uint256"
        },
        {
          "indexed": false,
          "internalType": "uint256",
          "name": "blockTime",
          "type": "uint256"
        },
        {
          "indexed": false,
          "internalType": "uint256",
          "name": "redemptionTime",
          "type": "uint256"
        }
      ],
      "name": "WillRedeemed",
      "type": "event"
    },
    {
      "anonymous": false,
      "inputs": [
        {
          "indexed": false,
          "internalType": "address",
          "name": "owner",
          "type": "address"
        },
        {
          "indexed": false,
          "internalType": "uint256",
          "name": "id",
          "type": "uint256"
        }
      ],
      "name": "WillRefunded",
      "type": "event"
    },
    {
      "inputs": [
        {
          "internalType": "uint256",
          "name": "redemptionDate",
          "type": "uint256"
        },
        {
          "internalType": "address payable",
          "name": "recipient",
          "type": "address"
        }
      ],
      "name": "createWill",
      "outputs": [
        {
          "internalType": "uint256",
          "name": "",
          "type": "uint256"
        }
      ],
      "stateMutability": "payable",
      "type": "function"
    },
    {
      "inputs": [],
      "name": "getMaxWillCount",
      "outputs": [
        {
          "internalType": "uint256",
          "name": "",
          "type": "uint256"
        }
      ],
      "stateMutability": "pure",
      "type": "function"
    },
    {
      "inputs": [
        {
          "internalType": "uint256",
          "name": "id",
          "type": "uint256"
        }
      ],
      "name": "getWill",
      "outputs": [
        {
          "components": [
            {
              "internalType": "uint256",
              "name": "id",
              "type": "uint256"
            },
            {
              "internalType": "address",
              "name": "owner",
              "type": "address"
            },
            {
              "internalType": "uint256",
              "name": "ammount",
              "type": "uint256"
            },
            {
              "internalType": "uint256",
              "name": "redemptionDate",
              "type": "uint256"
            },
            {
              "internalType": "uint256",
              "name": "lastActivity",
              "type": "uint256"
            },
            {
              "internalType": "address payable",
              "name": "recipient",
              "type": "address"
            },
            {
              "internalType": "bool",
              "name": "redeemed",
              "type": "bool"
            },
            {
              "internalType": "bool",
              "name": "refunded",
              "type": "bool"
            }
          ],
          "internalType": "struct SmartWill.Will",
          "name": "w",
          "type": "tuple"
        }
      ],
      "stateMutability": "view",
      "type": "function"
    },
    {
      "inputs": [
        {
          "internalType": "address",
          "name": "ownerAddress",
          "type": "address"
        }
      ],
      "name": "getWillsByOwner",
      "outputs": [
        {
          "components": [
            {
              "internalType": "uint256",
              "name": "id",
              "type": "uint256"
            },
            {
              "internalType": "address",
              "name": "owner",
              "type": "address"
            },
            {
              "internalType": "uint256",
              "name": "ammount",
              "type": "uint256"
            },
            {
              "internalType": "uint256",
              "name": "redemptionDate",
              "type": "uint256"
            },
            {
              "internalType": "uint256",
              "name": "lastActivity",
              "type": "uint256"
            },
            {
              "internalType": "address payable",
              "name": "recipient",
              "type": "address"
            },
            {
              "internalType": "bool",
              "name": "redeemed",
              "type": "bool"
            },
            {
              "internalType": "bool",
              "name": "refunded",
              "type": "bool"
            }
          ],
          "internalType": "struct SmartWill.Will[]",
          "name": "",
          "type": "tuple[]"
        }
      ],
      "stateMutability": "view",
      "type": "function"
    },
    {
      "inputs": [
        {
          "internalType": "address",
          "name": "recipientAddress",
          "type": "address"
        }
      ],
      "name": "getWillsByRecipient",
      "outputs": [
        {
          "components": [
            {
              "internalType": "uint256",
              "name": "id",
              "type": "uint256"
            },
            {
              "internalType": "address",
              "name": "owner",
              "type": "address"
            },
            {
              "internalType": "uint256",
              "name": "ammount",
              "type": "uint256"
            },
            {
              "internalType": "uint256",
              "name": "redemptionDate",
              "type": "uint256"
            },
            {
              "internalType": "uint256",
              "name": "lastActivity",
              "type": "uint256"
            },
            {
              "internalType": "address payable",
              "name": "recipient",
              "type": "address"
            },
            {
              "internalType": "bool",
              "name": "redeemed",
              "type": "bool"
            },
            {
              "internalType": "bool",
              "name": "refunded",
              "type": "bool"
            }
          ],
          "internalType": "struct SmartWill.Will[]",
          "name": "",
          "type": "tuple[]"
        }
      ],
      "stateMutability": "view",
      "type": "function"
    },
    {
      "inputs": [
        {
          "internalType": "uint256",
          "name": "id",
          "type": "uint256"
        }
      ],
      "name": "redeemWill",
      "outputs": [],
      "stateMutability": "nonpayable",
      "type": "function"
    },
    {
      "inputs": [
        {
          "internalType": "uint256",
          "name": "id",
          "type": "uint256"
        }
      ],
      "name": "refundWill",
      "outputs": [],
      "stateMutability": "nonpayable",
      "type": "function"
    },
    {
      "inputs": [
        {
          "internalType": "uint256",
          "name": "id",
          "type": "uint256"
        }
      ],
      "name": "registerActivity",
      "outputs": [],
      "stateMutability": "nonpayable",
      "type": "function"
    }
  ],
  "bytecode": "0x608060405234801561001057600080fd5b50600080819055506128ea806100276000396000f3fe60806040526004361061007b5760003560e01c80639620e5791161004e5780639620e5791461014c578063a29c581714610177578063b31ef87a146101a7578063c93c23ee146101e45761007b565b806316daa3cd146100805780634192bbb0146100a957806379329554146100e65780637de00a9d1461010f575b600080fd5b34801561008c57600080fd5b506100a760048036038101906100a29190611d58565b61020d565b005b3480156100b557600080fd5b506100d060048036038101906100cb9190611d58565b610595565b6040516100dd919061267d565b60405180910390f35b3480156100f257600080fd5b5061010d60048036038101906101089190611d58565b610804565b005b34801561011b57600080fd5b5061013660048036038101906101319190611d2f565b610d8d565b604051610143919061247b565b60405180910390f35b34801561015857600080fd5b50610161610f36565b60405161016e9190612699565b60405180910390f35b610191600480360381019061018c9190611d81565b610f3f565b60405161019e9190612699565b60405180910390f35b3480156101b357600080fd5b506101ce60048036038101906101c99190611d2f565b61136d565b6040516101db919061247b565b60405180910390f35b3480156101f057600080fd5b5061020b60048036038101906102069190611d58565b611516565b005b60004290506000600160003373ffffffffffffffffffffffffffffffffffffffff1673ffffffffffffffffffffffffffffffffffffffff1681526020019081526020016000209050600081805490501161029c576040517f08c379a00000000000000000000000000000000000000000000000000000000081526004016102939061255d565b60405180910390fd5b6000805b82805490508160ff1610156103725784838260ff16815481106102ec577f4e487b7100000000000000000000000000000000000000000000000000000000600052603260045260246000fd5b906000526020600020906006020160000154141561035f5783838260ff1681548110610341577f4e487b7100000000000000000000000000000000000000000000000000000000600052603260045260246000fd5b90600052602060002090600602016004018190555060019150610372565b808061036a90612816565b9150506102a0565b50806103b3576040517f08c379a00000000000000000000000000000000000000000000000000000000081526004016103aa9061265d565b60405180910390fd5b6000600260003373ffffffffffffffffffffffffffffffffffffffff1673ffffffffffffffffffffffffffffffffffffffff1681526020019081526020016000209050600081805490501161043d576040517f08c379a00000000000000000000000000000000000000000000000000000000081526004016104349061261d565b60405180910390fd5b6000805b82805490508160ff1610156105135786838260ff168154811061048d577f4e487b7100000000000000000000000000000000000000000000000000000000600052603260045260246000fd5b90600052602060002090600602016000015414156105005785838260ff16815481106104e2577f4e487b7100000000000000000000000000000000000000000000000000000000600052603260045260246000fd5b90600052602060002090600602016004018190555060019150610513565b808061050b90612816565b915050610441565b5080610554576040517f08c379a000000000000000000000000000000000000000000000000000000000815260040161054b9061257d565b60405180910390fd5b7fc1ebbc75c762786fa594b165a0f87b98ee949f4f28d57d61351b8317e9bbac3b86866040516105859291906126b4565b60405180910390a1505050505050565b61059d611c7b565b6000600160003373ffffffffffffffffffffffffffffffffffffffff1673ffffffffffffffffffffffffffffffffffffffff168152602001908152602001600020905060005b81805490508160ff1610156107c35783828260ff168154811061062f577f4e487b7100000000000000000000000000000000000000000000000000000000600052603260045260246000fd5b90600052602060002090600602016000015414156107b057818160ff1681548110610683577f4e487b7100000000000000000000000000000000000000000000000000000000600052603260045260246000fd5b906000526020600020906006020160405180610100016040529081600082015481526020016001820160009054906101000a900473ffffffffffffffffffffffffffffffffffffffff1673ffffffffffffffffffffffffffffffffffffffff1673ffffffffffffffffffffffffffffffffffffffff1681526020016002820154815260200160038201548152602001600482015481526020016005820160009054906101000a900473ffffffffffffffffffffffffffffffffffffffff1673ffffffffffffffffffffffffffffffffffffffff1673ffffffffffffffffffffffffffffffffffffffff1681526020016005820160149054906101000a900460ff161515151581526020016005820160159054906101000a900460ff161515151581525050925050506107ff565b80806107bb90612816565b9150506105e3565b506040517f08c379a00000000000000000000000000000000000000000000000000000000081526004016107f69061249d565b60405180910390fd5b919050565b6000600160003373ffffffffffffffffffffffffffffffffffffffff1673ffffffffffffffffffffffffffffffffffffffff1681526020019081526020016000209050600081805490501161088e576040517f08c379a0000000000000000000000000000000000000000000000000000000008152600401610885906125dd565b60405180910390fd5b610896611c7b565b60005b82805490508160ff161015610add5783838260ff16815481106108e5577f4e487b7100000000000000000000000000000000000000000000000000000000600052603260045260246000fd5b9060005260206000209060060201600001541415610aca57828160ff1681548110610939577f4e487b7100000000000000000000000000000000000000000000000000000000600052603260045260246000fd5b906000526020600020906006020160405180610100016040529081600082015481526020016001820160009054906101000a900473ffffffffffffffffffffffffffffffffffffffff1673ffffffffffffffffffffffffffffffffffffffff1673ffffffffffffffffffffffffffffffffffffffff1681526020016002820154815260200160038201548152602001600482015481526020016005820160009054906101000a900473ffffffffffffffffffffffffffffffffffffffff1673ffffffffffffffffffffffffffffffffffffffff1673ffffffffffffffffffffffffffffffffffffffff1681526020016005820160149054906101000a900460ff161515151581526020016005820160159054906101000a900460ff16151515158152505091506001838260ff1681548110610a9d577f4e487b7100000000000000000000000000000000000000000000000000000000600052603260045260246000fd5b906000526020600020906006020160050160156101000a81548160ff021916908315150217905550610add565b8080610ad590612816565b915050610899565b506000816000015111610b25576040517f08c379a0000000000000000000000000000000000000000000000000000000008152600401610b1c9061263d565b60405180910390fd5b6000600260008360a0015173ffffffffffffffffffffffffffffffffffffffff1673ffffffffffffffffffffffffffffffffffffffff16815260200190815260200160002090506000818054905011610bb3576040517f08c379a0000000000000000000000000000000000000000000000000000000008152600401610baa906124fd565b60405180910390fd5b60005b81805490508160ff161015610d865784828260ff1681548110610c02577f4e487b7100000000000000000000000000000000000000000000000000000000600052603260045260246000fd5b9060005260206000209060060201600001541415610d73576000836020015173ffffffffffffffffffffffffffffffffffffffff168460400151604051610c48906123f8565b60006040518083038185875af1925050503d8060008114610c85576040519150601f19603f3d011682016040523d82523d6000602084013e610c8a565b606091505b5050905080610cce576040517f08c379a0000000000000000000000000000000000000000000000000000000008152600401610cc59061251d565b60405180910390fd5b6001838360ff1681548110610d0c577f4e487b7100000000000000000000000000000000000000000000000000000000600052603260045260246000fd5b906000526020600020906006020160050160156101000a81548160ff0219169083151502179055507f42b34bd8821994517b0cc8ea56303517206e6ffbbd3c454020240bb65af95e433387604051610d6592919061240d565b60405180910390a150610d86565b8080610d7e90612816565b915050610bb6565b5050505050565b6060600160008373ffffffffffffffffffffffffffffffffffffffff1673ffffffffffffffffffffffffffffffffffffffff168152602001908152602001600020805480602002602001604051908101604052809291908181526020016000905b82821015610f2b578382906000526020600020906006020160405180610100016040529081600082015481526020016001820160009054906101000a900473ffffffffffffffffffffffffffffffffffffffff1673ffffffffffffffffffffffffffffffffffffffff1673ffffffffffffffffffffffffffffffffffffffff1681526020016002820154815260200160038201548152602001600482015481526020016005820160009054906101000a900473ffffffffffffffffffffffffffffffffffffffff1673ffffffffffffffffffffffffffffffffffffffff1673ffffffffffffffffffffffffffffffffffffffff1681526020016005820160149054906101000a900460ff161515151581526020016005820160159054906101000a900460ff16151515158152505081526020019060010190610dee565b505050509050919050565b6000600a905090565b600080600160003373ffffffffffffffffffffffffffffffffffffffff1673ffffffffffffffffffffffffffffffffffffffff1681526020019081526020016000209050600a818054905010610fca576040517f08c379a0000000000000000000000000000000000000000000000000000000008152600401610fc1906125fd565b60405180910390fd5b600080815480929190610fdc906127cd565b9190505550600060405180610100016040528060005481526020013373ffffffffffffffffffffffffffffffffffffffff168152602001348152602001868152602001600081526020018573ffffffffffffffffffffffffffffffffffffffff168152602001600015158152602001600015158152509050818190806001815401808255809150506001900390600052602060002090600602016000909190919091506000820151816000015560208201518160010160006101000a81548173ffffffffffffffffffffffffffffffffffffffff021916908373ffffffffffffffffffffffffffffffffffffffff16021790555060408201518160020155606082015181600301556080820151816004015560a08201518160050160006101000a81548173ffffffffffffffffffffffffffffffffffffffff021916908373ffffffffffffffffffffffffffffffffffffffff16021790555060c08201518160050160146101000a81548160ff02191690831515021790555060e08201518160050160156101000a81548160ff02191690831515021790555050506000600260008673ffffffffffffffffffffffffffffffffffffffff1673ffffffffffffffffffffffffffffffffffffffff1681526020019081526020016000209050600a818054905010611201576040517f08c379a00000000000000000000000000000000000000000000000000000000081526004016111f8906124bd565b60405180910390fd5b808290806001815401808255809150506001900390600052602060002090600602016000909190919091506000820151816000015560208201518160010160006101000a81548173ffffffffffffffffffffffffffffffffffffffff021916908373ffffffffffffffffffffffffffffffffffffffff16021790555060408201518160020155606082015181600301556080820151816004015560a08201518160050160006101000a81548173ffffffffffffffffffffffffffffffffffffffff021916908373ffffffffffffffffffffffffffffffffffffffff16021790555060c08201518160050160146101000a81548160ff02191690831515021790555060e08201518160050160156101000a81548160ff02191690831515021790555050507fd40dc4a639c90600691397f655099adba04d6b763ef2122630edd47c09f1b6f93360005460405161135792919061240d565b60405180910390a1600054935050505092915050565b6060600260008373ffffffffffffffffffffffffffffffffffffffff1673ffffffffffffffffffffffffffffffffffffffff168152602001908152602001600020805480602002602001604051908101604052809291908181526020016000905b8282101561150b578382906000526020600020906006020160405180610100016040529081600082015481526020016001820160009054906101000a900473ffffffffffffffffffffffffffffffffffffffff1673ffffffffffffffffffffffffffffffffffffffff1673ffffffffffffffffffffffffffffffffffffffff1681526020016002820154815260200160038201548152602001600482015481526020016005820160009054906101000a900473ffffffffffffffffffffffffffffffffffffffff1673ffffffffffffffffffffffffffffffffffffffff1673ffffffffffffffffffffffffffffffffffffffff1681526020016005820160149054906101000a900460ff161515151581526020016005820160159054906101000a900460ff161515151581525050815260200190600101906113ce565b505050509050919050565b6000600260003373ffffffffffffffffffffffffffffffffffffffff1673ffffffffffffffffffffffffffffffffffffffff168152602001908152602001600020905060008180549050116115a0576040517f08c379a0000000000000000000000000000000000000000000000000000000008152600401611597906125bd565b60405180910390fd5b6000805b82805490508160ff161015611a825783838260ff16815481106115f0577f4e487b7100000000000000000000000000000000000000000000000000000000600052603260045260246000fd5b9060005260206000209060060201600001541415611a6f573373ffffffffffffffffffffffffffffffffffffffff16838260ff168154811061165b577f4e487b7100000000000000000000000000000000000000000000000000000000600052603260045260246000fd5b906000526020600020906006020160050160009054906101000a900473ffffffffffffffffffffffffffffffffffffffff1673ffffffffffffffffffffffffffffffffffffffff16146116e3576040517f08c379a00000000000000000000000000000000000000000000000000000000081526004016116da9061253d565b60405180910390fd5b42838260ff1681548110611720577f4e487b7100000000000000000000000000000000000000000000000000000000600052603260045260246000fd5b90600052602060002090600602016003015410611772576040517f08c379a00000000000000000000000000000000000000000000000000000000081526004016117699061259d565b60405180910390fd5b62ed4e00426117819190612732565b838260ff16815481106117bd577f4e487b7100000000000000000000000000000000000000000000000000000000600052603260045260246000fd5b9060005260206000209060060201600401541061180f576040517f08c379a0000000000000000000000000000000000000000000000000000000008152600401611806906124dd565b60405180910390fd5b6000838260ff168154811061184d577f4e487b7100000000000000000000000000000000000000000000000000000000600052603260045260246000fd5b906000526020600020906006020160050160009054906101000a900473ffffffffffffffffffffffffffffffffffffffff1673ffffffffffffffffffffffffffffffffffffffff16848360ff16815481106118d1577f4e487b7100000000000000000000000000000000000000000000000000000000600052603260045260246000fd5b9060005260206000209060060201600201546040516118ef906123f8565b60006040518083038185875af1925050503d806000811461192c576040519150601f19603f3d011682016040523d82523d6000602084013e611931565b606091505b5050905080611975576040517f08c379a000000000000000000000000000000000000000000000000000000000815260040161196c9061251d565b60405180910390fd5b6001848360ff16815481106119b3577f4e487b7100000000000000000000000000000000000000000000000000000000600052603260045260246000fd5b906000526020600020906006020160050160146101000a81548160ff0219169083151502179055507fea26074848e8b75aed7219d5a8edbd2adf91432b05b4ffe959dcdbfcce55df07338642878660ff1681548110611a3b577f4e487b7100000000000000000000000000000000000000000000000000000000600052603260045260246000fd5b906000526020600020906006020160030154604051611a5d9493929190612436565b60405180910390a16001925050611a82565b8080611a7a90612816565b9150506115a4565b5080611ac3576040517f08c379a0000000000000000000000000000000000000000000000000000000008152600401611aba9061257d565b60405180910390fd5b600080600160003373ffffffffffffffffffffffffffffffffffffffff1673ffffffffffffffffffffffffffffffffffffffff16815260200190815260200160002090506000818054905011611b4e576040517f08c379a0000000000000000000000000000000000000000000000000000000008152600401611b45906125bd565b60405180910390fd5b60005b81805490508160ff161015611c335785828260ff1681548110611b9d577f4e487b7100000000000000000000000000000000000000000000000000000000600052603260045260246000fd5b9060005260206000209060060201600001541415611c20576001828260ff1681548110611bf3577f4e487b7100000000000000000000000000000000000000000000000000000000600052603260045260246000fd5b906000526020600020906006020160050160146101000a81548160ff021916908315150217905550600192505b8080611c2b90612816565b915050611b51565b5081611c74576040517f08c379a0000000000000000000000000000000000000000000000000000000008152600401611c6b9061265d565b60405180910390fd5b5050505050565b60405180610100016040528060008152602001600073ffffffffffffffffffffffffffffffffffffffff168152602001600081526020016000815260200160008152602001600073ffffffffffffffffffffffffffffffffffffffff1681526020016000151581526020016000151581525090565b600081359050611cff8161286f565b92915050565b600081359050611d1481612886565b92915050565b600081359050611d298161289d565b92915050565b600060208284031215611d4157600080fd5b6000611d4f84828501611cf0565b91505092915050565b600060208284031215611d6a57600080fd5b6000611d7884828501611d1a565b91505092915050565b60008060408385031215611d9457600080fd5b6000611da285828601611d1a565b9250506020611db385828601611d05565b9150509250929050565b6000611dc98383612296565b6101008301905092915050565b611ddf81612778565b82525050565b611dee81612766565b82525050565b611dfd81612766565b82525050565b6000611e0e826126ed565b611e188185612705565b9350611e23836126dd565b8060005b83811015611e54578151611e3b8882611dbd565b9750611e46836126f8565b925050600181019050611e27565b5085935050505092915050565b611e6a8161278a565b82525050565b6000611e7d600983612721565b91507f4e6f7420666f756e6400000000000000000000000000000000000000000000006000830152602082019050919050565b6000611ebd603283612721565b91507f4d6178696d756d206e756d626572206f662077696c6c7320726561636865642060008301527f666f7220746869732072657472696576657200000000000000000000000000006020830152604082019050919050565b6000611f23603b83612721565b91507f496e6865726974616e6365206e6565647320746f20776169742036206d6f6e7460008301527f68732066726f6d206c617374206f776e657220616374697669747900000000006020830152604082019050919050565b6000611f89601d83612721565b91507f526563697069656e742077696c6c206c697374206e6f7420666f756e640000006000830152602082019050919050565b6000611fc9601483612721565b91507f4661696c656420746f2073656e642045746865720000000000000000000000006000830152602082019050919050565b6000612009600f83612721565b91507f57726f6e6720726563697069656e7400000000000000000000000000000000006000830152602082019050919050565b6000612049601983612721565b91507f4f776e65722057696c6c206c697374206e6f7420666f756e64000000000000006000830152602082019050919050565b6000612089601383612721565b91507f526563697069656e74206e6f7420666f756e64000000000000000000000000006000830152602082019050919050565b60006120c9601983612721565b91507f5472616e736665722074696d65206e6f742072656163686564000000000000006000830152602082019050919050565b6000612109601383612721565b91507f57696c6c206c697374206e6f7420666f756e64000000000000000000000000006000830152602082019050919050565b6000612149601983612721565b91507f4f776e65722077696c6c206c697374206e6f7420666f756e64000000000000006000830152602082019050919050565b6000612189601f83612721565b91507f4d6178696d756d206e756d626572206f662077696c6c732072656163686564006000830152602082019050919050565b60006121c9601d83612721565b91507f526563697069656e742057696c6c206c697374206e6f7420666f756e640000006000830152602082019050919050565b6000612209600e83612721565b91507f57696c6c206e6f7420666f756e640000000000000000000000000000000000006000830152602082019050919050565b6000612249600083612716565b9150600082019050919050565b6000612263600f83612721565b91507f4f776e6572206e6f7420666f756e6400000000000000000000000000000000006000830152602082019050919050565b610100820160008201516122ad60008501826123da565b5060208201516122c06020850182611de5565b5060408201516122d360408501826123da565b5060608201516122e660608501826123da565b5060808201516122f960808501826123da565b5060a082015161230c60a0850182611dd6565b5060c082015161231f60c0850182611e61565b5060e082015161233260e0850182611e61565b50505050565b6101008201600082015161234f60008501826123da565b5060208201516123626020850182611de5565b50604082015161237560408501826123da565b50606082015161238860608501826123da565b50608082015161239b60808501826123da565b5060a08201516123ae60a0850182611dd6565b5060c08201516123c160c0850182611e61565b5060e08201516123d460e0850182611e61565b50505050565b6123e3816127b6565b82525050565b6123f2816127b6565b82525050565b60006124038261223c565b9150819050919050565b60006040820190506124226000830185611df4565b61242f60208301846123e9565b9392505050565b600060808201905061244b6000830187611df4565b61245860208301866123e9565b61246560408301856123e9565b61247260608301846123e9565b95945050505050565b600060208201905081810360008301526124958184611e03565b905092915050565b600060208201905081810360008301526124b681611e70565b9050919050565b600060208201905081810360008301526124d681611eb0565b9050919050565b600060208201905081810360008301526124f681611f16565b9050919050565b6000602082019050818103600083015261251681611f7c565b9050919050565b6000602082019050818103600083015261253681611fbc565b9050919050565b6000602082019050818103600083015261255681611ffc565b9050919050565b600060208201905081810360008301526125768161203c565b9050919050565b600060208201905081810360008301526125968161207c565b9050919050565b600060208201905081810360008301526125b6816120bc565b9050919050565b600060208201905081810360008301526125d6816120fc565b9050919050565b600060208201905081810360008301526125f68161213c565b9050919050565b600060208201905081810360008301526126168161217c565b9050919050565b60006020820190508181036000830152612636816121bc565b9050919050565b60006020820190508181036000830152612656816121fc565b9050919050565b6000602082019050818103600083015261267681612256565b9050919050565b6000610100820190506126936000830184612338565b92915050565b60006020820190506126ae60008301846123e9565b92915050565b60006040820190506126c960008301856123e9565b6126d660208301846123e9565b9392505050565b6000819050602082019050919050565b600081519050919050565b6000602082019050919050565b600082825260208201905092915050565b600081905092915050565b600082825260208201905092915050565b600061273d826127b6565b9150612748836127b6565b92508282101561275b5761275a612840565b5b828203905092915050565b600061277182612796565b9050919050565b600061278382612796565b9050919050565b60008115159050919050565b600073ffffffffffffffffffffffffffffffffffffffff82169050919050565b6000819050919050565b600060ff82169050919050565b60006127d8826127b6565b91507fffffffffffffffffffffffffffffffffffffffffffffffffffffffffffffffff82141561280b5761280a612840565b5b600182019050919050565b6000612821826127c0565b915060ff82141561283557612834612840565b5b600182019050919050565b7f4e487b7100000000000000000000000000000000000000000000000000000000600052601160045260246000fd5b61287881612766565b811461288357600080fd5b50565b61288f81612778565b811461289a57600080fd5b50565b6128a6816127b6565b81146128b157600080fd5b5056fea26469706673582212202d408314e711ac0ffe9316b2bcea818f63ee18b4b15d837d1ce7ba977e184d0364736f6c63430008000033",
  "immutableReferences": {},
  "source": "// SPDX-License-Identifier: GPL-3.0\r\n\r\npragma solidity >=0.8.0 <0.9.0;\r\n\r\n/**\r\n * @title SmartWill\r\n * @dev Time based resource transfers\r\n */\r\ncontract SmartWill {\r\n\r\n    event WillCreated(address owner, uint id);\r\n    event WillRefunded(address owner, uint id);\r\n    event WillActivityRegistered(uint id, uint blockTime);\r\n    event WillRedeemed(address recipient, uint id, uint blockTime, uint redemptionTime);\r\n    event BalanceChanged(address owner, uint balance);\r\n    event RedemptionError(uint blockTime, uint redemptionTime);\r\n\r\n    uint constant maxWillCount = 10;\r\n\r\n    struct Will {\r\n        uint id;\r\n        address owner;\r\n        uint ammount;\r\n        uint redemptionDate;\r\n        uint lastActivity;\r\n        address payable recipient;\r\n        bool redeemed;\r\n        bool refunded;\r\n    }\r\n\r\n    uint currentId;\r\n\r\n    mapping(address => Will[])  willsByOwner;\r\n    mapping(address => Will[])  willsByRecipient;\r\n\r\n    constructor() {\r\n        currentId = 0;\r\n    }\r\n    \r\n    /**\r\n     * @dev Creates a new will\r\n     * @return will id\r\n     */\r\n    function createWill(uint redemptionDate, address payable recipient) external payable returns (uint){\r\n        Will[] storage wills = willsByOwner[msg.sender];\r\n        // Check if maxWillCount reached\r\n        require(wills.length < maxWillCount, \"Maximum number of wills reached\");\r\n        currentId++;\r\n        Will memory will = Will({\r\n            id: currentId,\r\n            owner: msg.sender,\r\n            ammount: msg.value,\r\n            redemptionDate: redemptionDate,\r\n            recipient: recipient,\r\n            lastActivity: 0,\r\n            redeemed: false,\r\n            refunded: false\r\n        });\r\n        wills.push(will);\r\n        \r\n        Will[] storage willsByRecipientList = willsByRecipient[recipient];\r\n        require(willsByRecipientList.length < maxWillCount, \"Maximum number of wills reached for this retriever\");    \r\n        willsByRecipientList.push(will);\r\n        \r\n        emit WillCreated(msg.sender,currentId);\r\n\r\n        return currentId;\r\n    }\r\n\r\n    function getMaxWillCount() external pure returns (uint){\r\n        return maxWillCount;\r\n    }\r\n\r\n    /**\r\n     * @dev Get a will by id\r\n     * @return w will\r\n     */\r\n    function getWill(uint id) external view returns (Will memory w){\r\n        Will[] storage willsByOwnerList = willsByOwner[msg.sender];\r\n        for (uint8 index = 0; index < willsByOwnerList.length; index++) {\r\n            if(willsByOwnerList[index].id == id) {\r\n               return willsByOwnerList[index];\r\n            }\r\n        }\r\n        revert('Not found');\r\n    }\r\n    \r\n    /**\r\n     * @dev Get wills assigned to this owner address\r\n     * @return wills\r\n     */\r\n    function getWillsByOwner(address ownerAddress) public view returns (Will[] memory){\r\n        return willsByOwner[ownerAddress];\r\n    }\r\n\r\n    /**\r\n     * @dev Get wills assigned to this recipient address\r\n     * @return wills\r\n     */\r\n    function getWillsByRecipient(address recipientAddress) public view returns (Will[] memory){\r\n        return willsByRecipient[recipientAddress];\r\n    }\r\n\r\n     /**\r\n     * @dev Redeems a will\r\n     */\r\n    function redeemWill(uint id) external{\r\n        Will[] storage willsByRecipientList = willsByRecipient[msg.sender];\r\n        require(\r\n           willsByRecipientList.length > 0, \"Will list not found\"\r\n        );\r\n        bool recipientFound = false;\r\n        for (uint8 index = 0; index < willsByRecipientList.length; index++) {\r\n            if(willsByRecipientList[index].id == id) {\r\n                require(\r\n                    willsByRecipientList[index].recipient == msg.sender, \"Wrong recipient\"\r\n                );\r\n                require(\r\n                    willsByRecipientList[index].redemptionDate < block.timestamp, \"Transfer time not reached\"\r\n                );\r\n                require(\r\n                    willsByRecipientList[index].lastActivity < block.timestamp - 180 days, \"Inheritance needs to wait 6 months from last owner activity\"\r\n                );\r\n                (bool sent,) = willsByRecipientList[index].recipient.call{value: willsByRecipientList[index].ammount}(\"\");\r\n                require(sent, \"Failed to send Ether\");\r\n                willsByRecipientList[index].redeemed = true;\r\n                emit WillRedeemed(msg.sender,id, block.timestamp,willsByRecipientList[index].redemptionDate);\r\n                recipientFound = true;\r\n                break;\r\n            }\r\n        }\r\n        require(recipientFound, 'Recipient not found');\r\n        bool ownerFound = false;\r\n        Will[] storage willsByOwnerList = willsByOwner[msg.sender];\r\n        require(\r\n           willsByOwnerList.length > 0, \"Will list not found\"\r\n        );\r\n        for (uint8 index = 0; index < willsByOwnerList.length; index++) {\r\n            if(willsByOwnerList[index].id == id) {\r\n                willsByOwnerList[index].redeemed = true;\r\n                ownerFound = true;\r\n            }\r\n        }\r\n        require(ownerFound, 'Owner not found');\r\n    }\r\n\r\n    /**\r\n     * @dev Deletes a will and returns value to owner (minus gas costs)\r\n     */\r\n    function refundWill(uint id) external{\r\n        Will[] storage willsByOwnerList = willsByOwner[msg.sender];\r\n        require(\r\n           willsByOwnerList.length > 0, \"Owner will list not found\"\r\n        );\r\n        Will memory will;\r\n        for (uint8 index = 0; index < willsByOwnerList.length; index++) {\r\n            if(willsByOwnerList[index].id == id) {\r\n               will = willsByOwnerList[index];\r\n               willsByOwnerList[index].refunded = true;\r\n               break;\r\n            }\r\n        }\r\n        require(will.id > 0, 'Will not found');\r\n        Will[] storage willsByRecipientList = willsByRecipient[will.recipient];\r\n        require(\r\n           willsByRecipientList.length > 0, \"Recipient will list not found\"\r\n        );\r\n        for (uint8 index = 0; index < willsByRecipientList.length; index++) {\r\n            if(willsByRecipientList[index].id == id) {\r\n                \r\n                (bool sent,) = will.owner.call{value: will.ammount}(\"\");\r\n                require(sent, \"Failed to send Ether\");\r\n                \r\n                willsByRecipientList[index].refunded = true;\r\n                emit WillRefunded(msg.sender,id);\r\n                break;\r\n            }\r\n        }\r\n    }\r\n\r\n    /**\r\n     * @dev Register activity on a will record to avoid redemption\r\n     */\r\n    function registerActivity(uint id) public {\r\n        uint blockTime = block.timestamp;\r\n        Will[] storage willsByOwnerList = willsByOwner[msg.sender];\r\n        require(\r\n           willsByOwnerList.length > 0, \"Owner Will list not found\"\r\n        );\r\n        bool ownerFound = false;\r\n        for (uint8 index = 0; index < willsByOwnerList.length; index++) {\r\n            if(willsByOwnerList[index].id == id) {\r\n               willsByOwnerList[index].lastActivity = blockTime;\r\n               ownerFound = true;\r\n               break;\r\n            }\r\n        }\r\n        require(ownerFound, 'Owner not found');\r\n        Will[] storage willsByRecipientList = willsByRecipient[msg.sender];\r\n        require(\r\n           willsByRecipientList.length > 0, \"Recipient Will list not found\"\r\n        );\r\n        bool recipientFound = false;\r\n        for (uint8 index = 0; index < willsByRecipientList.length; index++) {\r\n            if(willsByRecipientList[index].id == id) {\r\n               willsByRecipientList[index].lastActivity = blockTime;\r\n               recipientFound = true;\r\n               break;\r\n            }\r\n        }\r\n        require(recipientFound, 'Recipient not found');\r\n        emit WillActivityRegistered(id,blockTime);\r\n    }\r\n\r\n}",
  "sourcePath": "D:\\dev\\smart_will\\contracts\\SmartWill.sol",
  "compiler": {
    "name": "solc",
    "version": "0.8.0+commit.c7dfd78e.Emscripten.clang"
  },
  "schemaVersion": "3.4.3",
  "updatedAt": "2021-11-28T04:52:29.138Z",
  "devdoc": {
    "details": "Time based resource transfers",
    "kind": "dev",
    "methods": {
      "createWill(uint256,address)": {
        "details": "Creates a new will",
        "returns": {
          "_0": "will id"
        }
      },
      "getWill(uint256)": {
        "details": "Get a will by id",
        "returns": {
          "w": "will"
        }
      },
      "getWillsByOwner(address)": {
        "details": "Get wills assigned to this owner address",
        "returns": {
          "_0": "wills"
        }
      },
      "getWillsByRecipient(address)": {
        "details": "Get wills assigned to this recipient address",
        "returns": {
          "_0": "wills"
        }
      },
      "redeemWill(uint256)": {
        "details": "Redeems a will"
      },
      "refundWill(uint256)": {
        "details": "Deletes a will and returns value to owner (minus gas costs)"
      },
      "registerActivity(uint256)": {
        "details": "Register activity on a will record to avoid redemption"
      }
    },
    "title": "SmartWill",
    "version": 1
  },
  "userdoc": {
    "kind": "user",
    "methods": {},
    "version": 1
  }
}